{
	"Learn/BallotWithModifier.sol": {
		"Ballot": {
			"abi": [
				{
					"constant": false,
					"inputs": [
						{
							"name": "toVoter",
							"type": "address"
						}
					],
					"name": "register",
					"outputs": [],
					"payable": false,
					"stateMutability": "nonpayable",
					"type": "function"
				},
				{
					"constant": true,
					"inputs": [],
					"name": "winningProposal",
					"outputs": [
						{
							"name": "_winningProposal",
							"type": "uint8"
						}
					],
					"payable": false,
					"stateMutability": "view",
					"type": "function"
				},
				{
					"constant": false,
					"inputs": [
						{
							"name": "toProposal",
							"type": "uint8"
						}
					],
					"name": "vote",
					"outputs": [],
					"payable": false,
					"stateMutability": "nonpayable",
					"type": "function"
				},
				{
					"constant": true,
					"inputs": [],
					"name": "stage",
					"outputs": [
						{
							"name": "",
							"type": "uint8"
						}
					],
					"payable": false,
					"stateMutability": "view",
					"type": "function"
				},
				{
					"inputs": [
						{
							"name": "_numProposals",
							"type": "uint8"
						}
					],
					"payable": false,
					"stateMutability": "nonpayable",
					"type": "constructor"
				},
				{
					"anonymous": false,
					"inputs": [],
					"name": "votingCompleted",
					"type": "event"
				}
			],
			"devdoc": {
				"methods": {}
			},
			"evm": {
				"assembly": "    /* \"Learn/BallotWithModifier.sol\":58:2414  contract Ballot {\r... */\n  mstore(0x40, 0x60)\n    /* \"Learn/BallotWithModifier.sol\":316:326  Stage.Init */\n  0x0\n    /* \"Learn/BallotWithModifier.sol\":295:326  Stage public stage = Stage.Init */\n  dup1\n  exp(0x100, 0x0)\n  dup2\n  sload\n  dup2\n  0xff\n  mul\n  not\n  and\n  swap1\n  dup4\n  0x3\n  dup2\n  gt\n  iszero\n  tag_1\n  jumpi\n  invalid\ntag_1:\n  mul\n  or\n  swap1\n  sstore\n  pop\n    /* \"Learn/BallotWithModifier.sol\":675:937  function Ballot(uint8 _numProposals) public  {\r... */\n  jumpi(tag_2, iszero(callvalue))\n  0x0\n  dup1\n  revert\ntag_2:\n  mload(0x40)\n  0x20\n  dup1\n  bytecodeSize\n  dup4\n  codecopy\n  dup2\n  add\n  0x40\n  mstore\n  dup1\n  dup1\n  mload\n  swap1\n  0x20\n  add\n  swap1\n  swap2\n  swap1\n  pop\n  pop\n    /* \"Learn/BallotWithModifier.sol\":745:755  msg.sender */\n  caller\n    /* \"Learn/BallotWithModifier.sol\":731:742  chairperson */\n  0x0\n  0x1\n    /* \"Learn/BallotWithModifier.sol\":731:755  chairperson = msg.sender */\n  0x100\n  exp\n  dup2\n  sload\n  dup2\n  0xffffffffffffffffffffffffffffffffffffffff\n  mul\n  not\n  and\n  swap1\n  dup4\n  0xffffffffffffffffffffffffffffffffffffffff\n  and\n  mul\n  or\n  swap1\n  sstore\n  pop\n    /* \"Learn/BallotWithModifier.sol\":795:796  2 */\n  0x2\n    /* \"Learn/BallotWithModifier.sol\":766:772  voters */\n  0x1\n    /* \"Learn/BallotWithModifier.sol\":766:785  voters[chairperson] */\n  0x0\n    /* \"Learn/BallotWithModifier.sol\":773:784  chairperson */\n  dup1\n  0x1\n  swap1\n  sload\n  swap1\n  0x100\n  exp\n  swap1\n  div\n  0xffffffffffffffffffffffffffffffffffffffff\n  and\n    /* \"Learn/BallotWithModifier.sol\":766:785  voters[chairperson] */\n  0xffffffffffffffffffffffffffffffffffffffff\n  and\n  0xffffffffffffffffffffffffffffffffffffffff\n  and\n  dup2\n  mstore\n  0x20\n  add\n  swap1\n  dup2\n  mstore\n  0x20\n  add\n  0x0\n  keccak256\n    /* \"Learn/BallotWithModifier.sol\":766:792  voters[chairperson].weight */\n  0x0\n  add\n    /* \"Learn/BallotWithModifier.sol\":766:796  voters[chairperson].weight = 2 */\n  dup2\n  swap1\n  sstore\n  pop\n    /* \"Learn/BallotWithModifier.sol\":862:875  _numProposals */\n  dup1\n    /* \"Learn/BallotWithModifier.sol\":843:875  proposals.length = _numProposals */\n  0xff\n  and\n    /* \"Learn/BallotWithModifier.sol\":843:852  proposals */\n  0x2\n    /* \"Learn/BallotWithModifier.sol\":843:875  proposals.length = _numProposals */\n  dup2\n  tag_5\n  swap2\n  swap1\n  jump\t// in(tag_6)\ntag_5:\n  pop\n    /* \"Learn/BallotWithModifier.sol\":894:903  Stage.Reg */\n  0x1\n    /* \"Learn/BallotWithModifier.sol\":886:891  stage */\n  0x0\n  dup1\n    /* \"Learn/BallotWithModifier.sol\":886:903  stage = Stage.Reg */\n  0x100\n  exp\n  dup2\n  sload\n  dup2\n  0xff\n  mul\n  not\n  and\n  swap1\n  dup4\n  0x3\n  dup2\n  gt\n  iszero\n  tag_7\n  jumpi\n  invalid\ntag_7:\n  mul\n  or\n  swap1\n  sstore\n  pop\n    /* \"Learn/BallotWithModifier.sol\":926:929  now */\n  timestamp\n    /* \"Learn/BallotWithModifier.sol\":914:923  startTime */\n  0x3\n    /* \"Learn/BallotWithModifier.sol\":914:929  startTime = now */\n  dup2\n  swap1\n  sstore\n  pop\n    /* \"Learn/BallotWithModifier.sol\":675:937  function Ballot(uint8 _numProposals) public  {\r... */\n  pop\n    /* \"Learn/BallotWithModifier.sol\":58:2414  contract Ballot {\r... */\n  jump(tag_8)\ntag_6:\n  dup2\n  sload\n  dup2\n  dup4\n  sstore\n  dup2\n  dup2\n  iszero\n  gt\n  tag_9\n  jumpi\n  dup2\n  dup4\n  0x0\n  mstore\n  keccak256(0x0, 0x20)\n  swap2\n  dup3\n  add\n  swap2\n  add\n  tag_10\n  swap2\n  swap1\n  jump\t// in(tag_11)\ntag_10:\ntag_9:\n  pop\n  pop\n  pop\n  jump\t// out\ntag_11:\n  tag_12\n  swap2\n  swap1\ntag_13:\n  dup1\n  dup3\n  gt\n  iszero\n  tag_14\n  jumpi\n  0x0\n  dup1\n  dup3\n  add\n  0x0\n  swap1\n  sstore\n  pop\n  0x1\n  add\n  jump(tag_13)\ntag_14:\n  pop\n  swap1\n  jump\ntag_12:\n  swap1\n  jump\t// out\ntag_8:\n  dataSize(sub_0)\n  dup1\n  dataOffset(sub_0)\n  0x0\n  codecopy\n  0x0\n  return\nstop\n\nsub_0: assembly {\n        /* \"Learn/BallotWithModifier.sol\":58:2414  contract Ballot {\r... */\n      mstore(0x40, 0x60)\n      calldataload(0x0)\n      0x100000000000000000000000000000000000000000000000000000000\n      swap1\n      div\n      0xffffffff\n      and\n      dup1\n      0x4420e486\n      eq\n      tag_2\n      jumpi\n      dup1\n      0x609ff1bd\n      eq\n      tag_3\n      jumpi\n      dup1\n      0xb3f98adc\n      eq\n      tag_4\n      jumpi\n      dup1\n      0xc040e6b8\n      eq\n      tag_5\n      jumpi\n      0x0\n      dup1\n      revert\n        /* \"Learn/BallotWithModifier.sol\":1051:1393  function register(address toVoter) public validStage(Stage.Reg) {\r... */\n    tag_2:\n      jumpi(tag_6, iszero(callvalue))\n      0x0\n      dup1\n      revert\n    tag_6:\n      tag_7\n      0x4\n      dup1\n      dup1\n      calldataload\n      0xffffffffffffffffffffffffffffffffffffffff\n      and\n      swap1\n      0x20\n      add\n      swap1\n      swap2\n      swap1\n      pop\n      pop\n      jump(tag_8)\n    tag_7:\n      stop\n        /* \"Learn/BallotWithModifier.sol\":1932:2411  function winningProposal() public validStage(Stage.Done) constant returns (uint8 _winningProposal) {\r... */\n    tag_3:\n      jumpi(tag_9, iszero(callvalue))\n      0x0\n      dup1\n      revert\n    tag_9:\n      tag_10\n      jump(tag_11)\n    tag_10:\n      mload(0x40)\n      dup1\n      dup3\n      0xff\n      and\n      0xff\n      and\n      dup2\n      mstore\n      0x20\n      add\n      swap2\n      pop\n      pop\n      mload(0x40)\n      dup1\n      swap2\n      sub\n      swap1\n      return\n        /* \"Learn/BallotWithModifier.sol\":1456:1924  function vote(uint8 toProposal) public validStage(Stage.Vote)  {\r... */\n    tag_4:\n      jumpi(tag_12, iszero(callvalue))\n      0x0\n      dup1\n      revert\n    tag_12:\n      tag_13\n      0x4\n      dup1\n      dup1\n      calldataload\n      0xff\n      and\n      swap1\n      0x20\n      add\n      swap1\n      swap2\n      swap1\n      pop\n      pop\n      jump(tag_14)\n    tag_13:\n      stop\n        /* \"Learn/BallotWithModifier.sol\":295:326  Stage public stage = Stage.Init */\n    tag_5:\n      jumpi(tag_15, iszero(callvalue))\n      0x0\n      dup1\n      revert\n    tag_15:\n      tag_16\n      jump(tag_17)\n    tag_16:\n      mload(0x40)\n      dup1\n      dup3\n      0x3\n      dup2\n      gt\n      iszero\n      tag_18\n      jumpi\n      invalid\n    tag_18:\n      0xff\n      and\n      dup2\n      mstore\n      0x20\n      add\n      swap2\n      pop\n      pop\n      mload(0x40)\n      dup1\n      swap2\n      sub\n      swap1\n      return\n        /* \"Learn/BallotWithModifier.sol\":1051:1393  function register(address toVoter) public validStage(Stage.Reg) {\r... */\n    tag_8:\n        /* \"Learn/BallotWithModifier.sol\":1104:1113  Stage.Reg */\n      0x1\n        /* \"Learn/BallotWithModifier.sol\":566:574  reqStage */\n      dup1\n        /* \"Learn/BallotWithModifier.sol\":557:574  stage == reqStage */\n      0x3\n      dup2\n      gt\n      iszero\n      tag_20\n      jumpi\n      invalid\n    tag_20:\n        /* \"Learn/BallotWithModifier.sol\":557:562  stage */\n      0x0\n      dup1\n      swap1\n      sload\n      swap1\n      0x100\n      exp\n      swap1\n      div\n      0xff\n      and\n        /* \"Learn/BallotWithModifier.sol\":557:574  stage == reqStage */\n      0x3\n      dup2\n      gt\n      iszero\n      tag_21\n      jumpi\n      invalid\n    tag_21:\n      eq\n        /* \"Learn/BallotWithModifier.sol\":549:575  require(stage == reqStage) */\n      iszero\n      iszero\n      tag_22\n      jumpi\n      0x0\n      dup1\n      revert\n    tag_22:\n        /* \"Learn/BallotWithModifier.sol\":1189:1200  chairperson */\n      0x0\n      0x1\n      swap1\n      sload\n      swap1\n      0x100\n      exp\n      swap1\n      div\n      0xffffffffffffffffffffffffffffffffffffffff\n      and\n        /* \"Learn/BallotWithModifier.sol\":1175:1200  msg.sender != chairperson */\n      0xffffffffffffffffffffffffffffffffffffffff\n      and\n        /* \"Learn/BallotWithModifier.sol\":1175:1185  msg.sender */\n      caller\n        /* \"Learn/BallotWithModifier.sol\":1175:1200  msg.sender != chairperson */\n      0xffffffffffffffffffffffffffffffffffffffff\n      and\n      eq\n      iszero\n        /* \"Learn/BallotWithModifier.sol\":1175:1225  msg.sender != chairperson || voters[toVoter].voted */\n      dup1\n      tag_24\n      jumpi\n      pop\n        /* \"Learn/BallotWithModifier.sol\":1204:1210  voters */\n      0x1\n        /* \"Learn/BallotWithModifier.sol\":1204:1219  voters[toVoter] */\n      0x0\n        /* \"Learn/BallotWithModifier.sol\":1211:1218  toVoter */\n      dup4\n        /* \"Learn/BallotWithModifier.sol\":1204:1219  voters[toVoter] */\n      0xffffffffffffffffffffffffffffffffffffffff\n      and\n      0xffffffffffffffffffffffffffffffffffffffff\n      and\n      dup2\n      mstore\n      0x20\n      add\n      swap1\n      dup2\n      mstore\n      0x20\n      add\n      0x0\n      keccak256\n        /* \"Learn/BallotWithModifier.sol\":1204:1225  voters[toVoter].voted */\n      0x1\n      add\n      0x0\n      swap1\n      sload\n      swap1\n      0x100\n      exp\n      swap1\n      div\n      0xff\n      and\n        /* \"Learn/BallotWithModifier.sol\":1175:1225  msg.sender != chairperson || voters[toVoter].voted */\n    tag_24:\n        /* \"Learn/BallotWithModifier.sol\":1171:1234  if (msg.sender != chairperson || voters[toVoter].voted) return; */\n      iszero\n      tag_25\n      jumpi\n        /* \"Learn/BallotWithModifier.sol\":1227:1234  return; */\n      jump(tag_23)\n        /* \"Learn/BallotWithModifier.sol\":1171:1234  if (msg.sender != chairperson || voters[toVoter].voted) return; */\n    tag_25:\n        /* \"Learn/BallotWithModifier.sol\":1269:1270  1 */\n      0x1\n        /* \"Learn/BallotWithModifier.sol\":1244:1250  voters */\n      dup1\n        /* \"Learn/BallotWithModifier.sol\":1244:1259  voters[toVoter] */\n      0x0\n        /* \"Learn/BallotWithModifier.sol\":1251:1258  toVoter */\n      dup5\n        /* \"Learn/BallotWithModifier.sol\":1244:1259  voters[toVoter] */\n      0xffffffffffffffffffffffffffffffffffffffff\n      and\n      0xffffffffffffffffffffffffffffffffffffffff\n      and\n      dup2\n      mstore\n      0x20\n      add\n      swap1\n      dup2\n      mstore\n      0x20\n      add\n      0x0\n      keccak256\n        /* \"Learn/BallotWithModifier.sol\":1244:1266  voters[toVoter].weight */\n      0x0\n      add\n        /* \"Learn/BallotWithModifier.sol\":1244:1270  voters[toVoter].weight = 1 */\n      dup2\n      swap1\n      sstore\n      pop\n        /* \"Learn/BallotWithModifier.sol\":1305:1310  false */\n      0x0\n        /* \"Learn/BallotWithModifier.sol\":1281:1287  voters */\n      0x1\n        /* \"Learn/BallotWithModifier.sol\":1281:1296  voters[toVoter] */\n      0x0\n        /* \"Learn/BallotWithModifier.sol\":1288:1295  toVoter */\n      dup5\n        /* \"Learn/BallotWithModifier.sol\":1281:1296  voters[toVoter] */\n      0xffffffffffffffffffffffffffffffffffffffff\n      and\n      0xffffffffffffffffffffffffffffffffffffffff\n      and\n      dup2\n      mstore\n      0x20\n      add\n      swap1\n      dup2\n      mstore\n      0x20\n      add\n      0x0\n      keccak256\n        /* \"Learn/BallotWithModifier.sol\":1281:1302  voters[toVoter].voted */\n      0x1\n      add\n      0x0\n        /* \"Learn/BallotWithModifier.sol\":1281:1310  voters[toVoter].voted = false */\n      0x100\n      exp\n      dup2\n      sload\n      dup2\n      0xff\n      mul\n      not\n      and\n      swap1\n      dup4\n      iszero\n      iszero\n      mul\n      or\n      swap1\n      sstore\n      pop\n        /* \"Learn/BallotWithModifier.sol\":1343:1353  30 seconds */\n      0x1e\n        /* \"Learn/BallotWithModifier.sol\":1332:1341  startTime */\n      sload(0x3)\n        /* \"Learn/BallotWithModifier.sol\":1332:1353  startTime+ 30 seconds */\n      add\n        /* \"Learn/BallotWithModifier.sol\":1325:1328  now */\n      timestamp\n        /* \"Learn/BallotWithModifier.sol\":1325:1354  now > (startTime+ 30 seconds) */\n      gt\n        /* \"Learn/BallotWithModifier.sol\":1321:1378  if (now > (startTime+ 30 seconds)) {stage = Stage.Vote; } */\n      iszero\n      tag_26\n      jumpi\n        /* \"Learn/BallotWithModifier.sol\":1365:1375  Stage.Vote */\n      0x2\n        /* \"Learn/BallotWithModifier.sol\":1357:1362  stage */\n      0x0\n      dup1\n        /* \"Learn/BallotWithModifier.sol\":1357:1375  stage = Stage.Vote */\n      0x100\n      exp\n      dup2\n      sload\n      dup2\n      0xff\n      mul\n      not\n      and\n      swap1\n      dup4\n      0x3\n      dup2\n      gt\n      iszero\n      tag_27\n      jumpi\n      invalid\n    tag_27:\n      mul\n      or\n      swap1\n      sstore\n      pop\n        /* \"Learn/BallotWithModifier.sol\":1321:1378  if (now > (startTime+ 30 seconds)) {stage = Stage.Vote; } */\n    tag_26:\n        /* \"Learn/BallotWithModifier.sol\":584:585  _ */\n    tag_23:\n        /* \"Learn/BallotWithModifier.sol\":1051:1393  function register(address toVoter) public validStage(Stage.Reg) {\r... */\n      pop\n      pop\n      jump\t// out\n        /* \"Learn/BallotWithModifier.sol\":1932:2411  function winningProposal() public validStage(Stage.Done) constant returns (uint8 _winningProposal) {\r... */\n    tag_11:\n        /* \"Learn/BallotWithModifier.sol\":2007:2029  uint8 _winningProposal */\n      0x0\n        /* \"Learn/BallotWithModifier.sol\":2086:2110  uint256 winningVoteCount */\n      dup1\n        /* \"Learn/BallotWithModifier.sol\":2130:2140  uint8 prop */\n      0x0\n        /* \"Learn/BallotWithModifier.sol\":1977:1987  Stage.Done */\n      0x3\n        /* \"Learn/BallotWithModifier.sol\":566:574  reqStage */\n      dup1\n        /* \"Learn/BallotWithModifier.sol\":557:574  stage == reqStage */\n      0x3\n      dup2\n      gt\n      iszero\n      tag_29\n      jumpi\n      invalid\n    tag_29:\n        /* \"Learn/BallotWithModifier.sol\":557:562  stage */\n      0x0\n      dup1\n      swap1\n      sload\n      swap1\n      0x100\n      exp\n      swap1\n      div\n      0xff\n      and\n        /* \"Learn/BallotWithModifier.sol\":557:574  stage == reqStage */\n      0x3\n      dup2\n      gt\n      iszero\n      tag_30\n      jumpi\n      invalid\n    tag_30:\n      eq\n        /* \"Learn/BallotWithModifier.sol\":549:575  require(stage == reqStage) */\n      iszero\n      iszero\n      tag_31\n      jumpi\n      0x0\n      dup1\n      revert\n    tag_31:\n        /* \"Learn/BallotWithModifier.sol\":2113:2114  0 */\n      0x0\n        /* \"Learn/BallotWithModifier.sol\":2086:2114  uint256 winningVoteCount = 0 */\n      swap3\n      pop\n        /* \"Learn/BallotWithModifier.sol\":2143:2144  0 */\n      0x0\n        /* \"Learn/BallotWithModifier.sol\":2130:2144  uint8 prop = 0 */\n      swap2\n      pop\n        /* \"Learn/BallotWithModifier.sol\":2125:2363  for (uint8 prop = 0; prop < proposals.length; prop++)\r... */\n    tag_33:\n        /* \"Learn/BallotWithModifier.sol\":2153:2162  proposals */\n      0x2\n        /* \"Learn/BallotWithModifier.sol\":2153:2169  proposals.length */\n      dup1\n      sload\n      swap1\n      pop\n        /* \"Learn/BallotWithModifier.sol\":2146:2150  prop */\n      dup3\n        /* \"Learn/BallotWithModifier.sol\":2146:2169  prop < proposals.length */\n      0xff\n      and\n      lt\n        /* \"Learn/BallotWithModifier.sol\":2125:2363  for (uint8 prop = 0; prop < proposals.length; prop++)\r... */\n      iszero\n      tag_34\n      jumpi\n        /* \"Learn/BallotWithModifier.sol\":2224:2240  winningVoteCount */\n      dup3\n        /* \"Learn/BallotWithModifier.sol\":2196:2205  proposals */\n      0x2\n        /* \"Learn/BallotWithModifier.sol\":2206:2210  prop */\n      dup4\n        /* \"Learn/BallotWithModifier.sol\":2196:2211  proposals[prop] */\n      0xff\n      and\n      dup2\n      sload\n      dup2\n      lt\n      iszero\n      iszero\n      tag_36\n      jumpi\n      invalid\n    tag_36:\n      swap1\n      0x0\n      mstore\n      keccak256(0x0, 0x20)\n      swap1\n      add\n        /* \"Learn/BallotWithModifier.sol\":2196:2221  proposals[prop].voteCount */\n      0x0\n      add\n      sload\n        /* \"Learn/BallotWithModifier.sol\":2196:2240  proposals[prop].voteCount > winningVoteCount */\n      gt\n        /* \"Learn/BallotWithModifier.sol\":2192:2363  if (proposals[prop].voteCount > winningVoteCount) {\r... */\n      iszero\n      tag_38\n      jumpi\n        /* \"Learn/BallotWithModifier.sol\":2280:2289  proposals */\n      0x2\n        /* \"Learn/BallotWithModifier.sol\":2290:2294  prop */\n      dup3\n        /* \"Learn/BallotWithModifier.sol\":2280:2295  proposals[prop] */\n      0xff\n      and\n      dup2\n      sload\n      dup2\n      lt\n      iszero\n      iszero\n      tag_39\n      jumpi\n      invalid\n    tag_39:\n      swap1\n      0x0\n      mstore\n      keccak256(0x0, 0x20)\n      swap1\n      add\n        /* \"Learn/BallotWithModifier.sol\":2280:2305  proposals[prop].voteCount */\n      0x0\n      add\n      sload\n        /* \"Learn/BallotWithModifier.sol\":2261:2305  winningVoteCount = proposals[prop].voteCount */\n      swap3\n      pop\n        /* \"Learn/BallotWithModifier.sol\":2343:2347  prop */\n      dup2\n        /* \"Learn/BallotWithModifier.sol\":2324:2347  _winningProposal = prop */\n      swap4\n      pop\n        /* \"Learn/BallotWithModifier.sol\":2192:2363  if (proposals[prop].voteCount > winningVoteCount) {\r... */\n    tag_38:\n        /* \"Learn/BallotWithModifier.sol\":2171:2177  prop++ */\n      dup2\n      dup1\n      0x1\n      add\n      swap3\n      pop\n      pop\n        /* \"Learn/BallotWithModifier.sol\":2125:2363  for (uint8 prop = 0; prop < proposals.length; prop++)\r... */\n      jump(tag_33)\n    tag_34:\n        /* \"Learn/BallotWithModifier.sol\":2399:2400  0 */\n      0x0\n        /* \"Learn/BallotWithModifier.sol\":2380:2396  winningVoteCount */\n      dup4\n        /* \"Learn/BallotWithModifier.sol\":2380:2400  winningVoteCount > 0 */\n      gt\n        /* \"Learn/BallotWithModifier.sol\":2372:2401  assert (winningVoteCount > 0) */\n      iszero\n      iszero\n      tag_41\n      jumpi\n      invalid\n    tag_41:\n        /* \"Learn/BallotWithModifier.sol\":1932:2411  function winningProposal() public validStage(Stage.Done) constant returns (uint8 _winningProposal) {\r... */\n      pop\n      pop\n      pop\n      swap1\n      jump\t// out\n        /* \"Learn/BallotWithModifier.sol\":1456:1924  function vote(uint8 toProposal) public validStage(Stage.Vote)  {\r... */\n    tag_14:\n        /* \"Learn/BallotWithModifier.sol\":1576:1596  Voter storage sender */\n      0x0\n        /* \"Learn/BallotWithModifier.sol\":1506:1516  Stage.Vote */\n      0x2\n        /* \"Learn/BallotWithModifier.sol\":566:574  reqStage */\n      dup1\n        /* \"Learn/BallotWithModifier.sol\":557:574  stage == reqStage */\n      0x3\n      dup2\n      gt\n      iszero\n      tag_43\n      jumpi\n      invalid\n    tag_43:\n        /* \"Learn/BallotWithModifier.sol\":557:562  stage */\n      0x0\n      dup1\n      swap1\n      sload\n      swap1\n      0x100\n      exp\n      swap1\n      div\n      0xff\n      and\n        /* \"Learn/BallotWithModifier.sol\":557:574  stage == reqStage */\n      0x3\n      dup2\n      gt\n      iszero\n      tag_44\n      jumpi\n      invalid\n    tag_44:\n      eq\n        /* \"Learn/BallotWithModifier.sol\":549:575  require(stage == reqStage) */\n      iszero\n      iszero\n      tag_45\n      jumpi\n      0x0\n      dup1\n      revert\n    tag_45:\n        /* \"Learn/BallotWithModifier.sol\":1599:1605  voters */\n      0x1\n        /* \"Learn/BallotWithModifier.sol\":1599:1617  voters[msg.sender] */\n      0x0\n        /* \"Learn/BallotWithModifier.sol\":1606:1616  msg.sender */\n      caller\n        /* \"Learn/BallotWithModifier.sol\":1599:1617  voters[msg.sender] */\n      0xffffffffffffffffffffffffffffffffffffffff\n      and\n      0xffffffffffffffffffffffffffffffffffffffff\n      and\n      dup2\n      mstore\n      0x20\n      add\n      swap1\n      dup2\n      mstore\n      0x20\n      add\n      0x0\n      keccak256\n        /* \"Learn/BallotWithModifier.sol\":1576:1617  Voter storage sender = voters[msg.sender] */\n      swap2\n      pop\n        /* \"Learn/BallotWithModifier.sol\":1632:1638  sender */\n      dup2\n        /* \"Learn/BallotWithModifier.sol\":1632:1644  sender.voted */\n      0x1\n      add\n      0x0\n      swap1\n      sload\n      swap1\n      0x100\n      exp\n      swap1\n      div\n      0xff\n      and\n        /* \"Learn/BallotWithModifier.sol\":1632:1678  sender.voted || toProposal >= proposals.length */\n      dup1\n      tag_47\n      jumpi\n      pop\n        /* \"Learn/BallotWithModifier.sol\":1662:1671  proposals */\n      0x2\n        /* \"Learn/BallotWithModifier.sol\":1662:1678  proposals.length */\n      dup1\n      sload\n      swap1\n      pop\n        /* \"Learn/BallotWithModifier.sol\":1648:1658  toProposal */\n      dup4\n        /* \"Learn/BallotWithModifier.sol\":1648:1678  toProposal >= proposals.length */\n      0xff\n      and\n      lt\n      iszero\n        /* \"Learn/BallotWithModifier.sol\":1632:1678  sender.voted || toProposal >= proposals.length */\n    tag_47:\n        /* \"Learn/BallotWithModifier.sol\":1628:1687  if (sender.voted || toProposal >= proposals.length) return; */\n      iszero\n      tag_48\n      jumpi\n        /* \"Learn/BallotWithModifier.sol\":1680:1687  return; */\n      jump(tag_46)\n        /* \"Learn/BallotWithModifier.sol\":1628:1687  if (sender.voted || toProposal >= proposals.length) return; */\n    tag_48:\n        /* \"Learn/BallotWithModifier.sol\":1712:1716  true */\n      0x1\n        /* \"Learn/BallotWithModifier.sol\":1697:1703  sender */\n      dup3\n        /* \"Learn/BallotWithModifier.sol\":1697:1709  sender.voted */\n      0x1\n      add\n      0x0\n        /* \"Learn/BallotWithModifier.sol\":1697:1716  sender.voted = true */\n      0x100\n      exp\n      dup2\n      sload\n      dup2\n      0xff\n      mul\n      not\n      and\n      swap1\n      dup4\n      iszero\n      iszero\n      mul\n      or\n      swap1\n      sstore\n      pop\n        /* \"Learn/BallotWithModifier.sol\":1741:1751  toProposal */\n      dup3\n        /* \"Learn/BallotWithModifier.sol\":1727:1733  sender */\n      dup3\n        /* \"Learn/BallotWithModifier.sol\":1727:1738  sender.vote */\n      0x1\n      add\n      0x1\n        /* \"Learn/BallotWithModifier.sol\":1727:1751  sender.vote = toProposal */\n      0x100\n      exp\n      dup2\n      sload\n      dup2\n      0xff\n      mul\n      not\n      and\n      swap1\n      dup4\n      0xff\n      and\n      mul\n      or\n      swap1\n      sstore\n      pop\n        /* \"Learn/BallotWithModifier.sol\":1800:1806  sender */\n      dup2\n        /* \"Learn/BallotWithModifier.sol\":1800:1813  sender.weight */\n      0x0\n      add\n      sload\n        /* \"Learn/BallotWithModifier.sol\":1765:1774  proposals */\n      0x2\n        /* \"Learn/BallotWithModifier.sol\":1775:1785  toProposal */\n      dup5\n        /* \"Learn/BallotWithModifier.sol\":1765:1786  proposals[toProposal] */\n      0xff\n      and\n      dup2\n      sload\n      dup2\n      lt\n      iszero\n      iszero\n      tag_49\n      jumpi\n      invalid\n    tag_49:\n      swap1\n      0x0\n      mstore\n      keccak256(0x0, 0x20)\n      swap1\n      add\n        /* \"Learn/BallotWithModifier.sol\":1765:1796  proposals[toProposal].voteCount */\n      0x0\n      add\n      0x0\n        /* \"Learn/BallotWithModifier.sol\":1765:1813  proposals[toProposal].voteCount += sender.weight */\n      dup3\n      dup3\n      sload\n      add\n      swap3\n      pop\n      pop\n      dup2\n      swap1\n      sstore\n      pop\n        /* \"Learn/BallotWithModifier.sol\":1846:1856  30 seconds */\n      0x1e\n        /* \"Learn/BallotWithModifier.sol\":1835:1844  startTime */\n      sload(0x3)\n        /* \"Learn/BallotWithModifier.sol\":1835:1856  startTime+ 30 seconds */\n      add\n        /* \"Learn/BallotWithModifier.sol\":1828:1831  now */\n      timestamp\n        /* \"Learn/BallotWithModifier.sol\":1828:1857  now > (startTime+ 30 seconds) */\n      gt\n        /* \"Learn/BallotWithModifier.sol\":1824:1899  if (now > (startTime+ 30 seconds)) {stage = Stage.Done; votingCompleted();} */\n      iszero\n      tag_51\n      jumpi\n        /* \"Learn/BallotWithModifier.sol\":1868:1878  Stage.Done */\n      0x3\n        /* \"Learn/BallotWithModifier.sol\":1860:1865  stage */\n      0x0\n      dup1\n        /* \"Learn/BallotWithModifier.sol\":1860:1878  stage = Stage.Done */\n      0x100\n      exp\n      dup2\n      sload\n      dup2\n      0xff\n      mul\n      not\n      and\n      swap1\n      dup4\n      0x3\n      dup2\n      gt\n      iszero\n      tag_52\n      jumpi\n      invalid\n    tag_52:\n      mul\n      or\n      swap1\n      sstore\n      pop\n        /* \"Learn/BallotWithModifier.sol\":1880:1897  votingCompleted() */\n      0x6ac0c89219f0135e3a87cecdf1851abced71da933a0a00e1eada0ef035382351\n      mload(0x40)\n      mload(0x40)\n      dup1\n      swap2\n      sub\n      swap1\n      log1\n        /* \"Learn/BallotWithModifier.sol\":1824:1899  if (now > (startTime+ 30 seconds)) {stage = Stage.Done; votingCompleted();} */\n    tag_51:\n        /* \"Learn/BallotWithModifier.sol\":584:585  _ */\n    tag_46:\n        /* \"Learn/BallotWithModifier.sol\":1456:1924  function vote(uint8 toProposal) public validStage(Stage.Vote)  {\r... */\n      pop\n      pop\n      pop\n      jump\t// out\n        /* \"Learn/BallotWithModifier.sol\":295:326  Stage public stage = Stage.Init */\n    tag_17:\n      0x0\n      dup1\n      swap1\n      sload\n      swap1\n      0x100\n      exp\n      swap1\n      div\n      0xff\n      and\n      dup2\n      jump\t// out\n\n    auxdata: 0xa165627a7a72305820bce0a02a90ff262be79c72e672a1f1d9305d568428382d1fcb9f4ee0461742220029\n}\n",
				"bytecode": {
					"linkReferences": {},
					"object": "606060405260008060006101000a81548160ff0219169083600381111561002257fe5b0217905550341561003257600080fd5b6040516020806106f18339810160405280805190602001909190505033600060016101000a81548173ffffffffffffffffffffffffffffffffffffffff021916908373ffffffffffffffffffffffffffffffffffffffff1602179055506002600160008060019054906101000a900473ffffffffffffffffffffffffffffffffffffffff1673ffffffffffffffffffffffffffffffffffffffff1673ffffffffffffffffffffffffffffffffffffffff168152602001908152602001600020600001819055508060ff16600281610109919061013a565b5060016000806101000a81548160ff0219169083600381111561012857fe5b0217905550426003819055505061018d565b815481835581811511610161578183600052602060002091820191016101609190610166565b5b505050565b61018a91905b80821115610186576000808201600090555060010161016c565b5090565b90565b6105558061019c6000396000f30060606040526000357c0100000000000000000000000000000000000000000000000000000000900463ffffffff1680634420e4861461005e578063609ff1bd14610097578063b3f98adc146100c6578063c040e6b8146100ec57600080fd5b341561006957600080fd5b610095600480803573ffffffffffffffffffffffffffffffffffffffff16906020019091905050610123565b005b34156100a257600080fd5b6100aa6102e2565b604051808260ff1660ff16815260200191505060405180910390f35b34156100d157600080fd5b6100ea600480803560ff169060200190919050506103a2565b005b34156100f757600080fd5b6100ff610517565b6040518082600381111561010f57fe5b60ff16815260200191505060405180910390f35b600180600381111561013157fe5b6000809054906101000a900460ff16600381111561014b57fe5b14151561015757600080fd5b600060019054906101000a900473ffffffffffffffffffffffffffffffffffffffff1673ffffffffffffffffffffffffffffffffffffffff163373ffffffffffffffffffffffffffffffffffffffff161415806102005750600160008373ffffffffffffffffffffffffffffffffffffffff1673ffffffffffffffffffffffffffffffffffffffff16815260200190815260200160002060010160009054906101000a900460ff165b1561020a576102de565b60018060008473ffffffffffffffffffffffffffffffffffffffff1673ffffffffffffffffffffffffffffffffffffffff168152602001908152602001600020600001819055506000600160008473ffffffffffffffffffffffffffffffffffffffff1673ffffffffffffffffffffffffffffffffffffffff16815260200190815260200160002060010160006101000a81548160ff021916908315150217905550601e600354014211156102dd5760026000806101000a81548160ff021916908360038111156102d757fe5b02179055505b5b5050565b600080600060038060038111156102f557fe5b6000809054906101000a900460ff16600381111561030f57fe5b14151561031b57600080fd5b60009250600091505b6002805490508260ff161015610390578260028360ff1681548110151561034757fe5b90600052602060002090016000015411156103835760028260ff1681548110151561036e57fe5b90600052602060002090016000015492508193505b8180600101925050610324565b60008311151561039c57fe5b50505090565b600060028060038111156103b257fe5b6000809054906101000a900460ff1660038111156103cc57fe5b1415156103d857600080fd5b600160003373ffffffffffffffffffffffffffffffffffffffff1673ffffffffffffffffffffffffffffffffffffffff16815260200190815260200160002091508160010160009054906101000a900460ff168061043e57506002805490508360ff1610155b1561044857610512565b60018260010160006101000a81548160ff021916908315150217905550828260010160016101000a81548160ff021916908360ff160217905550816000015460028460ff1681548110151561049957fe5b906000526020600020900160000160008282540192505081905550601e600354014211156105115760036000806101000a81548160ff021916908360038111156104df57fe5b02179055507f6ac0c89219f0135e3a87cecdf1851abced71da933a0a00e1eada0ef03538235160405160405180910390a15b5b505050565b6000809054906101000a900460ff16815600a165627a7a72305820bce0a02a90ff262be79c72e672a1f1d9305d568428382d1fcb9f4ee0461742220029",
					"opcodes": "PUSH1 0x60 PUSH1 0x40 MSTORE PUSH1 0x0 DUP1 PUSH1 0x0 PUSH2 0x100 EXP DUP2 SLOAD DUP2 PUSH1 0xFF MUL NOT AND SWAP1 DUP4 PUSH1 0x3 DUP2 GT ISZERO PUSH2 0x22 JUMPI INVALID JUMPDEST MUL OR SWAP1 SSTORE POP CALLVALUE ISZERO PUSH2 0x32 JUMPI PUSH1 0x0 DUP1 REVERT JUMPDEST PUSH1 0x40 MLOAD PUSH1 0x20 DUP1 PUSH2 0x6F1 DUP4 CODECOPY DUP2 ADD PUSH1 0x40 MSTORE DUP1 DUP1 MLOAD SWAP1 PUSH1 0x20 ADD SWAP1 SWAP2 SWAP1 POP POP CALLER PUSH1 0x0 PUSH1 0x1 PUSH2 0x100 EXP DUP2 SLOAD DUP2 PUSH20 0xFFFFFFFFFFFFFFFFFFFFFFFFFFFFFFFFFFFFFFFF MUL NOT AND SWAP1 DUP4 PUSH20 0xFFFFFFFFFFFFFFFFFFFFFFFFFFFFFFFFFFFFFFFF AND MUL OR SWAP1 SSTORE POP PUSH1 0x2 PUSH1 0x1 PUSH1 0x0 DUP1 PUSH1 0x1 SWAP1 SLOAD SWAP1 PUSH2 0x100 EXP SWAP1 DIV PUSH20 0xFFFFFFFFFFFFFFFFFFFFFFFFFFFFFFFFFFFFFFFF AND PUSH20 0xFFFFFFFFFFFFFFFFFFFFFFFFFFFFFFFFFFFFFFFF AND PUSH20 0xFFFFFFFFFFFFFFFFFFFFFFFFFFFFFFFFFFFFFFFF AND DUP2 MSTORE PUSH1 0x20 ADD SWAP1 DUP2 MSTORE PUSH1 0x20 ADD PUSH1 0x0 KECCAK256 PUSH1 0x0 ADD DUP2 SWAP1 SSTORE POP DUP1 PUSH1 0xFF AND PUSH1 0x2 DUP2 PUSH2 0x109 SWAP2 SWAP1 PUSH2 0x13A JUMP JUMPDEST POP PUSH1 0x1 PUSH1 0x0 DUP1 PUSH2 0x100 EXP DUP2 SLOAD DUP2 PUSH1 0xFF MUL NOT AND SWAP1 DUP4 PUSH1 0x3 DUP2 GT ISZERO PUSH2 0x128 JUMPI INVALID JUMPDEST MUL OR SWAP1 SSTORE POP TIMESTAMP PUSH1 0x3 DUP2 SWAP1 SSTORE POP POP PUSH2 0x18D JUMP JUMPDEST DUP2 SLOAD DUP2 DUP4 SSTORE DUP2 DUP2 ISZERO GT PUSH2 0x161 JUMPI DUP2 DUP4 PUSH1 0x0 MSTORE PUSH1 0x20 PUSH1 0x0 KECCAK256 SWAP2 DUP3 ADD SWAP2 ADD PUSH2 0x160 SWAP2 SWAP1 PUSH2 0x166 JUMP JUMPDEST JUMPDEST POP POP POP JUMP JUMPDEST PUSH2 0x18A SWAP2 SWAP1 JUMPDEST DUP1 DUP3 GT ISZERO PUSH2 0x186 JUMPI PUSH1 0x0 DUP1 DUP3 ADD PUSH1 0x0 SWAP1 SSTORE POP PUSH1 0x1 ADD PUSH2 0x16C JUMP JUMPDEST POP SWAP1 JUMP JUMPDEST SWAP1 JUMP JUMPDEST PUSH2 0x555 DUP1 PUSH2 0x19C PUSH1 0x0 CODECOPY PUSH1 0x0 RETURN STOP PUSH1 0x60 PUSH1 0x40 MSTORE PUSH1 0x0 CALLDATALOAD PUSH29 0x100000000000000000000000000000000000000000000000000000000 SWAP1 DIV PUSH4 0xFFFFFFFF AND DUP1 PUSH4 0x4420E486 EQ PUSH2 0x5E JUMPI DUP1 PUSH4 0x609FF1BD EQ PUSH2 0x97 JUMPI DUP1 PUSH4 0xB3F98ADC EQ PUSH2 0xC6 JUMPI DUP1 PUSH4 0xC040E6B8 EQ PUSH2 0xEC JUMPI PUSH1 0x0 DUP1 REVERT JUMPDEST CALLVALUE ISZERO PUSH2 0x69 JUMPI PUSH1 0x0 DUP1 REVERT JUMPDEST PUSH2 0x95 PUSH1 0x4 DUP1 DUP1 CALLDATALOAD PUSH20 0xFFFFFFFFFFFFFFFFFFFFFFFFFFFFFFFFFFFFFFFF AND SWAP1 PUSH1 0x20 ADD SWAP1 SWAP2 SWAP1 POP POP PUSH2 0x123 JUMP JUMPDEST STOP JUMPDEST CALLVALUE ISZERO PUSH2 0xA2 JUMPI PUSH1 0x0 DUP1 REVERT JUMPDEST PUSH2 0xAA PUSH2 0x2E2 JUMP JUMPDEST PUSH1 0x40 MLOAD DUP1 DUP3 PUSH1 0xFF AND PUSH1 0xFF AND DUP2 MSTORE PUSH1 0x20 ADD SWAP2 POP POP PUSH1 0x40 MLOAD DUP1 SWAP2 SUB SWAP1 RETURN JUMPDEST CALLVALUE ISZERO PUSH2 0xD1 JUMPI PUSH1 0x0 DUP1 REVERT JUMPDEST PUSH2 0xEA PUSH1 0x4 DUP1 DUP1 CALLDATALOAD PUSH1 0xFF AND SWAP1 PUSH1 0x20 ADD SWAP1 SWAP2 SWAP1 POP POP PUSH2 0x3A2 JUMP JUMPDEST STOP JUMPDEST CALLVALUE ISZERO PUSH2 0xF7 JUMPI PUSH1 0x0 DUP1 REVERT JUMPDEST PUSH2 0xFF PUSH2 0x517 JUMP JUMPDEST PUSH1 0x40 MLOAD DUP1 DUP3 PUSH1 0x3 DUP2 GT ISZERO PUSH2 0x10F JUMPI INVALID JUMPDEST PUSH1 0xFF AND DUP2 MSTORE PUSH1 0x20 ADD SWAP2 POP POP PUSH1 0x40 MLOAD DUP1 SWAP2 SUB SWAP1 RETURN JUMPDEST PUSH1 0x1 DUP1 PUSH1 0x3 DUP2 GT ISZERO PUSH2 0x131 JUMPI INVALID JUMPDEST PUSH1 0x0 DUP1 SWAP1 SLOAD SWAP1 PUSH2 0x100 EXP SWAP1 DIV PUSH1 0xFF AND PUSH1 0x3 DUP2 GT ISZERO PUSH2 0x14B JUMPI INVALID JUMPDEST EQ ISZERO ISZERO PUSH2 0x157 JUMPI PUSH1 0x0 DUP1 REVERT JUMPDEST PUSH1 0x0 PUSH1 0x1 SWAP1 SLOAD SWAP1 PUSH2 0x100 EXP SWAP1 DIV PUSH20 0xFFFFFFFFFFFFFFFFFFFFFFFFFFFFFFFFFFFFFFFF AND PUSH20 0xFFFFFFFFFFFFFFFFFFFFFFFFFFFFFFFFFFFFFFFF AND CALLER PUSH20 0xFFFFFFFFFFFFFFFFFFFFFFFFFFFFFFFFFFFFFFFF AND EQ ISZERO DUP1 PUSH2 0x200 JUMPI POP PUSH1 0x1 PUSH1 0x0 DUP4 PUSH20 0xFFFFFFFFFFFFFFFFFFFFFFFFFFFFFFFFFFFFFFFF AND PUSH20 0xFFFFFFFFFFFFFFFFFFFFFFFFFFFFFFFFFFFFFFFF AND DUP2 MSTORE PUSH1 0x20 ADD SWAP1 DUP2 MSTORE PUSH1 0x20 ADD PUSH1 0x0 KECCAK256 PUSH1 0x1 ADD PUSH1 0x0 SWAP1 SLOAD SWAP1 PUSH2 0x100 EXP SWAP1 DIV PUSH1 0xFF AND JUMPDEST ISZERO PUSH2 0x20A JUMPI PUSH2 0x2DE JUMP JUMPDEST PUSH1 0x1 DUP1 PUSH1 0x0 DUP5 PUSH20 0xFFFFFFFFFFFFFFFFFFFFFFFFFFFFFFFFFFFFFFFF AND PUSH20 0xFFFFFFFFFFFFFFFFFFFFFFFFFFFFFFFFFFFFFFFF AND DUP2 MSTORE PUSH1 0x20 ADD SWAP1 DUP2 MSTORE PUSH1 0x20 ADD PUSH1 0x0 KECCAK256 PUSH1 0x0 ADD DUP2 SWAP1 SSTORE POP PUSH1 0x0 PUSH1 0x1 PUSH1 0x0 DUP5 PUSH20 0xFFFFFFFFFFFFFFFFFFFFFFFFFFFFFFFFFFFFFFFF AND PUSH20 0xFFFFFFFFFFFFFFFFFFFFFFFFFFFFFFFFFFFFFFFF AND DUP2 MSTORE PUSH1 0x20 ADD SWAP1 DUP2 MSTORE PUSH1 0x20 ADD PUSH1 0x0 KECCAK256 PUSH1 0x1 ADD PUSH1 0x0 PUSH2 0x100 EXP DUP2 SLOAD DUP2 PUSH1 0xFF MUL NOT AND SWAP1 DUP4 ISZERO ISZERO MUL OR SWAP1 SSTORE POP PUSH1 0x1E PUSH1 0x3 SLOAD ADD TIMESTAMP GT ISZERO PUSH2 0x2DD JUMPI PUSH1 0x2 PUSH1 0x0 DUP1 PUSH2 0x100 EXP DUP2 SLOAD DUP2 PUSH1 0xFF MUL NOT AND SWAP1 DUP4 PUSH1 0x3 DUP2 GT ISZERO PUSH2 0x2D7 JUMPI INVALID JUMPDEST MUL OR SWAP1 SSTORE POP JUMPDEST JUMPDEST POP POP JUMP JUMPDEST PUSH1 0x0 DUP1 PUSH1 0x0 PUSH1 0x3 DUP1 PUSH1 0x3 DUP2 GT ISZERO PUSH2 0x2F5 JUMPI INVALID JUMPDEST PUSH1 0x0 DUP1 SWAP1 SLOAD SWAP1 PUSH2 0x100 EXP SWAP1 DIV PUSH1 0xFF AND PUSH1 0x3 DUP2 GT ISZERO PUSH2 0x30F JUMPI INVALID JUMPDEST EQ ISZERO ISZERO PUSH2 0x31B JUMPI PUSH1 0x0 DUP1 REVERT JUMPDEST PUSH1 0x0 SWAP3 POP PUSH1 0x0 SWAP2 POP JUMPDEST PUSH1 0x2 DUP1 SLOAD SWAP1 POP DUP3 PUSH1 0xFF AND LT ISZERO PUSH2 0x390 JUMPI DUP3 PUSH1 0x2 DUP4 PUSH1 0xFF AND DUP2 SLOAD DUP2 LT ISZERO ISZERO PUSH2 0x347 JUMPI INVALID JUMPDEST SWAP1 PUSH1 0x0 MSTORE PUSH1 0x20 PUSH1 0x0 KECCAK256 SWAP1 ADD PUSH1 0x0 ADD SLOAD GT ISZERO PUSH2 0x383 JUMPI PUSH1 0x2 DUP3 PUSH1 0xFF AND DUP2 SLOAD DUP2 LT ISZERO ISZERO PUSH2 0x36E JUMPI INVALID JUMPDEST SWAP1 PUSH1 0x0 MSTORE PUSH1 0x20 PUSH1 0x0 KECCAK256 SWAP1 ADD PUSH1 0x0 ADD SLOAD SWAP3 POP DUP2 SWAP4 POP JUMPDEST DUP2 DUP1 PUSH1 0x1 ADD SWAP3 POP POP PUSH2 0x324 JUMP JUMPDEST PUSH1 0x0 DUP4 GT ISZERO ISZERO PUSH2 0x39C JUMPI INVALID JUMPDEST POP POP POP SWAP1 JUMP JUMPDEST PUSH1 0x0 PUSH1 0x2 DUP1 PUSH1 0x3 DUP2 GT ISZERO PUSH2 0x3B2 JUMPI INVALID JUMPDEST PUSH1 0x0 DUP1 SWAP1 SLOAD SWAP1 PUSH2 0x100 EXP SWAP1 DIV PUSH1 0xFF AND PUSH1 0x3 DUP2 GT ISZERO PUSH2 0x3CC JUMPI INVALID JUMPDEST EQ ISZERO ISZERO PUSH2 0x3D8 JUMPI PUSH1 0x0 DUP1 REVERT JUMPDEST PUSH1 0x1 PUSH1 0x0 CALLER PUSH20 0xFFFFFFFFFFFFFFFFFFFFFFFFFFFFFFFFFFFFFFFF AND PUSH20 0xFFFFFFFFFFFFFFFFFFFFFFFFFFFFFFFFFFFFFFFF AND DUP2 MSTORE PUSH1 0x20 ADD SWAP1 DUP2 MSTORE PUSH1 0x20 ADD PUSH1 0x0 KECCAK256 SWAP2 POP DUP2 PUSH1 0x1 ADD PUSH1 0x0 SWAP1 SLOAD SWAP1 PUSH2 0x100 EXP SWAP1 DIV PUSH1 0xFF AND DUP1 PUSH2 0x43E JUMPI POP PUSH1 0x2 DUP1 SLOAD SWAP1 POP DUP4 PUSH1 0xFF AND LT ISZERO JUMPDEST ISZERO PUSH2 0x448 JUMPI PUSH2 0x512 JUMP JUMPDEST PUSH1 0x1 DUP3 PUSH1 0x1 ADD PUSH1 0x0 PUSH2 0x100 EXP DUP2 SLOAD DUP2 PUSH1 0xFF MUL NOT AND SWAP1 DUP4 ISZERO ISZERO MUL OR SWAP1 SSTORE POP DUP3 DUP3 PUSH1 0x1 ADD PUSH1 0x1 PUSH2 0x100 EXP DUP2 SLOAD DUP2 PUSH1 0xFF MUL NOT AND SWAP1 DUP4 PUSH1 0xFF AND MUL OR SWAP1 SSTORE POP DUP2 PUSH1 0x0 ADD SLOAD PUSH1 0x2 DUP5 PUSH1 0xFF AND DUP2 SLOAD DUP2 LT ISZERO ISZERO PUSH2 0x499 JUMPI INVALID JUMPDEST SWAP1 PUSH1 0x0 MSTORE PUSH1 0x20 PUSH1 0x0 KECCAK256 SWAP1 ADD PUSH1 0x0 ADD PUSH1 0x0 DUP3 DUP3 SLOAD ADD SWAP3 POP POP DUP2 SWAP1 SSTORE POP PUSH1 0x1E PUSH1 0x3 SLOAD ADD TIMESTAMP GT ISZERO PUSH2 0x511 JUMPI PUSH1 0x3 PUSH1 0x0 DUP1 PUSH2 0x100 EXP DUP2 SLOAD DUP2 PUSH1 0xFF MUL NOT AND SWAP1 DUP4 PUSH1 0x3 DUP2 GT ISZERO PUSH2 0x4DF JUMPI INVALID JUMPDEST MUL OR SWAP1 SSTORE POP PUSH32 0x6AC0C89219F0135E3A87CECDF1851ABCED71DA933A0A00E1EADA0EF035382351 PUSH1 0x40 MLOAD PUSH1 0x40 MLOAD DUP1 SWAP2 SUB SWAP1 LOG1 JUMPDEST JUMPDEST POP POP POP JUMP JUMPDEST PUSH1 0x0 DUP1 SWAP1 SLOAD SWAP1 PUSH2 0x100 EXP SWAP1 DIV PUSH1 0xFF AND DUP2 JUMP STOP LOG1 PUSH6 0x627A7A723058 KECCAK256 0xbc 0xe0 LOG0 0x2a SWAP1 SELFDESTRUCT 0x26 0x2b 0xe7 SWAP13 PUSH19 0xE672A1F1D9305D568428382D1FCB9F4EE04617 TIMESTAMP 0x22 STOP 0x29 "
				},
				"gasEstimates": {
					"creation": {
						"codeDepositCost": "273000",
						"executionCost": "infinite",
						"totalCost": "infinite"
					},
					"external": {
						"register(address)": "62143",
						"stage()": "499",
						"vote(uint8)": "83756",
						"winningProposal()": "infinite"
					}
				},
				"methodIdentifiers": {
					"register(address)": "4420e486",
					"stage()": "c040e6b8",
					"vote(uint8)": "b3f98adc",
					"winningProposal()": "609ff1bd"
				}
			},
			"userdoc": {
				"methods": {
					"register(address)": {
						"notice": "Give $(toVoter) the right to vote on this ballot.\r May only be called by $(chairperson).\r"
					},
					"vote(uint8)": {
						"notice": "Give a single vote to proposal $(toProposal).\r"
					}
				}
			}
		}
	}
}