{
	"": {
		"Ballot": {
			"abi": [
				{
					"constant": false,
					"inputs": [
						{
							"name": "toVoter",
							"type": "address"
						}
					],
					"name": "register",
					"outputs": [],
					"payable": false,
					"type": "function",
					"stateMutability": "nonpayable"
				},
				{
					"constant": true,
					"inputs": [],
					"name": "winningProposal",
					"outputs": [
						{
							"name": "_winningProposal",
							"type": "uint8"
						}
					],
					"payable": false,
					"type": "function",
					"stateMutability": "view"
				},
				{
					"constant": false,
					"inputs": [
						{
							"name": "toProposal",
							"type": "uint8"
						}
					],
					"name": "vote",
					"outputs": [],
					"payable": false,
					"type": "function",
					"stateMutability": "nonpayable"
				},
				{
					"constant": true,
					"inputs": [],
					"name": "stage",
					"outputs": [
						{
							"name": "",
							"type": "uint8"
						}
					],
					"payable": false,
					"type": "function",
					"stateMutability": "view"
				},
				{
					"inputs": [
						{
							"name": "_numProposals",
							"type": "uint8"
						}
					],
					"type": "constructor",
					"payable": true,
					"stateMutability": "payable"
				}
			],
			"evm": {
				"bytecode": {
					"object": "60606040526000600060006101000a81548160ff0219169083021790555060405160208061059d833981016040528080519060200190919050505b33600060016101000a81548173ffffffffffffffffffffffffffffffffffffffff02191690830217905550600260016000506000600060019054906101000a900473ffffffffffffffffffffffffffffffffffffffff1673ffffffffffffffffffffffffffffffffffffffff168152602001908152602001600020600050600001600050819055508060ff166002600050818154818355818115116101155781836000526020600020918201910161011491906100f2565b808211156101105760006000820160005060009055506001016100f2565b5090565b5b505050506001600060006101000a81548160ff02191690830217905550426003600050819055505b506104518061014c6000396000f360606040526000357c0100000000000000000000000000000000000000000000000000000000900480634420e4861461005d578063609ff1bd1461007a578063b3f98adc146100a5578063c040e6b8146100c257610058565b610002565b346100025761007860048080359060200190919050506100ea565b005b346100025761008c6004805050610267565b604051808260ff16815260200191505060405180910390f35b34610002576100c0600480803590602001909190505061031c565b005b34610002576100d4600480505061043e565b6040518082815260200191505060405180910390f35b6001600060009054906101000a900460ff1614151561010857610264565b600060019054906101000a900473ffffffffffffffffffffffffffffffffffffffff1673ffffffffffffffffffffffffffffffffffffffff163373ffffffffffffffffffffffffffffffffffffffff161415806101a15750600160005060008273ffffffffffffffffffffffffffffffffffffffff16815260200190815260200160002060005060010160009054906101000a900460ff165b156101ab57610264565b6001600160005060008373ffffffffffffffffffffffffffffffffffffffff168152602001908152602001600020600050600001600050819055506000600160005060008373ffffffffffffffffffffffffffffffffffffffff16815260200190815260200160002060005060010160006101000a81548160ff02191690830217905550600a60036000505401421115610263576002600060006101000a81548160ff02191690830217905550426003600050819055505b5b50565b6000600060006003600060009054906101000a900460ff1614151561028b57610317565b60009150600090505b6002600050805490508160ff161015610316578160026000508260ff16815481101561000257906000526020600020900160005b506000016000505411156103085760026000508160ff16815481101561000257906000526020600020900160005b50600001600050549150815080925082505b5b8080600101915050610294565b5b505090565b60006002600060009054906101000a900460ff1614151561033c5761043a565b600160005060003373ffffffffffffffffffffffffffffffffffffffff16815260200190815260200160002060005090508060010160009054906101000a900460ff168061039557506002600050805490508260ff1610155b1561039f5761043a565b60018160010160006101000a81548160ff02191690830217905550818160010160016101000a81548160ff02191690830217905550806000016000505460026000508360ff16815481101561000257906000526020600020900160005b50600001600082828250540192505081905550600a60036000505401421115610439576003600060006101000a81548160ff021916908302179055505b5b5050565b600060009054906101000a900460ff168156",
					"opcodes": "PUSH1 0x60 PUSH1 0x40 MSTORE PUSH1 0x0 PUSH1 0x0 PUSH1 0x0 PUSH2 0x100 EXP DUP2 SLOAD DUP2 PUSH1 0xFF MUL NOT AND SWAP1 DUP4 MUL OR SWAP1 SSTORE POP PUSH1 0x40 MLOAD PUSH1 0x20 DUP1 PUSH2 0x59D DUP4 CODECOPY DUP2 ADD PUSH1 0x40 MSTORE DUP1 DUP1 MLOAD SWAP1 PUSH1 0x20 ADD SWAP1 SWAP2 SWAP1 POP POP JUMPDEST CALLER PUSH1 0x0 PUSH1 0x1 PUSH2 0x100 EXP DUP2 SLOAD DUP2 PUSH20 0xFFFFFFFFFFFFFFFFFFFFFFFFFFFFFFFFFFFFFFFF MUL NOT AND SWAP1 DUP4 MUL OR SWAP1 SSTORE POP PUSH1 0x2 PUSH1 0x1 PUSH1 0x0 POP PUSH1 0x0 PUSH1 0x0 PUSH1 0x1 SWAP1 SLOAD SWAP1 PUSH2 0x100 EXP SWAP1 DIV PUSH20 0xFFFFFFFFFFFFFFFFFFFFFFFFFFFFFFFFFFFFFFFF AND PUSH20 0xFFFFFFFFFFFFFFFFFFFFFFFFFFFFFFFFFFFFFFFF AND DUP2 MSTORE PUSH1 0x20 ADD SWAP1 DUP2 MSTORE PUSH1 0x20 ADD PUSH1 0x0 SHA3 PUSH1 0x0 POP PUSH1 0x0 ADD PUSH1 0x0 POP DUP2 SWAP1 SSTORE POP DUP1 PUSH1 0xFF AND PUSH1 0x2 PUSH1 0x0 POP DUP2 DUP2 SLOAD DUP2 DUP4 SSTORE DUP2 DUP2 ISZERO GT PUSH2 0x115 JUMPI DUP2 DUP4 PUSH1 0x0 MSTORE PUSH1 0x20 PUSH1 0x0 SHA3 SWAP2 DUP3 ADD SWAP2 ADD PUSH2 0x114 SWAP2 SWAP1 PUSH2 0xF2 JUMP JUMPDEST DUP1 DUP3 GT ISZERO PUSH2 0x110 JUMPI PUSH1 0x0 PUSH1 0x0 DUP3 ADD PUSH1 0x0 POP PUSH1 0x0 SWAP1 SSTORE POP PUSH1 0x1 ADD PUSH2 0xF2 JUMP JUMPDEST POP SWAP1 JUMP JUMPDEST JUMPDEST POP POP POP POP PUSH1 0x1 PUSH1 0x0 PUSH1 0x0 PUSH2 0x100 EXP DUP2 SLOAD DUP2 PUSH1 0xFF MUL NOT AND SWAP1 DUP4 MUL OR SWAP1 SSTORE POP TIMESTAMP PUSH1 0x3 PUSH1 0x0 POP DUP2 SWAP1 SSTORE POP JUMPDEST POP PUSH2 0x451 DUP1 PUSH2 0x14C PUSH1 0x0 CODECOPY PUSH1 0x0 RETURN PUSH1 0x60 PUSH1 0x40 MSTORE PUSH1 0x0 CALLDATALOAD PUSH29 0x100000000000000000000000000000000000000000000000000000000 SWAP1 DIV DUP1 PUSH4 0x4420E486 EQ PUSH2 0x5D JUMPI DUP1 PUSH4 0x609FF1BD EQ PUSH2 0x7A JUMPI DUP1 PUSH4 0xB3F98ADC EQ PUSH2 0xA5 JUMPI DUP1 PUSH4 0xC040E6B8 EQ PUSH2 0xC2 JUMPI PUSH2 0x58 JUMP JUMPDEST PUSH2 0x2 JUMP JUMPDEST CALLVALUE PUSH2 0x2 JUMPI PUSH2 0x78 PUSH1 0x4 DUP1 DUP1 CALLDATALOAD SWAP1 PUSH1 0x20 ADD SWAP1 SWAP2 SWAP1 POP POP PUSH2 0xEA JUMP JUMPDEST STOP JUMPDEST CALLVALUE PUSH2 0x2 JUMPI PUSH2 0x8C PUSH1 0x4 DUP1 POP POP PUSH2 0x267 JUMP JUMPDEST PUSH1 0x40 MLOAD DUP1 DUP3 PUSH1 0xFF AND DUP2 MSTORE PUSH1 0x20 ADD SWAP2 POP POP PUSH1 0x40 MLOAD DUP1 SWAP2 SUB SWAP1 RETURN JUMPDEST CALLVALUE PUSH2 0x2 JUMPI PUSH2 0xC0 PUSH1 0x4 DUP1 DUP1 CALLDATALOAD SWAP1 PUSH1 0x20 ADD SWAP1 SWAP2 SWAP1 POP POP PUSH2 0x31C JUMP JUMPDEST STOP JUMPDEST CALLVALUE PUSH2 0x2 JUMPI PUSH2 0xD4 PUSH1 0x4 DUP1 POP POP PUSH2 0x43E JUMP JUMPDEST PUSH1 0x40 MLOAD DUP1 DUP3 DUP2 MSTORE PUSH1 0x20 ADD SWAP2 POP POP PUSH1 0x40 MLOAD DUP1 SWAP2 SUB SWAP1 RETURN JUMPDEST PUSH1 0x1 PUSH1 0x0 PUSH1 0x0 SWAP1 SLOAD SWAP1 PUSH2 0x100 EXP SWAP1 DIV PUSH1 0xFF AND EQ ISZERO ISZERO PUSH2 0x108 JUMPI PUSH2 0x264 JUMP JUMPDEST PUSH1 0x0 PUSH1 0x1 SWAP1 SLOAD SWAP1 PUSH2 0x100 EXP SWAP1 DIV PUSH20 0xFFFFFFFFFFFFFFFFFFFFFFFFFFFFFFFFFFFFFFFF AND PUSH20 0xFFFFFFFFFFFFFFFFFFFFFFFFFFFFFFFFFFFFFFFF AND CALLER PUSH20 0xFFFFFFFFFFFFFFFFFFFFFFFFFFFFFFFFFFFFFFFF AND EQ ISZERO DUP1 PUSH2 0x1A1 JUMPI POP PUSH1 0x1 PUSH1 0x0 POP PUSH1 0x0 DUP3 PUSH20 0xFFFFFFFFFFFFFFFFFFFFFFFFFFFFFFFFFFFFFFFF AND DUP2 MSTORE PUSH1 0x20 ADD SWAP1 DUP2 MSTORE PUSH1 0x20 ADD PUSH1 0x0 SHA3 PUSH1 0x0 POP PUSH1 0x1 ADD PUSH1 0x0 SWAP1 SLOAD SWAP1 PUSH2 0x100 EXP SWAP1 DIV PUSH1 0xFF AND JUMPDEST ISZERO PUSH2 0x1AB JUMPI PUSH2 0x264 JUMP JUMPDEST PUSH1 0x1 PUSH1 0x1 PUSH1 0x0 POP PUSH1 0x0 DUP4 PUSH20 0xFFFFFFFFFFFFFFFFFFFFFFFFFFFFFFFFFFFFFFFF AND DUP2 MSTORE PUSH1 0x20 ADD SWAP1 DUP2 MSTORE PUSH1 0x20 ADD PUSH1 0x0 SHA3 PUSH1 0x0 POP PUSH1 0x0 ADD PUSH1 0x0 POP DUP2 SWAP1 SSTORE POP PUSH1 0x0 PUSH1 0x1 PUSH1 0x0 POP PUSH1 0x0 DUP4 PUSH20 0xFFFFFFFFFFFFFFFFFFFFFFFFFFFFFFFFFFFFFFFF AND DUP2 MSTORE PUSH1 0x20 ADD SWAP1 DUP2 MSTORE PUSH1 0x20 ADD PUSH1 0x0 SHA3 PUSH1 0x0 POP PUSH1 0x1 ADD PUSH1 0x0 PUSH2 0x100 EXP DUP2 SLOAD DUP2 PUSH1 0xFF MUL NOT AND SWAP1 DUP4 MUL OR SWAP1 SSTORE POP PUSH1 0xA PUSH1 0x3 PUSH1 0x0 POP SLOAD ADD TIMESTAMP GT ISZERO PUSH2 0x263 JUMPI PUSH1 0x2 PUSH1 0x0 PUSH1 0x0 PUSH2 0x100 EXP DUP2 SLOAD DUP2 PUSH1 0xFF MUL NOT AND SWAP1 DUP4 MUL OR SWAP1 SSTORE POP TIMESTAMP PUSH1 0x3 PUSH1 0x0 POP DUP2 SWAP1 SSTORE POP JUMPDEST JUMPDEST POP JUMP JUMPDEST PUSH1 0x0 PUSH1 0x0 PUSH1 0x0 PUSH1 0x3 PUSH1 0x0 PUSH1 0x0 SWAP1 SLOAD SWAP1 PUSH2 0x100 EXP SWAP1 DIV PUSH1 0xFF AND EQ ISZERO ISZERO PUSH2 0x28B JUMPI PUSH2 0x317 JUMP JUMPDEST PUSH1 0x0 SWAP2 POP PUSH1 0x0 SWAP1 POP JUMPDEST PUSH1 0x2 PUSH1 0x0 POP DUP1 SLOAD SWAP1 POP DUP2 PUSH1 0xFF AND LT ISZERO PUSH2 0x316 JUMPI DUP2 PUSH1 0x2 PUSH1 0x0 POP DUP3 PUSH1 0xFF AND DUP2 SLOAD DUP2 LT ISZERO PUSH2 0x2 JUMPI SWAP1 PUSH1 0x0 MSTORE PUSH1 0x20 PUSH1 0x0 SHA3 SWAP1 ADD PUSH1 0x0 JUMPDEST POP PUSH1 0x0 ADD PUSH1 0x0 POP SLOAD GT ISZERO PUSH2 0x308 JUMPI PUSH1 0x2 PUSH1 0x0 POP DUP2 PUSH1 0xFF AND DUP2 SLOAD DUP2 LT ISZERO PUSH2 0x2 JUMPI SWAP1 PUSH1 0x0 MSTORE PUSH1 0x20 PUSH1 0x0 SHA3 SWAP1 ADD PUSH1 0x0 JUMPDEST POP PUSH1 0x0 ADD PUSH1 0x0 POP SLOAD SWAP2 POP DUP2 POP DUP1 SWAP3 POP DUP3 POP JUMPDEST JUMPDEST DUP1 DUP1 PUSH1 0x1 ADD SWAP2 POP POP PUSH2 0x294 JUMP JUMPDEST JUMPDEST POP POP SWAP1 JUMP JUMPDEST PUSH1 0x0 PUSH1 0x2 PUSH1 0x0 PUSH1 0x0 SWAP1 SLOAD SWAP1 PUSH2 0x100 EXP SWAP1 DIV PUSH1 0xFF AND EQ ISZERO ISZERO PUSH2 0x33C JUMPI PUSH2 0x43A JUMP JUMPDEST PUSH1 0x1 PUSH1 0x0 POP PUSH1 0x0 CALLER PUSH20 0xFFFFFFFFFFFFFFFFFFFFFFFFFFFFFFFFFFFFFFFF AND DUP2 MSTORE PUSH1 0x20 ADD SWAP1 DUP2 MSTORE PUSH1 0x20 ADD PUSH1 0x0 SHA3 PUSH1 0x0 POP SWAP1 POP DUP1 PUSH1 0x1 ADD PUSH1 0x0 SWAP1 SLOAD SWAP1 PUSH2 0x100 EXP SWAP1 DIV PUSH1 0xFF AND DUP1 PUSH2 0x395 JUMPI POP PUSH1 0x2 PUSH1 0x0 POP DUP1 SLOAD SWAP1 POP DUP3 PUSH1 0xFF AND LT ISZERO JUMPDEST ISZERO PUSH2 0x39F JUMPI PUSH2 0x43A JUMP JUMPDEST PUSH1 0x1 DUP2 PUSH1 0x1 ADD PUSH1 0x0 PUSH2 0x100 EXP DUP2 SLOAD DUP2 PUSH1 0xFF MUL NOT AND SWAP1 DUP4 MUL OR SWAP1 SSTORE POP DUP2 DUP2 PUSH1 0x1 ADD PUSH1 0x1 PUSH2 0x100 EXP DUP2 SLOAD DUP2 PUSH1 0xFF MUL NOT AND SWAP1 DUP4 MUL OR SWAP1 SSTORE POP DUP1 PUSH1 0x0 ADD PUSH1 0x0 POP SLOAD PUSH1 0x2 PUSH1 0x0 POP DUP4 PUSH1 0xFF AND DUP2 SLOAD DUP2 LT ISZERO PUSH2 0x2 JUMPI SWAP1 PUSH1 0x0 MSTORE PUSH1 0x20 PUSH1 0x0 SHA3 SWAP1 ADD PUSH1 0x0 JUMPDEST POP PUSH1 0x0 ADD PUSH1 0x0 DUP3 DUP3 DUP3 POP SLOAD ADD SWAP3 POP POP DUP2 SWAP1 SSTORE POP PUSH1 0xA PUSH1 0x3 PUSH1 0x0 POP SLOAD ADD TIMESTAMP GT ISZERO PUSH2 0x439 JUMPI PUSH1 0x3 PUSH1 0x0 PUSH1 0x0 PUSH2 0x100 EXP DUP2 SLOAD DUP2 PUSH1 0xFF MUL NOT AND SWAP1 DUP4 MUL OR SWAP1 SSTORE POP JUMPDEST JUMPDEST POP POP JUMP JUMPDEST PUSH1 0x0 PUSH1 0x0 SWAP1 SLOAD SWAP1 PUSH2 0x100 EXP SWAP1 DIV PUSH1 0xFF AND DUP2 JUMP ",
					"linkReferences": {}
				},
				"methodIdentifiers": {
					"register(address)": "4420e486",
					"stage()": "c040e6b8",
					"vote(uint8)": "b3f98adc",
					"winningProposal()": "609ff1bd"
				},
				"gasEstimates": {
					"creation": {
						"codeDepositCost": "221000",
						"executionCost": "infinite"
					},
					"internal": {},
					"external": {
						"register(address)": "81138",
						"stage()": "317",
						"vote(uint8)": "81359",
						"winningProposal()": "infinite"
					}
				}
			}
		}
	}
}