{
	"Learn/Auction.sol": {
		"Auction": {
			"abi": [
				{
					"constant": true,
					"inputs": [
						{
							"name": "",
							"type": "address"
						}
					],
					"name": "people",
					"outputs": [
						{
							"name": "personId",
							"type": "uint256"
						},
						{
							"name": "addr",
							"type": "address"
						},
						{
							"name": "remainingTokens",
							"type": "uint256"
						}
					],
					"payable": false,
					"stateMutability": "view",
					"type": "function"
				},
				{
					"constant": false,
					"inputs": [
						{
							"name": "bidder",
							"type": "address"
						}
					],
					"name": "register",
					"outputs": [],
					"payable": false,
					"stateMutability": "nonpayable",
					"type": "function"
				},
				{
					"constant": false,
					"inputs": [],
					"name": "ProceedToNextStage",
					"outputs": [],
					"payable": false,
					"stateMutability": "nonpayable",
					"type": "function"
				},
				{
					"constant": false,
					"inputs": [
						{
							"name": "personId",
							"type": "uint256"
						},
						{
							"name": "addr",
							"type": "address"
						},
						{
							"name": "remainingTokens",
							"type": "uint256"
						}
					],
					"name": "createPerson",
					"outputs": [],
					"payable": false,
					"stateMutability": "nonpayable",
					"type": "function"
				},
				{
					"constant": true,
					"inputs": [
						{
							"name": "",
							"type": "address"
						}
					],
					"name": "items",
					"outputs": [
						{
							"name": "itemId",
							"type": "uint256"
						},
						{
							"name": "tokens",
							"type": "uint256"
						}
					],
					"payable": false,
					"stateMutability": "view",
					"type": "function"
				},
				{
					"inputs": [],
					"payable": false,
					"stateMutability": "nonpayable",
					"type": "constructor"
				}
			],
			"devdoc": {
				"methods": {}
			},
			"evm": {
				"assembly": "    /* \"Learn/Auction.sol\":58:1603  contract Auction {... */\n  mstore(0x40, 0x60)\n    /* \"Learn/Auction.sol\":673:875  function Auction() public {... */\n  jumpi(tag_1, iszero(callvalue))\n  0x0\n  dup1\n  revert\ntag_1:\n    /* \"Learn/Auction.sol\":717:727  Stage.Init */\n  0x0\n    /* \"Learn/Auction.sol\":709:714  stage */\n  0x2\n  0x0\n    /* \"Learn/Auction.sol\":709:727  stage = Stage.Init */\n  0x100\n  exp\n  dup2\n  sload\n  dup2\n  0xff\n  mul\n  not\n  and\n  swap1\n  dup4\n  0x3\n  dup2\n  gt\n  iszero\n  tag_4\n  jumpi\n  invalid\ntag_4:\n  mul\n  or\n  swap1\n  sstore\n  pop\n    /* \"Learn/Auction.sol\":737:799  createPerson(1, 0x8438332974105367073911348732759344745833, 5) */\n  tag_5\n    /* \"Learn/Auction.sol\":750:751  1 */\n  0x1\n    /* \"Learn/Auction.sol\":753:795  0x8438332974105367073911348732759344745833 */\n  0x8438332974105367073911348732759344745833\n    /* \"Learn/Auction.sol\":797:798  5 */\n  0x5\n    /* \"Learn/Auction.sol\":737:749  createPerson */\n  or(tag_0_18, mul(0x100000000, tag_6))\n    /* \"Learn/Auction.sol\":737:799  createPerson(1, 0x8438332974105367073911348732759344745833, 5) */\n  0x100000000\n  swap1\n  div\n  jump\t// in\ntag_5:\n    /* \"Learn/Auction.sol\":809:868  createPerson(2, 0x8438332974105367073911348732759344745, 5) */\n  tag_7\n    /* \"Learn/Auction.sol\":822:823  2 */\n  0x2\n    /* \"Learn/Auction.sol\":825:864  0x8438332974105367073911348732759344745 */\n  0x8438332974105367073911348732759344745\n    /* \"Learn/Auction.sol\":866:867  5 */\n  0x5\n    /* \"Learn/Auction.sol\":809:821  createPerson */\n  or(tag_0_18, mul(0x100000000, tag_6))\n    /* \"Learn/Auction.sol\":809:868  createPerson(2, 0x8438332974105367073911348732759344745, 5) */\n  0x100000000\n  swap1\n  div\n  jump\t// in\ntag_7:\n    /* \"Learn/Auction.sol\":58:1603  contract Auction {... */\n  jump(tag_8)\n    /* \"Learn/Auction.sol\":881:1097  function createPerson(... */\ntag_6:\n    /* \"Learn/Auction.sol\":1007:1022  Person memory p */\n  tag_9\n  jump\t// in(tag_10)\ntag_9:\n    /* \"Learn/Auction.sol\":1025:1064  Person(personId, addr, remainingTokens) */\n  0x60\n  mload(0x40)\n  swap1\n  dup2\n  add\n  0x40\n  mstore\n  dup1\n    /* \"Learn/Auction.sol\":1032:1040  personId */\n  dup6\n    /* \"Learn/Auction.sol\":1025:1064  Person(personId, addr, remainingTokens) */\n  dup2\n  mstore\n  0x20\n  add\n    /* \"Learn/Auction.sol\":1042:1046  addr */\n  dup5\n    /* \"Learn/Auction.sol\":1025:1064  Person(personId, addr, remainingTokens) */\n  0xffffffffffffffffffffffffffffffffffffffff\n  and\n  dup2\n  mstore\n  0x20\n  add\n    /* \"Learn/Auction.sol\":1048:1063  remainingTokens */\n  dup4\n    /* \"Learn/Auction.sol\":1025:1064  Person(personId, addr, remainingTokens) */\n  dup2\n  mstore\n  pop\n    /* \"Learn/Auction.sol\":1007:1064  Person memory p = Person(personId, addr, remainingTokens) */\n  swap1\n  pop\n    /* \"Learn/Auction.sol\":1089:1090  p */\n  dup1\n    /* \"Learn/Auction.sol\":1074:1080  people */\n  0x0\n    /* \"Learn/Auction.sol\":1074:1086  people[addr] */\n  dup1\n    /* \"Learn/Auction.sol\":1081:1085  addr */\n  dup6\n    /* \"Learn/Auction.sol\":1074:1086  people[addr] */\n  0xffffffffffffffffffffffffffffffffffffffff\n  and\n  0xffffffffffffffffffffffffffffffffffffffff\n  and\n  dup2\n  mstore\n  0x20\n  add\n  swap1\n  dup2\n  mstore\n  0x20\n  add\n  0x0\n  keccak256\n    /* \"Learn/Auction.sol\":1074:1090  people[addr] = p */\n  0x0\n  dup3\n  add\n  mload\n  dup2\n  0x0\n  add\n  sstore\n  0x20\n  dup3\n  add\n  mload\n  dup2\n  0x1\n  add\n  exp(0x100, 0x0)\n  dup2\n  sload\n  dup2\n  0xffffffffffffffffffffffffffffffffffffffff\n  mul\n  not\n  and\n  swap1\n  dup4\n  0xffffffffffffffffffffffffffffffffffffffff\n  and\n  mul\n  or\n  swap1\n  sstore\n  pop\n  0x40\n  dup3\n  add\n  mload\n  dup2\n  0x2\n  add\n  sstore\n  swap1\n  pop\n  pop\n    /* \"Learn/Auction.sol\":881:1097  function createPerson(... */\n  pop\n  pop\n  pop\n  pop\n  jump\t// out\n    /* \"Learn/Auction.sol\":58:1603  contract Auction {... */\ntag_10:\n  0x60\n  mload(0x40)\n  swap1\n  dup2\n  add\n  0x40\n  mstore\n  dup1\n  0x0\n  dup2\n  mstore\n  0x20\n  add\n  and(0xffffffffffffffffffffffffffffffffffffffff, 0x0)\n  dup2\n  mstore\n  0x20\n  add\n  0x0\n  dup2\n  mstore\n  pop\n  swap1\n  jump\t// out\ntag_8:\n  dataSize(sub_0)\n  dup1\n  dataOffset(sub_0)\n  0x0\n  codecopy\n  0x0\n  return\nstop\n\nsub_0: assembly {\n        /* \"Learn/Auction.sol\":58:1603  contract Auction {... */\n      mstore(0x40, 0x60)\n      calldataload(0x0)\n      0x100000000000000000000000000000000000000000000000000000000\n      swap1\n      div\n      0xffffffff\n      and\n      dup1\n      0x7de9735\n      eq\n      tag_2\n      jumpi\n      dup1\n      0x4420e486\n      eq\n      tag_3\n      jumpi\n      dup1\n      0x525083cc\n      eq\n      tag_4\n      jumpi\n      dup1\n      0x5d59fc6c\n      eq\n      tag_5\n      jumpi\n      dup1\n      0xd321411c\n      eq\n      tag_6\n      jumpi\n      0x0\n      dup1\n      revert\n        /* \"Learn/Auction.sol\":339:379  mapping(address => Person) public people */\n    tag_2:\n      jumpi(tag_7, iszero(callvalue))\n      0x0\n      dup1\n      revert\n    tag_7:\n      tag_8\n      0x4\n      dup1\n      dup1\n      calldataload\n      0xffffffffffffffffffffffffffffffffffffffff\n      and\n      swap1\n      0x20\n      add\n      swap1\n      swap2\n      swap1\n      pop\n      pop\n      jump(tag_9)\n    tag_8:\n      mload(0x40)\n      dup1\n      dup5\n      dup2\n      mstore\n      0x20\n      add\n      dup4\n      0xffffffffffffffffffffffffffffffffffffffff\n      and\n      0xffffffffffffffffffffffffffffffffffffffff\n      and\n      dup2\n      mstore\n      0x20\n      add\n      dup3\n      dup2\n      mstore\n      0x20\n      add\n      swap4\n      pop\n      pop\n      pop\n      pop\n      mload(0x40)\n      dup1\n      swap2\n      sub\n      swap1\n      return\n        /* \"Learn/Auction.sol\":1440:1601  function register(address bidder)... */\n    tag_3:\n      jumpi(tag_10, iszero(callvalue))\n      0x0\n      dup1\n      revert\n    tag_10:\n      tag_11\n      0x4\n      dup1\n      dup1\n      calldataload\n      0xffffffffffffffffffffffffffffffffffffffff\n      and\n      swap1\n      0x20\n      add\n      swap1\n      swap2\n      swap1\n      pop\n      pop\n      jump(tag_12)\n    tag_11:\n      stop\n        /* \"Learn/Auction.sol\":1103:1434  function ProceedToNextStage() public {... */\n    tag_4:\n      jumpi(tag_13, iszero(callvalue))\n      0x0\n      dup1\n      revert\n    tag_13:\n      tag_14\n      jump(tag_15)\n    tag_14:\n      stop\n        /* \"Learn/Auction.sol\":881:1097  function createPerson(... */\n    tag_5:\n      jumpi(tag_16, iszero(callvalue))\n      0x0\n      dup1\n      revert\n    tag_16:\n      tag_17\n      0x4\n      dup1\n      dup1\n      calldataload\n      swap1\n      0x20\n      add\n      swap1\n      swap2\n      swap1\n      dup1\n      calldataload\n      0xffffffffffffffffffffffffffffffffffffffff\n      and\n      swap1\n      0x20\n      add\n      swap1\n      swap2\n      swap1\n      dup1\n      calldataload\n      swap1\n      0x20\n      add\n      swap1\n      swap2\n      swap1\n      pop\n      pop\n      jump(tag_18)\n    tag_17:\n      stop\n        /* \"Learn/Auction.sol\":385:422  mapping(address => Item) public items */\n    tag_6:\n      jumpi(tag_19, iszero(callvalue))\n      0x0\n      dup1\n      revert\n    tag_19:\n      tag_20\n      0x4\n      dup1\n      dup1\n      calldataload\n      0xffffffffffffffffffffffffffffffffffffffff\n      and\n      swap1\n      0x20\n      add\n      swap1\n      swap2\n      swap1\n      pop\n      pop\n      jump(tag_21)\n    tag_20:\n      mload(0x40)\n      dup1\n      dup4\n      dup2\n      mstore\n      0x20\n      add\n      dup3\n      dup2\n      mstore\n      0x20\n      add\n      swap3\n      pop\n      pop\n      pop\n      mload(0x40)\n      dup1\n      swap2\n      sub\n      swap1\n      return\n        /* \"Learn/Auction.sol\":339:379  mapping(address => Person) public people */\n    tag_9:\n      mstore(0x20, 0x0)\n      dup1\n      0x0\n      mstore\n      keccak256(0x0, 0x40)\n      0x0\n      swap2\n      pop\n      swap1\n      pop\n      dup1\n      0x0\n      add\n      sload\n      swap1\n      dup1\n      0x1\n      add\n      0x0\n      swap1\n      sload\n      swap1\n      0x100\n      exp\n      swap1\n      div\n      0xffffffffffffffffffffffffffffffffffffffff\n      and\n      swap1\n      dup1\n      0x2\n      add\n      sload\n      swap1\n      pop\n      dup4\n      jump\t// out\n        /* \"Learn/Auction.sol\":1440:1601  function register(address bidder)... */\n    tag_12:\n        /* \"Learn/Auction.sol\":1508:1517  Stage.Reg */\n      0x1\n        /* \"Learn/Auction.sol\":642:648  _stage */\n      dup1\n        /* \"Learn/Auction.sol\":633:648  stage == _stage */\n      0x3\n      dup2\n      gt\n      iszero\n      tag_23\n      jumpi\n      invalid\n    tag_23:\n        /* \"Learn/Auction.sol\":633:638  stage */\n      0x2\n      0x0\n      swap1\n      sload\n      swap1\n      0x100\n      exp\n      swap1\n      div\n      0xff\n      and\n        /* \"Learn/Auction.sol\":633:648  stage == _stage */\n      0x3\n      dup2\n      gt\n      iszero\n      tag_24\n      jumpi\n      invalid\n    tag_24:\n      eq\n        /* \"Learn/Auction.sol\":625:649  require(stage == _stage) */\n      iszero\n      iszero\n      tag_25\n      jumpi\n      0x0\n      dup1\n      revert\n    tag_25:\n        /* \"Learn/Auction.sol\":1537:1543  bidder */\n      dup2\n        /* \"Learn/Auction.sol\":555:556  0 */\n      0x0\n        /* \"Learn/Auction.sol\":522:528  people */\n      dup1\n        /* \"Learn/Auction.sol\":522:536  people[bidder] */\n      0x0\n        /* \"Learn/Auction.sol\":529:535  bidder */\n      dup4\n        /* \"Learn/Auction.sol\":522:536  people[bidder] */\n      0xffffffffffffffffffffffffffffffffffffffff\n      and\n      0xffffffffffffffffffffffffffffffffffffffff\n      and\n      dup2\n      mstore\n      0x20\n      add\n      swap1\n      dup2\n      mstore\n      0x20\n      add\n      0x0\n      keccak256\n        /* \"Learn/Auction.sol\":522:552  people[bidder].remainingTokens */\n      0x2\n      add\n      sload\n        /* \"Learn/Auction.sol\":522:556  people[bidder].remainingTokens > 0 */\n      gt\n        /* \"Learn/Auction.sol\":514:557  require(people[bidder].remainingTokens > 0) */\n      iszero\n      iszero\n      tag_27\n      jumpi\n      0x0\n      dup1\n      revert\n    tag_27:\n        /* \"Learn/Auction.sol\":1593:1594  1 */\n      0x1\n        /* \"Learn/Auction.sol\":1559:1565  people */\n      0x0\n        /* \"Learn/Auction.sol\":1559:1573  people[bidder] */\n      dup1\n        /* \"Learn/Auction.sol\":1566:1572  bidder */\n      dup6\n        /* \"Learn/Auction.sol\":1559:1573  people[bidder] */\n      0xffffffffffffffffffffffffffffffffffffffff\n      and\n      0xffffffffffffffffffffffffffffffffffffffff\n      and\n      dup2\n      mstore\n      0x20\n      add\n      swap1\n      dup2\n      mstore\n      0x20\n      add\n      0x0\n      keccak256\n        /* \"Learn/Auction.sol\":1559:1589  people[bidder].remainingTokens */\n      0x2\n      add\n      0x0\n        /* \"Learn/Auction.sol\":1559:1594  people[bidder].remainingTokens -= 1 */\n      dup3\n      dup3\n      sload\n      sub\n      swap3\n      pop\n      pop\n      dup2\n      swap1\n      sstore\n      pop\n        /* \"Learn/Auction.sol\":659:660  _ */\n      pop\n        /* \"Learn/Auction.sol\":1440:1601  function register(address bidder)... */\n      pop\n      pop\n      jump\t// out\n        /* \"Learn/Auction.sol\":1103:1434  function ProceedToNextStage() public {... */\n    tag_15:\n        /* \"Learn/Auction.sol\":1163:1173  Stage.Init */\n      0x0\n        /* \"Learn/Auction.sol\":1154:1173  stage == Stage.Init */\n      0x3\n      dup2\n      gt\n      iszero\n      tag_30\n      jumpi\n      invalid\n    tag_30:\n        /* \"Learn/Auction.sol\":1154:1159  stage */\n      0x2\n      0x0\n      swap1\n      sload\n      swap1\n      0x100\n      exp\n      swap1\n      div\n      0xff\n      and\n        /* \"Learn/Auction.sol\":1154:1173  stage == Stage.Init */\n      0x3\n      dup2\n      gt\n      iszero\n      tag_31\n      jumpi\n      invalid\n    tag_31:\n      eq\n        /* \"Learn/Auction.sol\":1150:1237  if (stage == Stage.Init) {... */\n      iszero\n      tag_32\n      jumpi\n        /* \"Learn/Auction.sol\":1197:1206  Stage.Reg */\n      0x1\n        /* \"Learn/Auction.sol\":1189:1194  stage */\n      0x2\n      0x0\n        /* \"Learn/Auction.sol\":1189:1206  stage = Stage.Reg */\n      0x100\n      exp\n      dup2\n      sload\n      dup2\n      0xff\n      mul\n      not\n      and\n      swap1\n      dup4\n      0x3\n      dup2\n      gt\n      iszero\n      tag_33\n      jumpi\n      invalid\n    tag_33:\n      mul\n      or\n      swap1\n      sstore\n      pop\n        /* \"Learn/Auction.sol\":1220:1227  return; */\n      jump(tag_29)\n        /* \"Learn/Auction.sol\":1150:1237  if (stage == Stage.Init) {... */\n    tag_32:\n        /* \"Learn/Auction.sol\":1259:1268  Stage.Reg */\n      0x1\n        /* \"Learn/Auction.sol\":1250:1268  stage == Stage.Reg */\n      0x3\n      dup2\n      gt\n      iszero\n      tag_34\n      jumpi\n      invalid\n    tag_34:\n        /* \"Learn/Auction.sol\":1250:1255  stage */\n      0x2\n      0x0\n      swap1\n      sload\n      swap1\n      0x100\n      exp\n      swap1\n      div\n      0xff\n      and\n        /* \"Learn/Auction.sol\":1250:1268  stage == Stage.Reg */\n      0x3\n      dup2\n      gt\n      iszero\n      tag_35\n      jumpi\n      invalid\n    tag_35:\n      eq\n        /* \"Learn/Auction.sol\":1246:1332  if (stage == Stage.Reg) {... */\n      iszero\n      tag_36\n      jumpi\n        /* \"Learn/Auction.sol\":1292:1301  Stage.Bid */\n      0x2\n        /* \"Learn/Auction.sol\":1284:1289  stage */\n      dup1\n      0x0\n        /* \"Learn/Auction.sol\":1284:1301  stage = Stage.Bid */\n      0x100\n      exp\n      dup2\n      sload\n      dup2\n      0xff\n      mul\n      not\n      and\n      swap1\n      dup4\n      0x3\n      dup2\n      gt\n      iszero\n      tag_37\n      jumpi\n      invalid\n    tag_37:\n      mul\n      or\n      swap1\n      sstore\n      pop\n        /* \"Learn/Auction.sol\":1315:1322  return; */\n      jump(tag_29)\n        /* \"Learn/Auction.sol\":1246:1332  if (stage == Stage.Reg) {... */\n    tag_36:\n        /* \"Learn/Auction.sol\":1354:1363  Stage.Bid */\n      0x2\n        /* \"Learn/Auction.sol\":1345:1363  stage == Stage.Bid */\n      0x3\n      dup2\n      gt\n      iszero\n      tag_38\n      jumpi\n      invalid\n    tag_38:\n        /* \"Learn/Auction.sol\":1345:1350  stage */\n      0x2\n      0x0\n      swap1\n      sload\n      swap1\n      0x100\n      exp\n      swap1\n      div\n      0xff\n      and\n        /* \"Learn/Auction.sol\":1345:1363  stage == Stage.Bid */\n      0x3\n      dup2\n      gt\n      iszero\n      tag_39\n      jumpi\n      invalid\n    tag_39:\n      eq\n        /* \"Learn/Auction.sol\":1341:1428  if (stage == Stage.Bid) {... */\n      iszero\n      tag_40\n      jumpi\n        /* \"Learn/Auction.sol\":1387:1397  Stage.Done */\n      0x3\n        /* \"Learn/Auction.sol\":1379:1384  stage */\n      0x2\n      0x0\n        /* \"Learn/Auction.sol\":1379:1397  stage = Stage.Done */\n      0x100\n      exp\n      dup2\n      sload\n      dup2\n      0xff\n      mul\n      not\n      and\n      swap1\n      dup4\n      0x3\n      dup2\n      gt\n      iszero\n      tag_41\n      jumpi\n      invalid\n    tag_41:\n      mul\n      or\n      swap1\n      sstore\n      pop\n        /* \"Learn/Auction.sol\":1411:1418  return; */\n      jump(tag_29)\n        /* \"Learn/Auction.sol\":1341:1428  if (stage == Stage.Bid) {... */\n    tag_40:\n        /* \"Learn/Auction.sol\":1103:1434  function ProceedToNextStage() public {... */\n    tag_29:\n      jump\t// out\n        /* \"Learn/Auction.sol\":881:1097  function createPerson(... */\n    tag_18:\n        /* \"Learn/Auction.sol\":1007:1022  Person memory p */\n      tag_42\n      jump\t// in(tag_43)\n    tag_42:\n        /* \"Learn/Auction.sol\":1025:1064  Person(personId, addr, remainingTokens) */\n      0x60\n      mload(0x40)\n      swap1\n      dup2\n      add\n      0x40\n      mstore\n      dup1\n        /* \"Learn/Auction.sol\":1032:1040  personId */\n      dup6\n        /* \"Learn/Auction.sol\":1025:1064  Person(personId, addr, remainingTokens) */\n      dup2\n      mstore\n      0x20\n      add\n        /* \"Learn/Auction.sol\":1042:1046  addr */\n      dup5\n        /* \"Learn/Auction.sol\":1025:1064  Person(personId, addr, remainingTokens) */\n      0xffffffffffffffffffffffffffffffffffffffff\n      and\n      dup2\n      mstore\n      0x20\n      add\n        /* \"Learn/Auction.sol\":1048:1063  remainingTokens */\n      dup4\n        /* \"Learn/Auction.sol\":1025:1064  Person(personId, addr, remainingTokens) */\n      dup2\n      mstore\n      pop\n        /* \"Learn/Auction.sol\":1007:1064  Person memory p = Person(personId, addr, remainingTokens) */\n      swap1\n      pop\n        /* \"Learn/Auction.sol\":1089:1090  p */\n      dup1\n        /* \"Learn/Auction.sol\":1074:1080  people */\n      0x0\n        /* \"Learn/Auction.sol\":1074:1086  people[addr] */\n      dup1\n        /* \"Learn/Auction.sol\":1081:1085  addr */\n      dup6\n        /* \"Learn/Auction.sol\":1074:1086  people[addr] */\n      0xffffffffffffffffffffffffffffffffffffffff\n      and\n      0xffffffffffffffffffffffffffffffffffffffff\n      and\n      dup2\n      mstore\n      0x20\n      add\n      swap1\n      dup2\n      mstore\n      0x20\n      add\n      0x0\n      keccak256\n        /* \"Learn/Auction.sol\":1074:1090  people[addr] = p */\n      0x0\n      dup3\n      add\n      mload\n      dup2\n      0x0\n      add\n      sstore\n      0x20\n      dup3\n      add\n      mload\n      dup2\n      0x1\n      add\n      exp(0x100, 0x0)\n      dup2\n      sload\n      dup2\n      0xffffffffffffffffffffffffffffffffffffffff\n      mul\n      not\n      and\n      swap1\n      dup4\n      0xffffffffffffffffffffffffffffffffffffffff\n      and\n      mul\n      or\n      swap1\n      sstore\n      pop\n      0x40\n      dup3\n      add\n      mload\n      dup2\n      0x2\n      add\n      sstore\n      swap1\n      pop\n      pop\n        /* \"Learn/Auction.sol\":881:1097  function createPerson(... */\n      pop\n      pop\n      pop\n      pop\n      jump\t// out\n        /* \"Learn/Auction.sol\":385:422  mapping(address => Item) public items */\n    tag_21:\n      mstore(0x20, 0x1)\n      dup1\n      0x0\n      mstore\n      keccak256(0x0, 0x40)\n      0x0\n      swap2\n      pop\n      swap1\n      pop\n      dup1\n      0x0\n      add\n      sload\n      swap1\n      dup1\n      0x1\n      add\n      sload\n      swap1\n      pop\n      dup3\n      jump\t// out\n        /* \"Learn/Auction.sol\":58:1603  contract Auction {... */\n    tag_43:\n      0x60\n      mload(0x40)\n      swap1\n      dup2\n      add\n      0x40\n      mstore\n      dup1\n      0x0\n      dup2\n      mstore\n      0x20\n      add\n      and(0xffffffffffffffffffffffffffffffffffffffff, 0x0)\n      dup2\n      mstore\n      0x20\n      add\n      0x0\n      dup2\n      mstore\n      pop\n      swap1\n      jump\t// out\n\n    auxdata: 0xa165627a7a72305820ae5643b9f3c3f1eb30c1ff3435531dbdb92cb08b22d49a3ed6b45b993cfa82e70029\n}\n",
				"bytecode": {
					"linkReferences": {},
					"object": "6060604052341561000f57600080fd5b6000600260006101000a81548160ff0219169083600381111561002e57fe5b02179055506100676001738438332974105367073911348732759344745833600561009f64010000000002610409176401000000009004565b61009a60027208438332974105367073911348732759344745600561009f64010000000002610409176401000000009004565b6101b6565b6100a761017e565b6060604051908101604052808581526020018473ffffffffffffffffffffffffffffffffffffffff168152602001838152509050806000808573ffffffffffffffffffffffffffffffffffffffff1673ffffffffffffffffffffffffffffffffffffffff1681526020019081526020016000206000820151816000015560208201518160010160006101000a81548173ffffffffffffffffffffffffffffffffffffffff021916908373ffffffffffffffffffffffffffffffffffffffff1602179055506040820151816002015590505050505050565b60606040519081016040528060008152602001600073ffffffffffffffffffffffffffffffffffffffff168152602001600081525090565b610570806101c56000396000f30060606040526000357c0100000000000000000000000000000000000000000000000000000000900463ffffffff16806307de9735146100695780634420e486146100f0578063525083cc146101295780635d59fc6c1461013e578063d321411c1461018957600080fd5b341561007457600080fd5b6100a0600480803573ffffffffffffffffffffffffffffffffffffffff169060200190919050506101dd565b604051808481526020018373ffffffffffffffffffffffffffffffffffffffff1673ffffffffffffffffffffffffffffffffffffffff168152602001828152602001935050505060405180910390f35b34156100fb57600080fd5b610127600480803573ffffffffffffffffffffffffffffffffffffffff16906020019091905050610227565b005b341561013457600080fd5b61013c610302565b005b341561014957600080fd5b610187600480803590602001909190803573ffffffffffffffffffffffffffffffffffffffff16906020019091908035906020019091905050610409565b005b341561019457600080fd5b6101c0600480803573ffffffffffffffffffffffffffffffffffffffff169060200190919050506104e8565b604051808381526020018281526020019250505060405180910390f35b60006020528060005260406000206000915090508060000154908060010160009054906101000a900473ffffffffffffffffffffffffffffffffffffffff16908060020154905083565b600180600381111561023557fe5b600260009054906101000a900460ff16600381111561025057fe5b14151561025c57600080fd5b8160008060008373ffffffffffffffffffffffffffffffffffffffff1673ffffffffffffffffffffffffffffffffffffffff168152602001908152602001600020600201541115156102ad57600080fd5b60016000808573ffffffffffffffffffffffffffffffffffffffff1673ffffffffffffffffffffffffffffffffffffffff16815260200190815260200160002060020160008282540392505081905550505050565b6000600381111561030f57fe5b600260009054906101000a900460ff16600381111561032a57fe5b1415610359576001600260006101000a81548160ff0219169083600381111561034f57fe5b0217905550610407565b6001600381111561036657fe5b600260009054906101000a900460ff16600381111561038157fe5b14156103af5760028060006101000a81548160ff021916908360038111156103a557fe5b0217905550610407565b600260038111156103bc57fe5b600260009054906101000a900460ff1660038111156103d757fe5b1415610406576003600260006101000a81548160ff021916908360038111156103fc57fe5b0217905550610407565b5b565b61041161050c565b6060604051908101604052808581526020018473ffffffffffffffffffffffffffffffffffffffff168152602001838152509050806000808573ffffffffffffffffffffffffffffffffffffffff1673ffffffffffffffffffffffffffffffffffffffff1681526020019081526020016000206000820151816000015560208201518160010160006101000a81548173ffffffffffffffffffffffffffffffffffffffff021916908373ffffffffffffffffffffffffffffffffffffffff1602179055506040820151816002015590505050505050565b60016020528060005260406000206000915090508060000154908060010154905082565b60606040519081016040528060008152602001600073ffffffffffffffffffffffffffffffffffffffff1681526020016000815250905600a165627a7a72305820ae5643b9f3c3f1eb30c1ff3435531dbdb92cb08b22d49a3ed6b45b993cfa82e70029",
					"opcodes": "PUSH1 0x60 PUSH1 0x40 MSTORE CALLVALUE ISZERO PUSH2 0xF JUMPI PUSH1 0x0 DUP1 REVERT JUMPDEST PUSH1 0x0 PUSH1 0x2 PUSH1 0x0 PUSH2 0x100 EXP DUP2 SLOAD DUP2 PUSH1 0xFF MUL NOT AND SWAP1 DUP4 PUSH1 0x3 DUP2 GT ISZERO PUSH2 0x2E JUMPI INVALID JUMPDEST MUL OR SWAP1 SSTORE POP PUSH2 0x67 PUSH1 0x1 PUSH20 0x8438332974105367073911348732759344745833 PUSH1 0x5 PUSH2 0x9F PUSH5 0x100000000 MUL PUSH2 0x409 OR PUSH5 0x100000000 SWAP1 DIV JUMP JUMPDEST PUSH2 0x9A PUSH1 0x2 PUSH19 0x8438332974105367073911348732759344745 PUSH1 0x5 PUSH2 0x9F PUSH5 0x100000000 MUL PUSH2 0x409 OR PUSH5 0x100000000 SWAP1 DIV JUMP JUMPDEST PUSH2 0x1B6 JUMP JUMPDEST PUSH2 0xA7 PUSH2 0x17E JUMP JUMPDEST PUSH1 0x60 PUSH1 0x40 MLOAD SWAP1 DUP2 ADD PUSH1 0x40 MSTORE DUP1 DUP6 DUP2 MSTORE PUSH1 0x20 ADD DUP5 PUSH20 0xFFFFFFFFFFFFFFFFFFFFFFFFFFFFFFFFFFFFFFFF AND DUP2 MSTORE PUSH1 0x20 ADD DUP4 DUP2 MSTORE POP SWAP1 POP DUP1 PUSH1 0x0 DUP1 DUP6 PUSH20 0xFFFFFFFFFFFFFFFFFFFFFFFFFFFFFFFFFFFFFFFF AND PUSH20 0xFFFFFFFFFFFFFFFFFFFFFFFFFFFFFFFFFFFFFFFF AND DUP2 MSTORE PUSH1 0x20 ADD SWAP1 DUP2 MSTORE PUSH1 0x20 ADD PUSH1 0x0 KECCAK256 PUSH1 0x0 DUP3 ADD MLOAD DUP2 PUSH1 0x0 ADD SSTORE PUSH1 0x20 DUP3 ADD MLOAD DUP2 PUSH1 0x1 ADD PUSH1 0x0 PUSH2 0x100 EXP DUP2 SLOAD DUP2 PUSH20 0xFFFFFFFFFFFFFFFFFFFFFFFFFFFFFFFFFFFFFFFF MUL NOT AND SWAP1 DUP4 PUSH20 0xFFFFFFFFFFFFFFFFFFFFFFFFFFFFFFFFFFFFFFFF AND MUL OR SWAP1 SSTORE POP PUSH1 0x40 DUP3 ADD MLOAD DUP2 PUSH1 0x2 ADD SSTORE SWAP1 POP POP POP POP POP POP JUMP JUMPDEST PUSH1 0x60 PUSH1 0x40 MLOAD SWAP1 DUP2 ADD PUSH1 0x40 MSTORE DUP1 PUSH1 0x0 DUP2 MSTORE PUSH1 0x20 ADD PUSH1 0x0 PUSH20 0xFFFFFFFFFFFFFFFFFFFFFFFFFFFFFFFFFFFFFFFF AND DUP2 MSTORE PUSH1 0x20 ADD PUSH1 0x0 DUP2 MSTORE POP SWAP1 JUMP JUMPDEST PUSH2 0x570 DUP1 PUSH2 0x1C5 PUSH1 0x0 CODECOPY PUSH1 0x0 RETURN STOP PUSH1 0x60 PUSH1 0x40 MSTORE PUSH1 0x0 CALLDATALOAD PUSH29 0x100000000000000000000000000000000000000000000000000000000 SWAP1 DIV PUSH4 0xFFFFFFFF AND DUP1 PUSH4 0x7DE9735 EQ PUSH2 0x69 JUMPI DUP1 PUSH4 0x4420E486 EQ PUSH2 0xF0 JUMPI DUP1 PUSH4 0x525083CC EQ PUSH2 0x129 JUMPI DUP1 PUSH4 0x5D59FC6C EQ PUSH2 0x13E JUMPI DUP1 PUSH4 0xD321411C EQ PUSH2 0x189 JUMPI PUSH1 0x0 DUP1 REVERT JUMPDEST CALLVALUE ISZERO PUSH2 0x74 JUMPI PUSH1 0x0 DUP1 REVERT JUMPDEST PUSH2 0xA0 PUSH1 0x4 DUP1 DUP1 CALLDATALOAD PUSH20 0xFFFFFFFFFFFFFFFFFFFFFFFFFFFFFFFFFFFFFFFF AND SWAP1 PUSH1 0x20 ADD SWAP1 SWAP2 SWAP1 POP POP PUSH2 0x1DD JUMP JUMPDEST PUSH1 0x40 MLOAD DUP1 DUP5 DUP2 MSTORE PUSH1 0x20 ADD DUP4 PUSH20 0xFFFFFFFFFFFFFFFFFFFFFFFFFFFFFFFFFFFFFFFF AND PUSH20 0xFFFFFFFFFFFFFFFFFFFFFFFFFFFFFFFFFFFFFFFF AND DUP2 MSTORE PUSH1 0x20 ADD DUP3 DUP2 MSTORE PUSH1 0x20 ADD SWAP4 POP POP POP POP PUSH1 0x40 MLOAD DUP1 SWAP2 SUB SWAP1 RETURN JUMPDEST CALLVALUE ISZERO PUSH2 0xFB JUMPI PUSH1 0x0 DUP1 REVERT JUMPDEST PUSH2 0x127 PUSH1 0x4 DUP1 DUP1 CALLDATALOAD PUSH20 0xFFFFFFFFFFFFFFFFFFFFFFFFFFFFFFFFFFFFFFFF AND SWAP1 PUSH1 0x20 ADD SWAP1 SWAP2 SWAP1 POP POP PUSH2 0x227 JUMP JUMPDEST STOP JUMPDEST CALLVALUE ISZERO PUSH2 0x134 JUMPI PUSH1 0x0 DUP1 REVERT JUMPDEST PUSH2 0x13C PUSH2 0x302 JUMP JUMPDEST STOP JUMPDEST CALLVALUE ISZERO PUSH2 0x149 JUMPI PUSH1 0x0 DUP1 REVERT JUMPDEST PUSH2 0x187 PUSH1 0x4 DUP1 DUP1 CALLDATALOAD SWAP1 PUSH1 0x20 ADD SWAP1 SWAP2 SWAP1 DUP1 CALLDATALOAD PUSH20 0xFFFFFFFFFFFFFFFFFFFFFFFFFFFFFFFFFFFFFFFF AND SWAP1 PUSH1 0x20 ADD SWAP1 SWAP2 SWAP1 DUP1 CALLDATALOAD SWAP1 PUSH1 0x20 ADD SWAP1 SWAP2 SWAP1 POP POP PUSH2 0x409 JUMP JUMPDEST STOP JUMPDEST CALLVALUE ISZERO PUSH2 0x194 JUMPI PUSH1 0x0 DUP1 REVERT JUMPDEST PUSH2 0x1C0 PUSH1 0x4 DUP1 DUP1 CALLDATALOAD PUSH20 0xFFFFFFFFFFFFFFFFFFFFFFFFFFFFFFFFFFFFFFFF AND SWAP1 PUSH1 0x20 ADD SWAP1 SWAP2 SWAP1 POP POP PUSH2 0x4E8 JUMP JUMPDEST PUSH1 0x40 MLOAD DUP1 DUP4 DUP2 MSTORE PUSH1 0x20 ADD DUP3 DUP2 MSTORE PUSH1 0x20 ADD SWAP3 POP POP POP PUSH1 0x40 MLOAD DUP1 SWAP2 SUB SWAP1 RETURN JUMPDEST PUSH1 0x0 PUSH1 0x20 MSTORE DUP1 PUSH1 0x0 MSTORE PUSH1 0x40 PUSH1 0x0 KECCAK256 PUSH1 0x0 SWAP2 POP SWAP1 POP DUP1 PUSH1 0x0 ADD SLOAD SWAP1 DUP1 PUSH1 0x1 ADD PUSH1 0x0 SWAP1 SLOAD SWAP1 PUSH2 0x100 EXP SWAP1 DIV PUSH20 0xFFFFFFFFFFFFFFFFFFFFFFFFFFFFFFFFFFFFFFFF AND SWAP1 DUP1 PUSH1 0x2 ADD SLOAD SWAP1 POP DUP4 JUMP JUMPDEST PUSH1 0x1 DUP1 PUSH1 0x3 DUP2 GT ISZERO PUSH2 0x235 JUMPI INVALID JUMPDEST PUSH1 0x2 PUSH1 0x0 SWAP1 SLOAD SWAP1 PUSH2 0x100 EXP SWAP1 DIV PUSH1 0xFF AND PUSH1 0x3 DUP2 GT ISZERO PUSH2 0x250 JUMPI INVALID JUMPDEST EQ ISZERO ISZERO PUSH2 0x25C JUMPI PUSH1 0x0 DUP1 REVERT JUMPDEST DUP2 PUSH1 0x0 DUP1 PUSH1 0x0 DUP4 PUSH20 0xFFFFFFFFFFFFFFFFFFFFFFFFFFFFFFFFFFFFFFFF AND PUSH20 0xFFFFFFFFFFFFFFFFFFFFFFFFFFFFFFFFFFFFFFFF AND DUP2 MSTORE PUSH1 0x20 ADD SWAP1 DUP2 MSTORE PUSH1 0x20 ADD PUSH1 0x0 KECCAK256 PUSH1 0x2 ADD SLOAD GT ISZERO ISZERO PUSH2 0x2AD JUMPI PUSH1 0x0 DUP1 REVERT JUMPDEST PUSH1 0x1 PUSH1 0x0 DUP1 DUP6 PUSH20 0xFFFFFFFFFFFFFFFFFFFFFFFFFFFFFFFFFFFFFFFF AND PUSH20 0xFFFFFFFFFFFFFFFFFFFFFFFFFFFFFFFFFFFFFFFF AND DUP2 MSTORE PUSH1 0x20 ADD SWAP1 DUP2 MSTORE PUSH1 0x20 ADD PUSH1 0x0 KECCAK256 PUSH1 0x2 ADD PUSH1 0x0 DUP3 DUP3 SLOAD SUB SWAP3 POP POP DUP2 SWAP1 SSTORE POP POP POP POP JUMP JUMPDEST PUSH1 0x0 PUSH1 0x3 DUP2 GT ISZERO PUSH2 0x30F JUMPI INVALID JUMPDEST PUSH1 0x2 PUSH1 0x0 SWAP1 SLOAD SWAP1 PUSH2 0x100 EXP SWAP1 DIV PUSH1 0xFF AND PUSH1 0x3 DUP2 GT ISZERO PUSH2 0x32A JUMPI INVALID JUMPDEST EQ ISZERO PUSH2 0x359 JUMPI PUSH1 0x1 PUSH1 0x2 PUSH1 0x0 PUSH2 0x100 EXP DUP2 SLOAD DUP2 PUSH1 0xFF MUL NOT AND SWAP1 DUP4 PUSH1 0x3 DUP2 GT ISZERO PUSH2 0x34F JUMPI INVALID JUMPDEST MUL OR SWAP1 SSTORE POP PUSH2 0x407 JUMP JUMPDEST PUSH1 0x1 PUSH1 0x3 DUP2 GT ISZERO PUSH2 0x366 JUMPI INVALID JUMPDEST PUSH1 0x2 PUSH1 0x0 SWAP1 SLOAD SWAP1 PUSH2 0x100 EXP SWAP1 DIV PUSH1 0xFF AND PUSH1 0x3 DUP2 GT ISZERO PUSH2 0x381 JUMPI INVALID JUMPDEST EQ ISZERO PUSH2 0x3AF JUMPI PUSH1 0x2 DUP1 PUSH1 0x0 PUSH2 0x100 EXP DUP2 SLOAD DUP2 PUSH1 0xFF MUL NOT AND SWAP1 DUP4 PUSH1 0x3 DUP2 GT ISZERO PUSH2 0x3A5 JUMPI INVALID JUMPDEST MUL OR SWAP1 SSTORE POP PUSH2 0x407 JUMP JUMPDEST PUSH1 0x2 PUSH1 0x3 DUP2 GT ISZERO PUSH2 0x3BC JUMPI INVALID JUMPDEST PUSH1 0x2 PUSH1 0x0 SWAP1 SLOAD SWAP1 PUSH2 0x100 EXP SWAP1 DIV PUSH1 0xFF AND PUSH1 0x3 DUP2 GT ISZERO PUSH2 0x3D7 JUMPI INVALID JUMPDEST EQ ISZERO PUSH2 0x406 JUMPI PUSH1 0x3 PUSH1 0x2 PUSH1 0x0 PUSH2 0x100 EXP DUP2 SLOAD DUP2 PUSH1 0xFF MUL NOT AND SWAP1 DUP4 PUSH1 0x3 DUP2 GT ISZERO PUSH2 0x3FC JUMPI INVALID JUMPDEST MUL OR SWAP1 SSTORE POP PUSH2 0x407 JUMP JUMPDEST JUMPDEST JUMP JUMPDEST PUSH2 0x411 PUSH2 0x50C JUMP JUMPDEST PUSH1 0x60 PUSH1 0x40 MLOAD SWAP1 DUP2 ADD PUSH1 0x40 MSTORE DUP1 DUP6 DUP2 MSTORE PUSH1 0x20 ADD DUP5 PUSH20 0xFFFFFFFFFFFFFFFFFFFFFFFFFFFFFFFFFFFFFFFF AND DUP2 MSTORE PUSH1 0x20 ADD DUP4 DUP2 MSTORE POP SWAP1 POP DUP1 PUSH1 0x0 DUP1 DUP6 PUSH20 0xFFFFFFFFFFFFFFFFFFFFFFFFFFFFFFFFFFFFFFFF AND PUSH20 0xFFFFFFFFFFFFFFFFFFFFFFFFFFFFFFFFFFFFFFFF AND DUP2 MSTORE PUSH1 0x20 ADD SWAP1 DUP2 MSTORE PUSH1 0x20 ADD PUSH1 0x0 KECCAK256 PUSH1 0x0 DUP3 ADD MLOAD DUP2 PUSH1 0x0 ADD SSTORE PUSH1 0x20 DUP3 ADD MLOAD DUP2 PUSH1 0x1 ADD PUSH1 0x0 PUSH2 0x100 EXP DUP2 SLOAD DUP2 PUSH20 0xFFFFFFFFFFFFFFFFFFFFFFFFFFFFFFFFFFFFFFFF MUL NOT AND SWAP1 DUP4 PUSH20 0xFFFFFFFFFFFFFFFFFFFFFFFFFFFFFFFFFFFFFFFF AND MUL OR SWAP1 SSTORE POP PUSH1 0x40 DUP3 ADD MLOAD DUP2 PUSH1 0x2 ADD SSTORE SWAP1 POP POP POP POP POP POP JUMP JUMPDEST PUSH1 0x1 PUSH1 0x20 MSTORE DUP1 PUSH1 0x0 MSTORE PUSH1 0x40 PUSH1 0x0 KECCAK256 PUSH1 0x0 SWAP2 POP SWAP1 POP DUP1 PUSH1 0x0 ADD SLOAD SWAP1 DUP1 PUSH1 0x1 ADD SLOAD SWAP1 POP DUP3 JUMP JUMPDEST PUSH1 0x60 PUSH1 0x40 MLOAD SWAP1 DUP2 ADD PUSH1 0x40 MSTORE DUP1 PUSH1 0x0 DUP2 MSTORE PUSH1 0x20 ADD PUSH1 0x0 PUSH20 0xFFFFFFFFFFFFFFFFFFFFFFFFFFFFFFFFFFFFFFFF AND DUP2 MSTORE PUSH1 0x20 ADD PUSH1 0x0 DUP2 MSTORE POP SWAP1 JUMP STOP LOG1 PUSH6 0x627A7A723058 KECCAK256 0xae JUMP NUMBER 0xb9 RETURN 0xc3 CALL 0xeb ADDRESS 0xc1 SELFDESTRUCT CALLVALUE CALLDATALOAD MSTORE8 0x1d 0xbd 0xb9 0x2c 0xb0 DUP12 0x22 0xd4 SWAP11 RETURNDATACOPY 0xd6 0xb4 JUMPDEST SWAP10 EXTCODECOPY STATICCALL DUP3 0xe7 STOP 0x29 "
				},
				"gasEstimates": {
					"creation": {
						"codeDepositCost": "278400",
						"executionCost": "infinite",
						"totalCost": "infinite"
					},
					"external": {
						"ProceedToNextStage()": "21391",
						"createPerson(uint256,address,uint256)": "60894",
						"items(address)": "815",
						"people(address)": "1007",
						"register(address)": "21152"
					}
				},
				"methodIdentifiers": {
					"ProceedToNextStage()": "525083cc",
					"createPerson(uint256,address,uint256)": "5d59fc6c",
					"items(address)": "d321411c",
					"people(address)": "07de9735",
					"register(address)": "4420e486"
				}
			},
			"userdoc": {
				"methods": {}
			}
		}
	}
}