{
	"Learn/AuctionV1.sol": {
		"Auction": {
			"abi": [
				{
					"constant": false,
					"inputs": [],
					"name": "register",
					"outputs": [],
					"payable": true,
					"stateMutability": "payable",
					"type": "function"
				},
				{
					"constant": true,
					"inputs": [],
					"name": "beneficiary",
					"outputs": [
						{
							"name": "",
							"type": "address"
						}
					],
					"payable": false,
					"stateMutability": "view",
					"type": "function"
				},
				{
					"constant": false,
					"inputs": [
						{
							"name": "_itemId",
							"type": "uint256"
						},
						{
							"name": "_count",
							"type": "uint256"
						}
					],
					"name": "bid",
					"outputs": [],
					"payable": true,
					"stateMutability": "payable",
					"type": "function"
				},
				{
					"constant": true,
					"inputs": [
						{
							"name": "id",
							"type": "uint256"
						}
					],
					"name": "getPersonDetails",
					"outputs": [
						{
							"name": "",
							"type": "uint256"
						},
						{
							"name": "",
							"type": "uint256"
						},
						{
							"name": "",
							"type": "address"
						}
					],
					"payable": false,
					"stateMutability": "view",
					"type": "function"
				},
				{
					"constant": false,
					"inputs": [],
					"name": "revealWinners",
					"outputs": [],
					"payable": false,
					"stateMutability": "nonpayable",
					"type": "function"
				},
				{
					"constant": true,
					"inputs": [
						{
							"name": "",
							"type": "uint256"
						}
					],
					"name": "winners",
					"outputs": [
						{
							"name": "",
							"type": "address"
						}
					],
					"payable": false,
					"stateMutability": "view",
					"type": "function"
				},
				{
					"constant": true,
					"inputs": [
						{
							"name": "",
							"type": "uint256"
						}
					],
					"name": "items",
					"outputs": [
						{
							"name": "itemId",
							"type": "uint256"
						}
					],
					"payable": false,
					"stateMutability": "view",
					"type": "function"
				},
				{
					"inputs": [],
					"payable": true,
					"stateMutability": "payable",
					"type": "constructor"
				}
			],
			"devdoc": {
				"methods": {}
			},
			"evm": {
				"assembly": "    /* \"Learn/AuctionV1.sol\":26:5386  contract Auction {... */\n  mstore(0x40, 0x60)\n    /* \"Learn/AuctionV1.sol\":811:812  0 */\n  0x0\n    /* \"Learn/AuctionV1.sol\":789:812  uint256 bidderCount = 0 */\n  0x17\n  sstore\n    /* \"Learn/AuctionV1.sol\":1203:1230  uint256[] memory emptyArray */\n  tag_2\n  jump\t// in(tag_3)\ntag_2:\n    /* \"Learn/AuctionV1.sol\":1150:1160  msg.sender */\n  caller\n    /* \"Learn/AuctionV1.sol\":1136:1147  beneficiary */\n  0x16\n  0x0\n    /* \"Learn/AuctionV1.sol\":1136:1160  beneficiary = msg.sender */\n  0x100\n  exp\n  dup2\n  sload\n  dup2\n  0xffffffffffffffffffffffffffffffffffffffff\n  mul\n  not\n  and\n  swap1\n  dup4\n  0xffffffffffffffffffffffffffffffffffffffff\n  and\n  mul\n  or\n  swap1\n  sstore\n  pop\n    /* \"Learn/AuctionV1.sol\":1251:1292  Item({itemId: 0, itemTokens: emptyArray}) */\n  0x40\n  dup1\n  mload\n  swap1\n  dup2\n  add\n  0x40\n  mstore\n  dup1\n    /* \"Learn/AuctionV1.sol\":1265:1266  0 */\n  0x0\n    /* \"Learn/AuctionV1.sol\":1251:1292  Item({itemId: 0, itemTokens: emptyArray}) */\n  dup2\n  mstore\n  0x20\n  add\n    /* \"Learn/AuctionV1.sol\":1280:1290  emptyArray */\n  dup3\n    /* \"Learn/AuctionV1.sol\":1251:1292  Item({itemId: 0, itemTokens: emptyArray}) */\n  dup2\n  mstore\n  pop\n    /* \"Learn/AuctionV1.sol\":1240:1245  items */\n  0xd\n    /* \"Learn/AuctionV1.sol\":1246:1247  0 */\n  0x0\n    /* \"Learn/AuctionV1.sol\":1240:1248  items[0] */\n  0x3\n  dup2\n  lt\n  iszero\n  iszero\n  tag_5\n  jumpi\n  invalid\ntag_5:\n  0x2\n  mul\n  add\n    /* \"Learn/AuctionV1.sol\":1240:1292  items[0] = Item({itemId: 0, itemTokens: emptyArray}) */\n  0x0\n  dup3\n  add\n  mload\n  dup2\n  0x0\n  add\n  sstore\n  0x20\n  dup3\n  add\n  mload\n  dup2\n  0x1\n  add\n  swap1\n  dup1\n  mload\n  swap1\n  0x20\n  add\n  swap1\n  tag_7\n  swap3\n  swap2\n  swap1\n  jump\t// in(tag_8)\ntag_7:\n  pop\n  swap1\n  pop\n  pop\n    /* \"Learn/AuctionV1.sol\":1441:1482  Item({itemId: 1, itemTokens: emptyArray}) */\n  0x40\n  dup1\n  mload\n  swap1\n  dup2\n  add\n  0x40\n  mstore\n  dup1\n    /* \"Learn/AuctionV1.sol\":1455:1456  1 */\n  0x1\n    /* \"Learn/AuctionV1.sol\":1441:1482  Item({itemId: 1, itemTokens: emptyArray}) */\n  dup2\n  mstore\n  0x20\n  add\n    /* \"Learn/AuctionV1.sol\":1470:1480  emptyArray */\n  dup3\n    /* \"Learn/AuctionV1.sol\":1441:1482  Item({itemId: 1, itemTokens: emptyArray}) */\n  dup2\n  mstore\n  pop\n    /* \"Learn/AuctionV1.sol\":1430:1435  items */\n  0xd\n    /* \"Learn/AuctionV1.sol\":1436:1437  1 */\n  0x1\n    /* \"Learn/AuctionV1.sol\":1430:1438  items[1] */\n  0x3\n  dup2\n  lt\n  iszero\n  iszero\n  tag_9\n  jumpi\n  invalid\ntag_9:\n  0x2\n  mul\n  add\n    /* \"Learn/AuctionV1.sol\":1430:1482  items[1] = Item({itemId: 1, itemTokens: emptyArray}) */\n  0x0\n  dup3\n  add\n  mload\n  dup2\n  0x0\n  add\n  sstore\n  0x20\n  dup3\n  add\n  mload\n  dup2\n  0x1\n  add\n  swap1\n  dup1\n  mload\n  swap1\n  0x20\n  add\n  swap1\n  tag_11\n  swap3\n  swap2\n  swap1\n  jump\t// in(tag_8)\ntag_11:\n  pop\n  swap1\n  pop\n  pop\n    /* \"Learn/AuctionV1.sol\":1503:1544  Item({itemId: 2, itemTokens: emptyArray}) */\n  0x40\n  dup1\n  mload\n  swap1\n  dup2\n  add\n  0x40\n  mstore\n  dup1\n    /* \"Learn/AuctionV1.sol\":1517:1518  2 */\n  0x2\n    /* \"Learn/AuctionV1.sol\":1503:1544  Item({itemId: 2, itemTokens: emptyArray}) */\n  dup2\n  mstore\n  0x20\n  add\n    /* \"Learn/AuctionV1.sol\":1532:1542  emptyArray */\n  dup3\n    /* \"Learn/AuctionV1.sol\":1503:1544  Item({itemId: 2, itemTokens: emptyArray}) */\n  dup2\n  mstore\n  pop\n    /* \"Learn/AuctionV1.sol\":1492:1497  items */\n  0xd\n    /* \"Learn/AuctionV1.sol\":1498:1499  2 */\n  0x2\n    /* \"Learn/AuctionV1.sol\":1492:1500  items[2] */\n  0x3\n  dup2\n  lt\n  iszero\n  iszero\n  tag_12\n  jumpi\n  invalid\ntag_12:\n  0x2\n  mul\n  add\n    /* \"Learn/AuctionV1.sol\":1492:1544  items[2] = Item({itemId: 2, itemTokens: emptyArray}) */\n  0x0\n  dup3\n  add\n  mload\n  dup2\n  0x0\n  add\n  sstore\n  0x20\n  dup3\n  add\n  mload\n  dup2\n  0x1\n  add\n  swap1\n  dup1\n  mload\n  swap1\n  0x20\n  add\n  swap1\n  tag_14\n  swap3\n  swap2\n  swap1\n  jump\t// in(tag_8)\ntag_14:\n  pop\n  swap1\n  pop\n  pop\n    /* \"Learn/AuctionV1.sol\":846:1581  function Auction() public payable {... */\n  pop\n    /* \"Learn/AuctionV1.sol\":26:5386  contract Auction {... */\n  jump(tag_15)\ntag_3:\n  0x20\n  mload(0x40)\n  swap1\n  dup2\n  add\n  0x40\n  mstore\n  dup1\n  0x0\n  dup2\n  mstore\n  pop\n  swap1\n  jump\t// out\ntag_8:\n  dup3\n  dup1\n  sload\n  dup3\n  dup3\n  sstore\n  swap1\n  0x0\n  mstore\n  keccak256(0x0, 0x20)\n  swap1\n  dup2\n  add\n  swap3\n  dup3\n  iszero\n  tag_16\n  jumpi\n  swap2\n  0x20\n  mul\n  dup3\n  add\ntag_17:\n  dup3\n  dup2\n  gt\n  iszero\n  tag_18\n  jumpi\n  dup3\n  mload\n  dup3\n  sstore\n  swap2\n  0x20\n  add\n  swap2\n  swap1\n  0x1\n  add\n  swap1\n  jump(tag_17)\ntag_18:\ntag_16:\n  pop\n  swap1\n  pop\n  tag_19\n  swap2\n  swap1\n  jump\t// in(tag_20)\ntag_19:\n  pop\n  swap1\n  jump\t// out\ntag_20:\n  tag_21\n  swap2\n  swap1\ntag_22:\n  dup1\n  dup3\n  gt\n  iszero\n  tag_23\n  jumpi\n  0x0\n  dup2\n  0x0\n  swap1\n  sstore\n  pop\n  0x1\n  add\n  jump(tag_22)\ntag_23:\n  pop\n  swap1\n  jump\ntag_21:\n  swap1\n  jump\t// out\ntag_15:\n  dataSize(sub_0)\n  dup1\n  dataOffset(sub_0)\n  0x0\n  codecopy\n  0x0\n  return\nstop\n\nsub_0: assembly {\n        /* \"Learn/AuctionV1.sol\":26:5386  contract Auction {... */\n      mstore(0x40, 0x60)\n      jumpi(tag_1, iszero(calldatasize))\n      calldataload(0x0)\n      0x100000000000000000000000000000000000000000000000000000000\n      swap1\n      div\n      0xffffffff\n      and\n      dup1\n      0x1aa3a008\n      eq\n      tag_2\n      jumpi\n      dup1\n      0x38af3eed\n      eq\n      tag_3\n      jumpi\n      dup1\n      0x598647f8\n      eq\n      tag_4\n      jumpi\n      dup1\n      0x60981705\n      eq\n      tag_5\n      jumpi\n      dup1\n      0x952587d6\n      eq\n      tag_6\n      jumpi\n      dup1\n      0xa2fb1175\n      eq\n      tag_7\n      jumpi\n      dup1\n      0xbfb231d2\n      eq\n      tag_8\n      jumpi\n    tag_1:\n      0x0\n      dup1\n      revert\n        /* \"Learn/AuctionV1.sol\":1587:2135  function register() public payable {... */\n    tag_2:\n      tag_9\n      jump(tag_10)\n    tag_9:\n      stop\n        /* \"Learn/AuctionV1.sol\":726:752  address public beneficiary */\n    tag_3:\n      jumpi(tag_11, iszero(callvalue))\n      0x0\n      dup1\n      revert\n    tag_11:\n      tag_12\n      jump(tag_13)\n    tag_12:\n      mload(0x40)\n      dup1\n      dup3\n      0xffffffffffffffffffffffffffffffffffffffff\n      and\n      0xffffffffffffffffffffffffffffffffffffffff\n      and\n      dup2\n      mstore\n      0x20\n      add\n      swap2\n      pop\n      pop\n      mload(0x40)\n      dup1\n      swap2\n      sub\n      swap1\n      return\n        /* \"Learn/AuctionV1.sol\":2141:3858  function bid(uint256 _itemId, uint256 _count) public payable {... */\n    tag_4:\n      tag_14\n      0x4\n      dup1\n      dup1\n      calldataload\n      swap1\n      0x20\n      add\n      swap1\n      swap2\n      swap1\n      dup1\n      calldataload\n      swap1\n      0x20\n      add\n      swap1\n      swap2\n      swap1\n      pop\n      pop\n      jump(tag_15)\n    tag_14:\n      stop\n        /* \"Learn/AuctionV1.sol\":5081:5384  function getPersonDetails(uint256 id)... */\n    tag_5:\n      jumpi(tag_16, iszero(callvalue))\n      0x0\n      dup1\n      revert\n    tag_16:\n      tag_17\n      0x4\n      dup1\n      dup1\n      calldataload\n      swap1\n      0x20\n      add\n      swap1\n      swap2\n      swap1\n      pop\n      pop\n      jump(tag_18)\n    tag_17:\n      mload(0x40)\n      dup1\n      dup5\n      dup2\n      mstore\n      0x20\n      add\n      dup4\n      dup2\n      mstore\n      0x20\n      add\n      dup3\n      0xffffffffffffffffffffffffffffffffffffffff\n      and\n      0xffffffffffffffffffffffffffffffffffffffff\n      and\n      dup2\n      mstore\n      0x20\n      add\n      swap4\n      pop\n      pop\n      pop\n      pop\n      mload(0x40)\n      dup1\n      swap2\n      sub\n      swap1\n      return\n        /* \"Learn/AuctionV1.sol\":3864:4978  function revealWinners() public {... */\n    tag_6:\n      jumpi(tag_19, iszero(callvalue))\n      0x0\n      dup1\n      revert\n    tag_19:\n      tag_20\n      jump(tag_21)\n    tag_20:\n      stop\n        /* \"Learn/AuctionV1.sol\":664:689  address[3] public winners */\n    tag_7:\n      jumpi(tag_22, iszero(callvalue))\n      0x0\n      dup1\n      revert\n    tag_22:\n      tag_23\n      0x4\n      dup1\n      dup1\n      calldataload\n      swap1\n      0x20\n      add\n      swap1\n      swap2\n      swap1\n      pop\n      pop\n      jump(tag_24)\n    tag_23:\n      mload(0x40)\n      dup1\n      dup3\n      0xffffffffffffffffffffffffffffffffffffffff\n      and\n      0xffffffffffffffffffffffffffffffffffffffff\n      and\n      dup2\n      mstore\n      0x20\n      add\n      swap2\n      pop\n      pop\n      mload(0x40)\n      dup1\n      swap2\n      sub\n      swap1\n      return\n        /* \"Learn/AuctionV1.sol\":604:624  Item[3] public items */\n    tag_8:\n      jumpi(tag_25, iszero(callvalue))\n      0x0\n      dup1\n      revert\n    tag_25:\n      tag_26\n      0x4\n      dup1\n      dup1\n      calldataload\n      swap1\n      0x20\n      add\n      swap1\n      swap2\n      swap1\n      pop\n      pop\n      jump(tag_27)\n    tag_26:\n      mload(0x40)\n      dup1\n      dup3\n      dup2\n      mstore\n      0x20\n      add\n      swap2\n      pop\n      pop\n      mload(0x40)\n      dup1\n      swap2\n      sub\n      swap1\n      return\n        /* \"Learn/AuctionV1.sol\":1587:2135  function register() public payable {... */\n    tag_10:\n        /* \"Learn/AuctionV1.sol\":1664:1675  bidderCount */\n      sload(0x17)\n        /* \"Learn/AuctionV1.sol\":1632:1639  bidders */\n      0x1\n        /* \"Learn/AuctionV1.sol\":1640:1651  bidderCount */\n      sload(0x17)\n        /* \"Learn/AuctionV1.sol\":1632:1652  bidders[bidderCount] */\n      0x4\n      dup2\n      lt\n      iszero\n      iszero\n      tag_29\n      jumpi\n      invalid\n    tag_29:\n      0x3\n      mul\n      add\n        /* \"Learn/AuctionV1.sol\":1632:1661  bidders[bidderCount].personId */\n      0x1\n      add\n        /* \"Learn/AuctionV1.sol\":1632:1675  bidders[bidderCount].personId = bidderCount */\n      dup2\n      swap1\n      sstore\n      pop\n        /* \"Learn/AuctionV1.sol\":1939:1949  msg.sender */\n      caller\n        /* \"Learn/AuctionV1.sol\":1911:1918  bidders */\n      0x1\n        /* \"Learn/AuctionV1.sol\":1919:1930  bidderCount */\n      sload(0x17)\n        /* \"Learn/AuctionV1.sol\":1911:1931  bidders[bidderCount] */\n      0x4\n      dup2\n      lt\n      iszero\n      iszero\n      tag_31\n      jumpi\n      invalid\n    tag_31:\n      0x3\n      mul\n      add\n        /* \"Learn/AuctionV1.sol\":1911:1936  bidders[bidderCount].addr */\n      0x2\n      add\n      0x0\n        /* \"Learn/AuctionV1.sol\":1911:1949  bidders[bidderCount].addr = msg.sender */\n      0x100\n      exp\n      dup2\n      sload\n      dup2\n      0xffffffffffffffffffffffffffffffffffffffff\n      mul\n      not\n      and\n      swap1\n      dup4\n      0xffffffffffffffffffffffffffffffffffffffff\n      and\n      mul\n      or\n      swap1\n      sstore\n      pop\n        /* \"Learn/AuctionV1.sol\":2030:2031  5 */\n      0x5\n        /* \"Learn/AuctionV1.sol\":1991:1998  bidders */\n      0x1\n        /* \"Learn/AuctionV1.sol\":1999:2010  bidderCount */\n      sload(0x17)\n        /* \"Learn/AuctionV1.sol\":1991:2011  bidders[bidderCount] */\n      0x4\n      dup2\n      lt\n      iszero\n      iszero\n      tag_33\n      jumpi\n      invalid\n    tag_33:\n      0x3\n      mul\n      add\n        /* \"Learn/AuctionV1.sol\":1991:2027  bidders[bidderCount].remainingTokens */\n      0x0\n      add\n        /* \"Learn/AuctionV1.sol\":1991:2031  bidders[bidderCount].remainingTokens = 5 */\n      dup2\n      swap1\n      sstore\n      pop\n        /* \"Learn/AuctionV1.sol\":2085:2092  bidders */\n      0x1\n        /* \"Learn/AuctionV1.sol\":2093:2104  bidderCount */\n      sload(0x17)\n        /* \"Learn/AuctionV1.sol\":2085:2105  bidders[bidderCount] */\n      0x4\n      dup2\n      lt\n      iszero\n      iszero\n      tag_35\n      jumpi\n      invalid\n    tag_35:\n      0x3\n      mul\n      add\n        /* \"Learn/AuctionV1.sol\":2058:2070  tokenDetails */\n      0x0\n        /* \"Learn/AuctionV1.sol\":2058:2082  tokenDetails[msg.sender] */\n      dup1\n        /* \"Learn/AuctionV1.sol\":2071:2081  msg.sender */\n      caller\n        /* \"Learn/AuctionV1.sol\":2058:2082  tokenDetails[msg.sender] */\n      0xffffffffffffffffffffffffffffffffffffffff\n      and\n      0xffffffffffffffffffffffffffffffffffffffff\n      and\n      dup2\n      mstore\n      0x20\n      add\n      swap1\n      dup2\n      mstore\n      0x20\n      add\n      0x0\n      keccak256\n        /* \"Learn/AuctionV1.sol\":2058:2105  tokenDetails[msg.sender] = bidders[bidderCount] */\n      0x0\n      dup3\n      add\n      sload\n      dup2\n      0x0\n      add\n      sstore\n      0x1\n      dup3\n      add\n      sload\n      dup2\n      0x1\n      add\n      sstore\n      0x2\n      dup3\n      add\n      0x0\n      swap1\n      sload\n      swap1\n      0x100\n      exp\n      swap1\n      div\n      0xffffffffffffffffffffffffffffffffffffffff\n      and\n      dup2\n      0x2\n      add\n      exp(0x100, 0x0)\n      dup2\n      sload\n      dup2\n      0xffffffffffffffffffffffffffffffffffffffff\n      mul\n      not\n      and\n      swap1\n      dup4\n      0xffffffffffffffffffffffffffffffffffffffff\n      and\n      mul\n      or\n      swap1\n      sstore\n      pop\n      swap1\n      pop\n      pop\n        /* \"Learn/AuctionV1.sol\":2115:2126  bidderCount */\n      0x17\n      0x0\n        /* \"Learn/AuctionV1.sol\":2115:2128  bidderCount++ */\n      dup2\n      sload\n      dup1\n      swap3\n      swap2\n      swap1\n      0x1\n      add\n      swap2\n      swap1\n      pop\n      sstore\n      pop\n        /* \"Learn/AuctionV1.sol\":1587:2135  function register() public payable {... */\n      jump\t// out\n        /* \"Learn/AuctionV1.sol\":726:752  address public beneficiary */\n    tag_13:\n      0x16\n      0x0\n      swap1\n      sload\n      swap1\n      0x100\n      exp\n      swap1\n      div\n      0xffffffffffffffffffffffffffffffffffffffff\n      and\n      dup2\n      jump\t// out\n        /* \"Learn/AuctionV1.sol\":2141:3858  function bid(uint256 _itemId, uint256 _count) public payable {... */\n    tag_15:\n        /* \"Learn/AuctionV1.sol\":3685:3705  Item storage bidItem */\n      0x0\n        /* \"Learn/AuctionV1.sol\":3737:3746  uint256 i */\n      dup1\n        /* \"Learn/AuctionV1.sol\":3020:3026  _count */\n      dup3\n        /* \"Learn/AuctionV1.sol\":2977:2989  tokenDetails */\n      0x0\n        /* \"Learn/AuctionV1.sol\":2977:3001  tokenDetails[msg.sender] */\n      dup1\n        /* \"Learn/AuctionV1.sol\":2990:3000  msg.sender */\n      caller\n        /* \"Learn/AuctionV1.sol\":2977:3001  tokenDetails[msg.sender] */\n      0xffffffffffffffffffffffffffffffffffffffff\n      and\n      0xffffffffffffffffffffffffffffffffffffffff\n      and\n      dup2\n      mstore\n      0x20\n      add\n      swap1\n      dup2\n      mstore\n      0x20\n      add\n      0x0\n      keccak256\n        /* \"Learn/AuctionV1.sol\":2977:3017  tokenDetails[msg.sender].remainingTokens */\n      0x0\n      add\n      sload\n        /* \"Learn/AuctionV1.sol\":2977:3026  tokenDetails[msg.sender].remainingTokens < _count */\n      lt\n        /* \"Learn/AuctionV1.sol\":2973:3036  if (tokenDetails[msg.sender].remainingTokens < _count) revert() */\n      iszero\n      tag_38\n      jumpi\n        /* \"Learn/AuctionV1.sol\":3028:3036  revert() */\n      0x0\n      dup1\n      revert\n        /* \"Learn/AuctionV1.sol\":2973:3036  if (tokenDetails[msg.sender].remainingTokens < _count) revert() */\n    tag_38:\n        /* \"Learn/AuctionV1.sol\":3094:3095  0 */\n      0x0\n        /* \"Learn/AuctionV1.sol\":3050:3062  tokenDetails */\n      dup1\n        /* \"Learn/AuctionV1.sol\":3050:3074  tokenDetails[msg.sender] */\n      0x0\n        /* \"Learn/AuctionV1.sol\":3063:3073  msg.sender */\n      caller\n        /* \"Learn/AuctionV1.sol\":3050:3074  tokenDetails[msg.sender] */\n      0xffffffffffffffffffffffffffffffffffffffff\n      and\n      0xffffffffffffffffffffffffffffffffffffffff\n      and\n      dup2\n      mstore\n      0x20\n      add\n      swap1\n      dup2\n      mstore\n      0x20\n      add\n      0x0\n      keccak256\n        /* \"Learn/AuctionV1.sol\":3050:3090  tokenDetails[msg.sender].remainingTokens */\n      0x0\n      add\n      sload\n        /* \"Learn/AuctionV1.sol\":3050:3095  tokenDetails[msg.sender].remainingTokens == 0 */\n      eq\n        /* \"Learn/AuctionV1.sol\":3050:3110  tokenDetails[msg.sender].remainingTokens == 0 || _itemId > 2 */\n      dup1\n      tag_39\n      jumpi\n      pop\n        /* \"Learn/AuctionV1.sol\":3109:3110  2 */\n      0x2\n        /* \"Learn/AuctionV1.sol\":3099:3106  _itemId */\n      dup5\n        /* \"Learn/AuctionV1.sol\":3099:3110  _itemId > 2 */\n      gt\n        /* \"Learn/AuctionV1.sol\":3050:3110  tokenDetails[msg.sender].remainingTokens == 0 || _itemId > 2 */\n    tag_39:\n        /* \"Learn/AuctionV1.sol\":3046:3132  if (tokenDetails[msg.sender].remainingTokens == 0 || _itemId > 2)... */\n      iszero\n      tag_40\n      jumpi\n        /* \"Learn/AuctionV1.sol\":3124:3132  revert() */\n      0x0\n      dup1\n      revert\n        /* \"Learn/AuctionV1.sol\":3046:3132  if (tokenDetails[msg.sender].remainingTokens == 0 || _itemId > 2)... */\n    tag_40:\n        /* \"Learn/AuctionV1.sol\":3470:3476  _count */\n      dup3\n        /* \"Learn/AuctionV1.sol\":3426:3438  tokenDetails */\n      0x0\n        /* \"Learn/AuctionV1.sol\":3426:3450  tokenDetails[msg.sender] */\n      dup1\n        /* \"Learn/AuctionV1.sol\":3439:3449  msg.sender */\n      caller\n        /* \"Learn/AuctionV1.sol\":3426:3450  tokenDetails[msg.sender] */\n      0xffffffffffffffffffffffffffffffffffffffff\n      and\n      0xffffffffffffffffffffffffffffffffffffffff\n      and\n      dup2\n      mstore\n      0x20\n      add\n      swap1\n      dup2\n      mstore\n      0x20\n      add\n      0x0\n      keccak256\n        /* \"Learn/AuctionV1.sol\":3426:3466  tokenDetails[msg.sender].remainingTokens */\n      0x0\n      add\n      0x0\n        /* \"Learn/AuctionV1.sol\":3426:3476  tokenDetails[msg.sender].remainingTokens -= _count */\n      dup3\n      dup3\n      sload\n      sub\n      swap3\n      pop\n      pop\n      dup2\n      swap1\n      sstore\n      pop\n        /* \"Learn/AuctionV1.sol\":3591:3603  tokenDetails */\n      0x0\n        /* \"Learn/AuctionV1.sol\":3591:3615  tokenDetails[msg.sender] */\n      dup1\n        /* \"Learn/AuctionV1.sol\":3604:3614  msg.sender */\n      caller\n        /* \"Learn/AuctionV1.sol\":3591:3615  tokenDetails[msg.sender] */\n      0xffffffffffffffffffffffffffffffffffffffff\n      and\n      0xffffffffffffffffffffffffffffffffffffffff\n      and\n      dup2\n      mstore\n      0x20\n      add\n      swap1\n      dup2\n      mstore\n      0x20\n      add\n      0x0\n      keccak256\n        /* \"Learn/AuctionV1.sol\":3591:3631  tokenDetails[msg.sender].remainingTokens */\n      0x0\n      add\n      sload\n        /* \"Learn/AuctionV1.sol\":3517:3524  bidders */\n      0x1\n        /* \"Learn/AuctionV1.sol\":3525:3537  tokenDetails */\n      0x0\n        /* \"Learn/AuctionV1.sol\":3525:3549  tokenDetails[msg.sender] */\n      dup1\n        /* \"Learn/AuctionV1.sol\":3538:3548  msg.sender */\n      caller\n        /* \"Learn/AuctionV1.sol\":3525:3549  tokenDetails[msg.sender] */\n      0xffffffffffffffffffffffffffffffffffffffff\n      and\n      0xffffffffffffffffffffffffffffffffffffffff\n      and\n      dup2\n      mstore\n      0x20\n      add\n      swap1\n      dup2\n      mstore\n      0x20\n      add\n      0x0\n      keccak256\n        /* \"Learn/AuctionV1.sol\":3525:3558  tokenDetails[msg.sender].personId */\n      0x1\n      add\n      sload\n        /* \"Learn/AuctionV1.sol\":3517:3559  bidders[tokenDetails[msg.sender].personId] */\n      0x4\n      dup2\n      lt\n      iszero\n      iszero\n      tag_41\n      jumpi\n      invalid\n    tag_41:\n      0x3\n      mul\n      add\n        /* \"Learn/AuctionV1.sol\":3517:3588  bidders[tokenDetails[msg.sender].personId]... */\n      0x0\n      add\n        /* \"Learn/AuctionV1.sol\":3517:3631  bidders[tokenDetails[msg.sender].personId]... */\n      dup2\n      swap1\n      sstore\n      pop\n        /* \"Learn/AuctionV1.sol\":3708:3713  items */\n      0xd\n        /* \"Learn/AuctionV1.sol\":3714:3721  _itemId */\n      dup5\n        /* \"Learn/AuctionV1.sol\":3708:3722  items[_itemId] */\n      0x3\n      dup2\n      lt\n      iszero\n      iszero\n      tag_43\n      jumpi\n      invalid\n    tag_43:\n      0x2\n      mul\n      add\n        /* \"Learn/AuctionV1.sol\":3685:3722  Item storage bidItem = items[_itemId] */\n      swap2\n      pop\n        /* \"Learn/AuctionV1.sol\":3749:3750  0 */\n      0x0\n        /* \"Learn/AuctionV1.sol\":3737:3750  uint256 i = 0 */\n      swap1\n      pop\n        /* \"Learn/AuctionV1.sol\":3732:3852  for (uint256 i = 0; i < _count; i++) {... */\n    tag_45:\n        /* \"Learn/AuctionV1.sol\":3756:3762  _count */\n      dup3\n        /* \"Learn/AuctionV1.sol\":3752:3753  i */\n      dup2\n        /* \"Learn/AuctionV1.sol\":3752:3762  i < _count */\n      lt\n        /* \"Learn/AuctionV1.sol\":3732:3852  for (uint256 i = 0; i < _count; i++) {... */\n      iszero\n      tag_46\n      jumpi\n        /* \"Learn/AuctionV1.sol\":3783:3790  bidItem */\n      dup2\n        /* \"Learn/AuctionV1.sol\":3783:3801  bidItem.itemTokens */\n      0x1\n      add\n        /* \"Learn/AuctionV1.sol\":3783:3841  bidItem.itemTokens.push(tokenDetails[msg.sender].personId) */\n      dup1\n      sload\n      dup1\n      0x1\n      add\n      dup3\n      dup2\n      tag_48\n      swap2\n      swap1\n      jump\t// in(tag_49)\n    tag_48:\n      swap2\n      0x0\n      mstore\n      keccak256(0x0, 0x20)\n      swap1\n      add\n      0x0\n        /* \"Learn/AuctionV1.sol\":3807:3819  tokenDetails */\n      dup1\n        /* \"Learn/AuctionV1.sol\":3807:3831  tokenDetails[msg.sender] */\n      0x0\n        /* \"Learn/AuctionV1.sol\":3820:3830  msg.sender */\n      caller\n        /* \"Learn/AuctionV1.sol\":3807:3831  tokenDetails[msg.sender] */\n      0xffffffffffffffffffffffffffffffffffffffff\n      and\n      0xffffffffffffffffffffffffffffffffffffffff\n      and\n      dup2\n      mstore\n      0x20\n      add\n      swap1\n      dup2\n      mstore\n      0x20\n      add\n      0x0\n      keccak256\n        /* \"Learn/AuctionV1.sol\":3807:3840  tokenDetails[msg.sender].personId */\n      0x1\n      add\n      sload\n        /* \"Learn/AuctionV1.sol\":3783:3841  bidItem.itemTokens.push(tokenDetails[msg.sender].personId) */\n      swap1\n      swap2\n      swap1\n      swap2\n      pop\n      sstore\n      pop\n        /* \"Learn/AuctionV1.sol\":3764:3767  i++ */\n      dup1\n      dup1\n      0x1\n      add\n      swap2\n      pop\n      pop\n        /* \"Learn/AuctionV1.sol\":3732:3852  for (uint256 i = 0; i < _count; i++) {... */\n      jump(tag_45)\n    tag_46:\n        /* \"Learn/AuctionV1.sol\":2141:3858  function bid(uint256 _itemId, uint256 _count) public payable {... */\n      pop\n      pop\n      pop\n      pop\n      jump\t// out\n        /* \"Learn/AuctionV1.sol\":5081:5384  function getPersonDetails(uint256 id)... */\n    tag_18:\n        /* \"Learn/AuctionV1.sol\":5181:5188  uint256 */\n      0x0\n        /* \"Learn/AuctionV1.sol\":5202:5209  uint256 */\n      dup1\n        /* \"Learn/AuctionV1.sol\":5223:5230  address */\n      0x0\n        /* \"Learn/AuctionV1.sol\":5276:5283  bidders */\n      0x1\n        /* \"Learn/AuctionV1.sol\":5284:5286  id */\n      dup5\n        /* \"Learn/AuctionV1.sol\":5276:5287  bidders[id] */\n      0x4\n      dup2\n      lt\n      iszero\n      iszero\n      tag_52\n      jumpi\n      invalid\n    tag_52:\n      0x3\n      mul\n      add\n        /* \"Learn/AuctionV1.sol\":5276:5303  bidders[id].remainingTokens */\n      0x0\n      add\n      sload\n        /* \"Learn/AuctionV1.sol\":5317:5324  bidders */\n      0x1\n        /* \"Learn/AuctionV1.sol\":5325:5327  id */\n      dup6\n        /* \"Learn/AuctionV1.sol\":5317:5328  bidders[id] */\n      0x4\n      dup2\n      lt\n      iszero\n      iszero\n      tag_54\n      jumpi\n      invalid\n    tag_54:\n      0x3\n      mul\n      add\n        /* \"Learn/AuctionV1.sol\":5317:5337  bidders[id].personId */\n      0x1\n      add\n      sload\n        /* \"Learn/AuctionV1.sol\":5351:5358  bidders */\n      0x1\n        /* \"Learn/AuctionV1.sol\":5359:5361  id */\n      dup7\n        /* \"Learn/AuctionV1.sol\":5351:5362  bidders[id] */\n      0x4\n      dup2\n      lt\n      iszero\n      iszero\n      tag_56\n      jumpi\n      invalid\n    tag_56:\n      0x3\n      mul\n      add\n        /* \"Learn/AuctionV1.sol\":5351:5367  bidders[id].addr */\n      0x2\n      add\n      0x0\n      swap1\n      sload\n      swap1\n      0x100\n      exp\n      swap1\n      div\n      0xffffffffffffffffffffffffffffffffffffffff\n      and\n        /* \"Learn/AuctionV1.sol\":5255:5377  return (... */\n      swap3\n      pop\n      swap3\n      pop\n      swap3\n      pop\n        /* \"Learn/AuctionV1.sol\":5081:5384  function getPersonDetails(uint256 id)... */\n      swap2\n      swap4\n      swap1\n      swap3\n      pop\n      jump\t// out\n        /* \"Learn/AuctionV1.sol\":3864:4978  function revealWinners() public {... */\n    tag_21:\n        /* \"Learn/AuctionV1.sol\":4081:4091  uint256 id */\n      0x0\n        /* \"Learn/AuctionV1.sol\":4125:4149  Item storage currentItem */\n      dup1\n        /* \"Learn/AuctionV1.sol\":4287:4306  uint256 randomIndex */\n      0x0\n        /* \"Learn/AuctionV1.sol\":4492:4508  uint256 winnerId */\n      dup1\n        /* \"Learn/AuctionV1.sol\":4094:4095  0 */\n      0x0\n        /* \"Learn/AuctionV1.sol\":4081:4095  uint256 id = 0 */\n      swap4\n      pop\n        /* \"Learn/AuctionV1.sol\":4076:4972  for (uint256 id = 0; id < 3; id++) {... */\n    tag_59:\n        /* \"Learn/AuctionV1.sol\":4102:4103  3 */\n      0x3\n        /* \"Learn/AuctionV1.sol\":4097:4099  id */\n      dup5\n        /* \"Learn/AuctionV1.sol\":4097:4103  id < 3 */\n      lt\n        /* \"Learn/AuctionV1.sol\":4076:4972  for (uint256 id = 0; id < 3; id++) {... */\n      iszero\n      tag_60\n      jumpi\n        /* \"Learn/AuctionV1.sol\":4152:4157  items */\n      0xd\n        /* \"Learn/AuctionV1.sol\":4158:4160  id */\n      dup5\n        /* \"Learn/AuctionV1.sol\":4152:4161  items[id] */\n      0x3\n      dup2\n      lt\n      iszero\n      iszero\n      tag_62\n      jumpi\n      invalid\n    tag_62:\n      0x2\n      mul\n      add\n        /* \"Learn/AuctionV1.sol\":4125:4161  Item storage currentItem = items[id] */\n      swap3\n      pop\n        /* \"Learn/AuctionV1.sol\":4212:4213  0 */\n      0x0\n        /* \"Learn/AuctionV1.sol\":4179:4190  currentItem */\n      dup4\n        /* \"Learn/AuctionV1.sol\":4179:4201  currentItem.itemTokens */\n      0x1\n      add\n        /* \"Learn/AuctionV1.sol\":4179:4208  currentItem.itemTokens.length */\n      dup1\n      sload\n      swap1\n      pop\n        /* \"Learn/AuctionV1.sol\":4179:4213  currentItem.itemTokens.length != 0 */\n      eq\n      iszero\n        /* \"Learn/AuctionV1.sol\":4175:4962  if (currentItem.itemTokens.length != 0) {... */\n      iszero\n      tag_64\n      jumpi\n        /* \"Learn/AuctionV1.sol\":4398:4409  currentItem */\n      dup3\n        /* \"Learn/AuctionV1.sol\":4398:4420  currentItem.itemTokens */\n      0x1\n      add\n        /* \"Learn/AuctionV1.sol\":4398:4427  currentItem.itemTokens.length */\n      dup1\n      sload\n      swap1\n      pop\n        /* \"Learn/AuctionV1.sol\":4345:4356  currentItem */\n      dup4\n        /* \"Learn/AuctionV1.sol\":4345:4367  currentItem.itemTokens */\n      0x1\n      add\n        /* \"Learn/AuctionV1.sol\":4345:4374  currentItem.itemTokens.length */\n      dup1\n      sload\n      swap1\n      pop\n        /* \"Learn/AuctionV1.sol\":4310:4322  block.number */\n      number\n        /* \"Learn/AuctionV1.sol\":4310:4374  block.number /... */\n      dup2\n      iszero\n      iszero\n      tag_65\n      jumpi\n      invalid\n    tag_65:\n      div\n        /* \"Learn/AuctionV1.sol\":4309:4427  (block.number /... */\n      dup2\n      iszero\n      iszero\n      tag_66\n      jumpi\n      invalid\n    tag_66:\n      mod\n        /* \"Learn/AuctionV1.sol\":4287:4427  uint256 randomIndex = (block.number /... */\n      swap2\n      pop\n        /* \"Learn/AuctionV1.sol\":4511:4522  currentItem */\n      dup3\n        /* \"Learn/AuctionV1.sol\":4511:4533  currentItem.itemTokens */\n      0x1\n      add\n        /* \"Learn/AuctionV1.sol\":4534:4545  randomIndex */\n      dup3\n        /* \"Learn/AuctionV1.sol\":4511:4546  currentItem.itemTokens[randomIndex] */\n      dup2\n      sload\n      dup2\n      lt\n      iszero\n      iszero\n      tag_67\n      jumpi\n      invalid\n    tag_67:\n      swap1\n      0x0\n      mstore\n      keccak256(0x0, 0x20)\n      swap1\n      add\n      sload\n        /* \"Learn/AuctionV1.sol\":4492:4546  uint256 winnerId = currentItem.itemTokens[randomIndex] */\n      swap1\n      pop\n        /* \"Learn/AuctionV1.sol\":4900:4907  winners */\n      0x13\n        /* \"Learn/AuctionV1.sol\":4908:4910  id */\n      dup5\n        /* \"Learn/AuctionV1.sol\":4900:4911  winners[id] */\n      0x3\n      dup2\n      lt\n      iszero\n      iszero\n      tag_69\n      jumpi\n      invalid\n    tag_69:\n      add\n      0x0\n      swap1\n      sload\n      swap1\n      0x100\n      exp\n      swap1\n      div\n      0xffffffffffffffffffffffffffffffffffffffff\n      and\n        /* \"Learn/AuctionV1.sol\":4875:4882  bidders */\n      0x1\n        /* \"Learn/AuctionV1.sol\":4883:4891  winnerId */\n      dup3\n        /* \"Learn/AuctionV1.sol\":4875:4892  bidders[winnerId] */\n      0x4\n      dup2\n      lt\n      iszero\n      iszero\n      tag_71\n      jumpi\n      invalid\n    tag_71:\n      0x3\n      mul\n      add\n        /* \"Learn/AuctionV1.sol\":4875:4897  bidders[winnerId].addr */\n      0x2\n      add\n      0x0\n        /* \"Learn/AuctionV1.sol\":4875:4911  bidders[winnerId].addr = winners[id] */\n      0x100\n      exp\n      dup2\n      sload\n      dup2\n      0xffffffffffffffffffffffffffffffffffffffff\n      mul\n      not\n      and\n      swap1\n      dup4\n      0xffffffffffffffffffffffffffffffffffffffff\n      and\n      mul\n      or\n      swap1\n      sstore\n      pop\n        /* \"Learn/AuctionV1.sol\":4175:4962  if (currentItem.itemTokens.length != 0) {... */\n    tag_64:\n        /* \"Learn/AuctionV1.sol\":4105:4109  id++ */\n      dup4\n      dup1\n      0x1\n      add\n      swap5\n      pop\n      pop\n        /* \"Learn/AuctionV1.sol\":4076:4972  for (uint256 id = 0; id < 3; id++) {... */\n      jump(tag_59)\n    tag_60:\n        /* \"Learn/AuctionV1.sol\":3864:4978  function revealWinners() public {... */\n      pop\n      pop\n      pop\n      pop\n      jump\t// out\n        /* \"Learn/AuctionV1.sol\":664:689  address[3] public winners */\n    tag_24:\n      0x13\n      dup2\n      0x3\n      dup2\n      lt\n      iszero\n      iszero\n      tag_73\n      jumpi\n      invalid\n    tag_73:\n      add\n      0x0\n      swap2\n      pop\n      sload\n      swap1\n      0x100\n      exp\n      swap1\n      div\n      0xffffffffffffffffffffffffffffffffffffffff\n      and\n      dup2\n      jump\t// out\n        /* \"Learn/AuctionV1.sol\":604:624  Item[3] public items */\n    tag_27:\n      0xd\n      dup2\n      0x3\n      dup2\n      lt\n      iszero\n      iszero\n      tag_75\n      jumpi\n      invalid\n    tag_75:\n      0x2\n      mul\n      add\n      0x0\n      swap2\n      pop\n      swap1\n      pop\n      dup1\n      0x0\n      add\n      sload\n      swap1\n      pop\n      dup2\n      jump\t// out\n        /* \"Learn/AuctionV1.sol\":26:5386  contract Auction {... */\n    tag_49:\n      dup2\n      sload\n      dup2\n      dup4\n      sstore\n      dup2\n      dup2\n      iszero\n      gt\n      tag_77\n      jumpi\n      dup2\n      dup4\n      0x0\n      mstore\n      keccak256(0x0, 0x20)\n      swap2\n      dup3\n      add\n      swap2\n      add\n      tag_78\n      swap2\n      swap1\n      jump\t// in(tag_79)\n    tag_78:\n    tag_77:\n      pop\n      pop\n      pop\n      jump\t// out\n    tag_79:\n      tag_80\n      swap2\n      swap1\n    tag_81:\n      dup1\n      dup3\n      gt\n      iszero\n      tag_82\n      jumpi\n      0x0\n      dup2\n      0x0\n      swap1\n      sstore\n      pop\n      0x1\n      add\n      jump(tag_81)\n    tag_82:\n      pop\n      swap1\n      jump\n    tag_80:\n      swap1\n      jump\t// out\n\n    auxdata: 0xa165627a7a723058202c58275580ae5a0186e33867b3875bc0a63241e2ba4b48460b6fef30a3f0dfc60029\n}\n",
				"bytecode": {
					"linkReferences": {},
					"object": "60606040526000601755610011610154565b33601660006101000a81548173ffffffffffffffffffffffffffffffffffffffff021916908373ffffffffffffffffffffffffffffffffffffffff16021790555060408051908101604052806000815260200182815250600d600060038110151561007857fe5b600202016000820151816000015560208201518160010190805190602001906100a2929190610168565b5090505060408051908101604052806001815260200182815250600d60016003811015156100cc57fe5b600202016000820151816000015560208201518160010190805190602001906100f6929190610168565b5090505060408051908101604052806002815260200182815250600d600260038110151561012057fe5b6002020160008201518160000155602082015181600101908051906020019061014a929190610168565b50905050506101da565b602060405190810160405280600081525090565b8280548282559060005260206000209081019282156101a4579160200282015b828111156101a3578251825591602001919060010190610188565b5b5090506101b191906101b5565b5090565b6101d791905b808211156101d35760008160009055506001016101bb565b5090565b90565b610862806101e96000396000f30060606040523615610081576000357c0100000000000000000000000000000000000000000000000000000000900463ffffffff1680631aa3a0081461008657806338af3eed14610090578063598647f8146100e55780636098170514610106578063952587d614610177578063a2fb11751461018c578063bfb231d2146101ef575b600080fd5b61008e610226565b005b341561009b57600080fd5b6100a361039f565b604051808273ffffffffffffffffffffffffffffffffffffffff1673ffffffffffffffffffffffffffffffffffffffff16815260200191505060405180910390f35b61010460048080359060200190919080359060200190919050506103c5565b005b341561011157600080fd5b61012760048080359060200190919050506105fd565b604051808481526020018381526020018273ffffffffffffffffffffffffffffffffffffffff1673ffffffffffffffffffffffffffffffffffffffff168152602001935050505060405180910390f35b341561018257600080fd5b61018a610674565b005b341561019757600080fd5b6101ad600480803590602001909190505061078d565b604051808273ffffffffffffffffffffffffffffffffffffffff1673ffffffffffffffffffffffffffffffffffffffff16815260200191505060405180910390f35b34156101fa57600080fd5b61021060048080359060200190919050506107c2565b6040518082815260200191505060405180910390f35b601754600160175460048110151561023a57fe5b600302016001018190555033600160175460048110151561025757fe5b6003020160020160006101000a81548173ffffffffffffffffffffffffffffffffffffffff021916908373ffffffffffffffffffffffffffffffffffffffff160217905550600560016017546004811015156102af57fe5b600302016000018190555060016017546004811015156102cb57fe5b600302016000803373ffffffffffffffffffffffffffffffffffffffff1673ffffffffffffffffffffffffffffffffffffffff16815260200190815260200160002060008201548160000155600182015481600101556002820160009054906101000a900473ffffffffffffffffffffffffffffffffffffffff168160020160006101000a81548173ffffffffffffffffffffffffffffffffffffffff021916908373ffffffffffffffffffffffffffffffffffffffff160217905550905050601760008154809291906001019190505550565b601660009054906101000a900473ffffffffffffffffffffffffffffffffffffffff1681565b600080826000803373ffffffffffffffffffffffffffffffffffffffff1673ffffffffffffffffffffffffffffffffffffffff16815260200190815260200160002060000154101561041657600080fd5b60008060003373ffffffffffffffffffffffffffffffffffffffff1673ffffffffffffffffffffffffffffffffffffffff1681526020019081526020016000206000015414806104665750600284115b1561047057600080fd5b826000803373ffffffffffffffffffffffffffffffffffffffff1673ffffffffffffffffffffffffffffffffffffffff168152602001908152602001600020600001600082825403925050819055506000803373ffffffffffffffffffffffffffffffffffffffff1673ffffffffffffffffffffffffffffffffffffffff1681526020019081526020016000206000015460016000803373ffffffffffffffffffffffffffffffffffffffff1673ffffffffffffffffffffffffffffffffffffffff1681526020019081526020016000206001015460048110151561055157fe5b6003020160000181905550600d8460038110151561056b57fe5b600202019150600090505b828110156105f75781600101805480600101828161059491906107e5565b916000526020600020900160008060003373ffffffffffffffffffffffffffffffffffffffff1673ffffffffffffffffffffffffffffffffffffffff16815260200190815260200160002060010154909190915055508080600101915050610576565b50505050565b600080600060018460048110151561061157fe5b600302016000015460018560048110151561062857fe5b600302016001015460018660048110151561063f57fe5b6003020160020160009054906101000a900473ffffffffffffffffffffffffffffffffffffffff169250925092509193909250565b600080600080600093505b600384101561078757600d8460038110151561069757fe5b6002020192506000836001018054905014151561077a5782600101805490508360010180549050438115156106c857fe5b048115156106d257fe5b06915082600101828154811015156106e657fe5b906000526020600020900154905060138460038110151561070357fe5b0160009054906101000a900473ffffffffffffffffffffffffffffffffffffffff1660018260048110151561073457fe5b6003020160020160006101000a81548173ffffffffffffffffffffffffffffffffffffffff021916908373ffffffffffffffffffffffffffffffffffffffff1602179055505b838060010194505061067f565b50505050565b60138160038110151561079c57fe5b016000915054906101000a900473ffffffffffffffffffffffffffffffffffffffff1681565b600d816003811015156107d157fe5b600202016000915090508060000154905081565b81548183558181151161080c5781836000526020600020918201910161080b9190610811565b5b505050565b61083391905b8082111561082f576000816000905550600101610817565b5090565b905600a165627a7a723058202c58275580ae5a0186e33867b3875bc0a63241e2ba4b48460b6fef30a3f0dfc60029",
					"opcodes": "PUSH1 0x60 PUSH1 0x40 MSTORE PUSH1 0x0 PUSH1 0x17 SSTORE PUSH2 0x11 PUSH2 0x154 JUMP JUMPDEST CALLER PUSH1 0x16 PUSH1 0x0 PUSH2 0x100 EXP DUP2 SLOAD DUP2 PUSH20 0xFFFFFFFFFFFFFFFFFFFFFFFFFFFFFFFFFFFFFFFF MUL NOT AND SWAP1 DUP4 PUSH20 0xFFFFFFFFFFFFFFFFFFFFFFFFFFFFFFFFFFFFFFFF AND MUL OR SWAP1 SSTORE POP PUSH1 0x40 DUP1 MLOAD SWAP1 DUP2 ADD PUSH1 0x40 MSTORE DUP1 PUSH1 0x0 DUP2 MSTORE PUSH1 0x20 ADD DUP3 DUP2 MSTORE POP PUSH1 0xD PUSH1 0x0 PUSH1 0x3 DUP2 LT ISZERO ISZERO PUSH2 0x78 JUMPI INVALID JUMPDEST PUSH1 0x2 MUL ADD PUSH1 0x0 DUP3 ADD MLOAD DUP2 PUSH1 0x0 ADD SSTORE PUSH1 0x20 DUP3 ADD MLOAD DUP2 PUSH1 0x1 ADD SWAP1 DUP1 MLOAD SWAP1 PUSH1 0x20 ADD SWAP1 PUSH2 0xA2 SWAP3 SWAP2 SWAP1 PUSH2 0x168 JUMP JUMPDEST POP SWAP1 POP POP PUSH1 0x40 DUP1 MLOAD SWAP1 DUP2 ADD PUSH1 0x40 MSTORE DUP1 PUSH1 0x1 DUP2 MSTORE PUSH1 0x20 ADD DUP3 DUP2 MSTORE POP PUSH1 0xD PUSH1 0x1 PUSH1 0x3 DUP2 LT ISZERO ISZERO PUSH2 0xCC JUMPI INVALID JUMPDEST PUSH1 0x2 MUL ADD PUSH1 0x0 DUP3 ADD MLOAD DUP2 PUSH1 0x0 ADD SSTORE PUSH1 0x20 DUP3 ADD MLOAD DUP2 PUSH1 0x1 ADD SWAP1 DUP1 MLOAD SWAP1 PUSH1 0x20 ADD SWAP1 PUSH2 0xF6 SWAP3 SWAP2 SWAP1 PUSH2 0x168 JUMP JUMPDEST POP SWAP1 POP POP PUSH1 0x40 DUP1 MLOAD SWAP1 DUP2 ADD PUSH1 0x40 MSTORE DUP1 PUSH1 0x2 DUP2 MSTORE PUSH1 0x20 ADD DUP3 DUP2 MSTORE POP PUSH1 0xD PUSH1 0x2 PUSH1 0x3 DUP2 LT ISZERO ISZERO PUSH2 0x120 JUMPI INVALID JUMPDEST PUSH1 0x2 MUL ADD PUSH1 0x0 DUP3 ADD MLOAD DUP2 PUSH1 0x0 ADD SSTORE PUSH1 0x20 DUP3 ADD MLOAD DUP2 PUSH1 0x1 ADD SWAP1 DUP1 MLOAD SWAP1 PUSH1 0x20 ADD SWAP1 PUSH2 0x14A SWAP3 SWAP2 SWAP1 PUSH2 0x168 JUMP JUMPDEST POP SWAP1 POP POP POP PUSH2 0x1DA JUMP JUMPDEST PUSH1 0x20 PUSH1 0x40 MLOAD SWAP1 DUP2 ADD PUSH1 0x40 MSTORE DUP1 PUSH1 0x0 DUP2 MSTORE POP SWAP1 JUMP JUMPDEST DUP3 DUP1 SLOAD DUP3 DUP3 SSTORE SWAP1 PUSH1 0x0 MSTORE PUSH1 0x20 PUSH1 0x0 KECCAK256 SWAP1 DUP2 ADD SWAP3 DUP3 ISZERO PUSH2 0x1A4 JUMPI SWAP2 PUSH1 0x20 MUL DUP3 ADD JUMPDEST DUP3 DUP2 GT ISZERO PUSH2 0x1A3 JUMPI DUP3 MLOAD DUP3 SSTORE SWAP2 PUSH1 0x20 ADD SWAP2 SWAP1 PUSH1 0x1 ADD SWAP1 PUSH2 0x188 JUMP JUMPDEST JUMPDEST POP SWAP1 POP PUSH2 0x1B1 SWAP2 SWAP1 PUSH2 0x1B5 JUMP JUMPDEST POP SWAP1 JUMP JUMPDEST PUSH2 0x1D7 SWAP2 SWAP1 JUMPDEST DUP1 DUP3 GT ISZERO PUSH2 0x1D3 JUMPI PUSH1 0x0 DUP2 PUSH1 0x0 SWAP1 SSTORE POP PUSH1 0x1 ADD PUSH2 0x1BB JUMP JUMPDEST POP SWAP1 JUMP JUMPDEST SWAP1 JUMP JUMPDEST PUSH2 0x862 DUP1 PUSH2 0x1E9 PUSH1 0x0 CODECOPY PUSH1 0x0 RETURN STOP PUSH1 0x60 PUSH1 0x40 MSTORE CALLDATASIZE ISZERO PUSH2 0x81 JUMPI PUSH1 0x0 CALLDATALOAD PUSH29 0x100000000000000000000000000000000000000000000000000000000 SWAP1 DIV PUSH4 0xFFFFFFFF AND DUP1 PUSH4 0x1AA3A008 EQ PUSH2 0x86 JUMPI DUP1 PUSH4 0x38AF3EED EQ PUSH2 0x90 JUMPI DUP1 PUSH4 0x598647F8 EQ PUSH2 0xE5 JUMPI DUP1 PUSH4 0x60981705 EQ PUSH2 0x106 JUMPI DUP1 PUSH4 0x952587D6 EQ PUSH2 0x177 JUMPI DUP1 PUSH4 0xA2FB1175 EQ PUSH2 0x18C JUMPI DUP1 PUSH4 0xBFB231D2 EQ PUSH2 0x1EF JUMPI JUMPDEST PUSH1 0x0 DUP1 REVERT JUMPDEST PUSH2 0x8E PUSH2 0x226 JUMP JUMPDEST STOP JUMPDEST CALLVALUE ISZERO PUSH2 0x9B JUMPI PUSH1 0x0 DUP1 REVERT JUMPDEST PUSH2 0xA3 PUSH2 0x39F JUMP JUMPDEST PUSH1 0x40 MLOAD DUP1 DUP3 PUSH20 0xFFFFFFFFFFFFFFFFFFFFFFFFFFFFFFFFFFFFFFFF AND PUSH20 0xFFFFFFFFFFFFFFFFFFFFFFFFFFFFFFFFFFFFFFFF AND DUP2 MSTORE PUSH1 0x20 ADD SWAP2 POP POP PUSH1 0x40 MLOAD DUP1 SWAP2 SUB SWAP1 RETURN JUMPDEST PUSH2 0x104 PUSH1 0x4 DUP1 DUP1 CALLDATALOAD SWAP1 PUSH1 0x20 ADD SWAP1 SWAP2 SWAP1 DUP1 CALLDATALOAD SWAP1 PUSH1 0x20 ADD SWAP1 SWAP2 SWAP1 POP POP PUSH2 0x3C5 JUMP JUMPDEST STOP JUMPDEST CALLVALUE ISZERO PUSH2 0x111 JUMPI PUSH1 0x0 DUP1 REVERT JUMPDEST PUSH2 0x127 PUSH1 0x4 DUP1 DUP1 CALLDATALOAD SWAP1 PUSH1 0x20 ADD SWAP1 SWAP2 SWAP1 POP POP PUSH2 0x5FD JUMP JUMPDEST PUSH1 0x40 MLOAD DUP1 DUP5 DUP2 MSTORE PUSH1 0x20 ADD DUP4 DUP2 MSTORE PUSH1 0x20 ADD DUP3 PUSH20 0xFFFFFFFFFFFFFFFFFFFFFFFFFFFFFFFFFFFFFFFF AND PUSH20 0xFFFFFFFFFFFFFFFFFFFFFFFFFFFFFFFFFFFFFFFF AND DUP2 MSTORE PUSH1 0x20 ADD SWAP4 POP POP POP POP PUSH1 0x40 MLOAD DUP1 SWAP2 SUB SWAP1 RETURN JUMPDEST CALLVALUE ISZERO PUSH2 0x182 JUMPI PUSH1 0x0 DUP1 REVERT JUMPDEST PUSH2 0x18A PUSH2 0x674 JUMP JUMPDEST STOP JUMPDEST CALLVALUE ISZERO PUSH2 0x197 JUMPI PUSH1 0x0 DUP1 REVERT JUMPDEST PUSH2 0x1AD PUSH1 0x4 DUP1 DUP1 CALLDATALOAD SWAP1 PUSH1 0x20 ADD SWAP1 SWAP2 SWAP1 POP POP PUSH2 0x78D JUMP JUMPDEST PUSH1 0x40 MLOAD DUP1 DUP3 PUSH20 0xFFFFFFFFFFFFFFFFFFFFFFFFFFFFFFFFFFFFFFFF AND PUSH20 0xFFFFFFFFFFFFFFFFFFFFFFFFFFFFFFFFFFFFFFFF AND DUP2 MSTORE PUSH1 0x20 ADD SWAP2 POP POP PUSH1 0x40 MLOAD DUP1 SWAP2 SUB SWAP1 RETURN JUMPDEST CALLVALUE ISZERO PUSH2 0x1FA JUMPI PUSH1 0x0 DUP1 REVERT JUMPDEST PUSH2 0x210 PUSH1 0x4 DUP1 DUP1 CALLDATALOAD SWAP1 PUSH1 0x20 ADD SWAP1 SWAP2 SWAP1 POP POP PUSH2 0x7C2 JUMP JUMPDEST PUSH1 0x40 MLOAD DUP1 DUP3 DUP2 MSTORE PUSH1 0x20 ADD SWAP2 POP POP PUSH1 0x40 MLOAD DUP1 SWAP2 SUB SWAP1 RETURN JUMPDEST PUSH1 0x17 SLOAD PUSH1 0x1 PUSH1 0x17 SLOAD PUSH1 0x4 DUP2 LT ISZERO ISZERO PUSH2 0x23A JUMPI INVALID JUMPDEST PUSH1 0x3 MUL ADD PUSH1 0x1 ADD DUP2 SWAP1 SSTORE POP CALLER PUSH1 0x1 PUSH1 0x17 SLOAD PUSH1 0x4 DUP2 LT ISZERO ISZERO PUSH2 0x257 JUMPI INVALID JUMPDEST PUSH1 0x3 MUL ADD PUSH1 0x2 ADD PUSH1 0x0 PUSH2 0x100 EXP DUP2 SLOAD DUP2 PUSH20 0xFFFFFFFFFFFFFFFFFFFFFFFFFFFFFFFFFFFFFFFF MUL NOT AND SWAP1 DUP4 PUSH20 0xFFFFFFFFFFFFFFFFFFFFFFFFFFFFFFFFFFFFFFFF AND MUL OR SWAP1 SSTORE POP PUSH1 0x5 PUSH1 0x1 PUSH1 0x17 SLOAD PUSH1 0x4 DUP2 LT ISZERO ISZERO PUSH2 0x2AF JUMPI INVALID JUMPDEST PUSH1 0x3 MUL ADD PUSH1 0x0 ADD DUP2 SWAP1 SSTORE POP PUSH1 0x1 PUSH1 0x17 SLOAD PUSH1 0x4 DUP2 LT ISZERO ISZERO PUSH2 0x2CB JUMPI INVALID JUMPDEST PUSH1 0x3 MUL ADD PUSH1 0x0 DUP1 CALLER PUSH20 0xFFFFFFFFFFFFFFFFFFFFFFFFFFFFFFFFFFFFFFFF AND PUSH20 0xFFFFFFFFFFFFFFFFFFFFFFFFFFFFFFFFFFFFFFFF AND DUP2 MSTORE PUSH1 0x20 ADD SWAP1 DUP2 MSTORE PUSH1 0x20 ADD PUSH1 0x0 KECCAK256 PUSH1 0x0 DUP3 ADD SLOAD DUP2 PUSH1 0x0 ADD SSTORE PUSH1 0x1 DUP3 ADD SLOAD DUP2 PUSH1 0x1 ADD SSTORE PUSH1 0x2 DUP3 ADD PUSH1 0x0 SWAP1 SLOAD SWAP1 PUSH2 0x100 EXP SWAP1 DIV PUSH20 0xFFFFFFFFFFFFFFFFFFFFFFFFFFFFFFFFFFFFFFFF AND DUP2 PUSH1 0x2 ADD PUSH1 0x0 PUSH2 0x100 EXP DUP2 SLOAD DUP2 PUSH20 0xFFFFFFFFFFFFFFFFFFFFFFFFFFFFFFFFFFFFFFFF MUL NOT AND SWAP1 DUP4 PUSH20 0xFFFFFFFFFFFFFFFFFFFFFFFFFFFFFFFFFFFFFFFF AND MUL OR SWAP1 SSTORE POP SWAP1 POP POP PUSH1 0x17 PUSH1 0x0 DUP2 SLOAD DUP1 SWAP3 SWAP2 SWAP1 PUSH1 0x1 ADD SWAP2 SWAP1 POP SSTORE POP JUMP JUMPDEST PUSH1 0x16 PUSH1 0x0 SWAP1 SLOAD SWAP1 PUSH2 0x100 EXP SWAP1 DIV PUSH20 0xFFFFFFFFFFFFFFFFFFFFFFFFFFFFFFFFFFFFFFFF AND DUP2 JUMP JUMPDEST PUSH1 0x0 DUP1 DUP3 PUSH1 0x0 DUP1 CALLER PUSH20 0xFFFFFFFFFFFFFFFFFFFFFFFFFFFFFFFFFFFFFFFF AND PUSH20 0xFFFFFFFFFFFFFFFFFFFFFFFFFFFFFFFFFFFFFFFF AND DUP2 MSTORE PUSH1 0x20 ADD SWAP1 DUP2 MSTORE PUSH1 0x20 ADD PUSH1 0x0 KECCAK256 PUSH1 0x0 ADD SLOAD LT ISZERO PUSH2 0x416 JUMPI PUSH1 0x0 DUP1 REVERT JUMPDEST PUSH1 0x0 DUP1 PUSH1 0x0 CALLER PUSH20 0xFFFFFFFFFFFFFFFFFFFFFFFFFFFFFFFFFFFFFFFF AND PUSH20 0xFFFFFFFFFFFFFFFFFFFFFFFFFFFFFFFFFFFFFFFF AND DUP2 MSTORE PUSH1 0x20 ADD SWAP1 DUP2 MSTORE PUSH1 0x20 ADD PUSH1 0x0 KECCAK256 PUSH1 0x0 ADD SLOAD EQ DUP1 PUSH2 0x466 JUMPI POP PUSH1 0x2 DUP5 GT JUMPDEST ISZERO PUSH2 0x470 JUMPI PUSH1 0x0 DUP1 REVERT JUMPDEST DUP3 PUSH1 0x0 DUP1 CALLER PUSH20 0xFFFFFFFFFFFFFFFFFFFFFFFFFFFFFFFFFFFFFFFF AND PUSH20 0xFFFFFFFFFFFFFFFFFFFFFFFFFFFFFFFFFFFFFFFF AND DUP2 MSTORE PUSH1 0x20 ADD SWAP1 DUP2 MSTORE PUSH1 0x20 ADD PUSH1 0x0 KECCAK256 PUSH1 0x0 ADD PUSH1 0x0 DUP3 DUP3 SLOAD SUB SWAP3 POP POP DUP2 SWAP1 SSTORE POP PUSH1 0x0 DUP1 CALLER PUSH20 0xFFFFFFFFFFFFFFFFFFFFFFFFFFFFFFFFFFFFFFFF AND PUSH20 0xFFFFFFFFFFFFFFFFFFFFFFFFFFFFFFFFFFFFFFFF AND DUP2 MSTORE PUSH1 0x20 ADD SWAP1 DUP2 MSTORE PUSH1 0x20 ADD PUSH1 0x0 KECCAK256 PUSH1 0x0 ADD SLOAD PUSH1 0x1 PUSH1 0x0 DUP1 CALLER PUSH20 0xFFFFFFFFFFFFFFFFFFFFFFFFFFFFFFFFFFFFFFFF AND PUSH20 0xFFFFFFFFFFFFFFFFFFFFFFFFFFFFFFFFFFFFFFFF AND DUP2 MSTORE PUSH1 0x20 ADD SWAP1 DUP2 MSTORE PUSH1 0x20 ADD PUSH1 0x0 KECCAK256 PUSH1 0x1 ADD SLOAD PUSH1 0x4 DUP2 LT ISZERO ISZERO PUSH2 0x551 JUMPI INVALID JUMPDEST PUSH1 0x3 MUL ADD PUSH1 0x0 ADD DUP2 SWAP1 SSTORE POP PUSH1 0xD DUP5 PUSH1 0x3 DUP2 LT ISZERO ISZERO PUSH2 0x56B JUMPI INVALID JUMPDEST PUSH1 0x2 MUL ADD SWAP2 POP PUSH1 0x0 SWAP1 POP JUMPDEST DUP3 DUP2 LT ISZERO PUSH2 0x5F7 JUMPI DUP2 PUSH1 0x1 ADD DUP1 SLOAD DUP1 PUSH1 0x1 ADD DUP3 DUP2 PUSH2 0x594 SWAP2 SWAP1 PUSH2 0x7E5 JUMP JUMPDEST SWAP2 PUSH1 0x0 MSTORE PUSH1 0x20 PUSH1 0x0 KECCAK256 SWAP1 ADD PUSH1 0x0 DUP1 PUSH1 0x0 CALLER PUSH20 0xFFFFFFFFFFFFFFFFFFFFFFFFFFFFFFFFFFFFFFFF AND PUSH20 0xFFFFFFFFFFFFFFFFFFFFFFFFFFFFFFFFFFFFFFFF AND DUP2 MSTORE PUSH1 0x20 ADD SWAP1 DUP2 MSTORE PUSH1 0x20 ADD PUSH1 0x0 KECCAK256 PUSH1 0x1 ADD SLOAD SWAP1 SWAP2 SWAP1 SWAP2 POP SSTORE POP DUP1 DUP1 PUSH1 0x1 ADD SWAP2 POP POP PUSH2 0x576 JUMP JUMPDEST POP POP POP POP JUMP JUMPDEST PUSH1 0x0 DUP1 PUSH1 0x0 PUSH1 0x1 DUP5 PUSH1 0x4 DUP2 LT ISZERO ISZERO PUSH2 0x611 JUMPI INVALID JUMPDEST PUSH1 0x3 MUL ADD PUSH1 0x0 ADD SLOAD PUSH1 0x1 DUP6 PUSH1 0x4 DUP2 LT ISZERO ISZERO PUSH2 0x628 JUMPI INVALID JUMPDEST PUSH1 0x3 MUL ADD PUSH1 0x1 ADD SLOAD PUSH1 0x1 DUP7 PUSH1 0x4 DUP2 LT ISZERO ISZERO PUSH2 0x63F JUMPI INVALID JUMPDEST PUSH1 0x3 MUL ADD PUSH1 0x2 ADD PUSH1 0x0 SWAP1 SLOAD SWAP1 PUSH2 0x100 EXP SWAP1 DIV PUSH20 0xFFFFFFFFFFFFFFFFFFFFFFFFFFFFFFFFFFFFFFFF AND SWAP3 POP SWAP3 POP SWAP3 POP SWAP2 SWAP4 SWAP1 SWAP3 POP JUMP JUMPDEST PUSH1 0x0 DUP1 PUSH1 0x0 DUP1 PUSH1 0x0 SWAP4 POP JUMPDEST PUSH1 0x3 DUP5 LT ISZERO PUSH2 0x787 JUMPI PUSH1 0xD DUP5 PUSH1 0x3 DUP2 LT ISZERO ISZERO PUSH2 0x697 JUMPI INVALID JUMPDEST PUSH1 0x2 MUL ADD SWAP3 POP PUSH1 0x0 DUP4 PUSH1 0x1 ADD DUP1 SLOAD SWAP1 POP EQ ISZERO ISZERO PUSH2 0x77A JUMPI DUP3 PUSH1 0x1 ADD DUP1 SLOAD SWAP1 POP DUP4 PUSH1 0x1 ADD DUP1 SLOAD SWAP1 POP NUMBER DUP2 ISZERO ISZERO PUSH2 0x6C8 JUMPI INVALID JUMPDEST DIV DUP2 ISZERO ISZERO PUSH2 0x6D2 JUMPI INVALID JUMPDEST MOD SWAP2 POP DUP3 PUSH1 0x1 ADD DUP3 DUP2 SLOAD DUP2 LT ISZERO ISZERO PUSH2 0x6E6 JUMPI INVALID JUMPDEST SWAP1 PUSH1 0x0 MSTORE PUSH1 0x20 PUSH1 0x0 KECCAK256 SWAP1 ADD SLOAD SWAP1 POP PUSH1 0x13 DUP5 PUSH1 0x3 DUP2 LT ISZERO ISZERO PUSH2 0x703 JUMPI INVALID JUMPDEST ADD PUSH1 0x0 SWAP1 SLOAD SWAP1 PUSH2 0x100 EXP SWAP1 DIV PUSH20 0xFFFFFFFFFFFFFFFFFFFFFFFFFFFFFFFFFFFFFFFF AND PUSH1 0x1 DUP3 PUSH1 0x4 DUP2 LT ISZERO ISZERO PUSH2 0x734 JUMPI INVALID JUMPDEST PUSH1 0x3 MUL ADD PUSH1 0x2 ADD PUSH1 0x0 PUSH2 0x100 EXP DUP2 SLOAD DUP2 PUSH20 0xFFFFFFFFFFFFFFFFFFFFFFFFFFFFFFFFFFFFFFFF MUL NOT AND SWAP1 DUP4 PUSH20 0xFFFFFFFFFFFFFFFFFFFFFFFFFFFFFFFFFFFFFFFF AND MUL OR SWAP1 SSTORE POP JUMPDEST DUP4 DUP1 PUSH1 0x1 ADD SWAP5 POP POP PUSH2 0x67F JUMP JUMPDEST POP POP POP POP JUMP JUMPDEST PUSH1 0x13 DUP2 PUSH1 0x3 DUP2 LT ISZERO ISZERO PUSH2 0x79C JUMPI INVALID JUMPDEST ADD PUSH1 0x0 SWAP2 POP SLOAD SWAP1 PUSH2 0x100 EXP SWAP1 DIV PUSH20 0xFFFFFFFFFFFFFFFFFFFFFFFFFFFFFFFFFFFFFFFF AND DUP2 JUMP JUMPDEST PUSH1 0xD DUP2 PUSH1 0x3 DUP2 LT ISZERO ISZERO PUSH2 0x7D1 JUMPI INVALID JUMPDEST PUSH1 0x2 MUL ADD PUSH1 0x0 SWAP2 POP SWAP1 POP DUP1 PUSH1 0x0 ADD SLOAD SWAP1 POP DUP2 JUMP JUMPDEST DUP2 SLOAD DUP2 DUP4 SSTORE DUP2 DUP2 ISZERO GT PUSH2 0x80C JUMPI DUP2 DUP4 PUSH1 0x0 MSTORE PUSH1 0x20 PUSH1 0x0 KECCAK256 SWAP2 DUP3 ADD SWAP2 ADD PUSH2 0x80B SWAP2 SWAP1 PUSH2 0x811 JUMP JUMPDEST JUMPDEST POP POP POP JUMP JUMPDEST PUSH2 0x833 SWAP2 SWAP1 JUMPDEST DUP1 DUP3 GT ISZERO PUSH2 0x82F JUMPI PUSH1 0x0 DUP2 PUSH1 0x0 SWAP1 SSTORE POP PUSH1 0x1 ADD PUSH2 0x817 JUMP JUMPDEST POP SWAP1 JUMP JUMPDEST SWAP1 JUMP STOP LOG1 PUSH6 0x627A7A723058 KECCAK256 0x2c PC 0x27 SSTORE DUP1 0xae GAS ADD DUP7 0xe3 CODESIZE PUSH8 0xB3875BC0A63241E2 0xba 0x4b 0x48 0x46 SIGNEXTEND PUSH16 0xEF30A3F0DFC600290000000000000000 "
				},
				"gasEstimates": {
					"creation": {
						"codeDepositCost": "429200",
						"executionCost": "infinite",
						"totalCost": "infinite"
					},
					"external": {
						"beneficiary()": "453",
						"bid(uint256,uint256)": "infinite",
						"getPersonDetails(uint256)": "1159",
						"items(uint256)": "619",
						"register()": "142880",
						"revealWinners()": "infinite",
						"winners(uint256)": "612"
					}
				},
				"methodIdentifiers": {
					"beneficiary()": "38af3eed",
					"bid(uint256,uint256)": "598647f8",
					"getPersonDetails(uint256)": "60981705",
					"items(uint256)": "bfb231d2",
					"register()": "1aa3a008",
					"revealWinners()": "952587d6",
					"winners(uint256)": "a2fb1175"
				}
			},
			"userdoc": {
				"methods": {}
			}
		}
	}
}