{
	"Learn/BallotWithStages.sol": {
		"Ballot": {
			"abi": [
				{
					"constant": false,
					"inputs": [
						{
							"name": "toVoter",
							"type": "address"
						}
					],
					"name": "register",
					"outputs": [],
					"payable": false,
					"type": "function",
					"stateMutability": "nonpayable"
				},
				{
					"constant": true,
					"inputs": [],
					"name": "winningProposal",
					"outputs": [
						{
							"name": "_winningProposal",
							"type": "uint8"
						}
					],
					"payable": false,
					"type": "function",
					"stateMutability": "view"
				},
				{
					"constant": false,
					"inputs": [],
					"name": "advanceState",
					"outputs": [],
					"payable": false,
					"type": "function",
					"stateMutability": "nonpayable"
				},
				{
					"constant": false,
					"inputs": [
						{
							"name": "toProposal",
							"type": "uint8"
						}
					],
					"name": "vote",
					"outputs": [],
					"payable": false,
					"type": "function",
					"stateMutability": "nonpayable"
				},
				{
					"constant": true,
					"inputs": [],
					"name": "stage",
					"outputs": [
						{
							"name": "",
							"type": "uint8"
						}
					],
					"payable": false,
					"type": "function",
					"stateMutability": "view"
				},
				{
					"constant": true,
					"inputs": [],
					"name": "timeNow",
					"outputs": [
						{
							"name": "",
							"type": "uint256"
						}
					],
					"payable": false,
					"type": "function",
					"stateMutability": "view"
				},
				{
					"inputs": [
						{
							"name": "_numProposals",
							"type": "uint8"
						}
					],
					"payable": false,
					"type": "constructor",
					"stateMutability": "nonpayable"
				},
				{
					"anonymous": false,
					"inputs": [],
					"name": "votingCompleted",
					"type": "event"
				}
			],
			"evm": {
				"bytecode": {
					"object": "60606040526000600060006101000a81548160ff0219169083600381111561002357fe5b0217905550341561003057fe5b604051602080610863833981016040528080519060200190919050505b33600060016101000a81548173ffffffffffffffffffffffffffffffffffffffff021916908373ffffffffffffffffffffffffffffffffffffffff160217905550600260016000600060019054906101000a900473ffffffffffffffffffffffffffffffffffffffff1673ffffffffffffffffffffffffffffffffffffffff1673ffffffffffffffffffffffffffffffffffffffff168152602001908152602001600020600001819055508060ff16600281610109919061013c565b506000600060006101000a81548160ff0219169083600381111561012957fe5b0217905550426003819055505b50610190565b815481835581811511610163578183600052602060002091820191016101629190610168565b5b505050565b61018d91905b8082111561018957600060008201600090555060010161016e565b5090565b90565b6106c48061019f6000396000f30060606040523615610076576000357c0100000000000000000000000000000000000000000000000000000000900463ffffffff1680634420e48614610078578063609ff1bd146100ae57806384ecdaf6146100da578063b3f98adc146100ec578063c040e6b81461010f578063d95660be14610143575bfe5b341561008057fe5b6100ac600480803573ffffffffffffffffffffffffffffffffffffffff16906020019091905050610169565b005b34156100b657fe5b6100be610334565b604051808260ff1660ff16815260200191505060405180910390f35b34156100e257fe5b6100ea610402565b005b34156100f457fe5b61010d600480803560ff1690602001909190505061052e565b005b341561011757fe5b61011f61067f565b6040518082600381111561012f57fe5b60ff16815260200191505060405180910390f35b341561014b57fe5b610153610692565b6040518082815260200191505060405180910390f35b600180600381111561017757fe5b600060009054906101000a900460ff16600381111561019257fe5b14151561019f5760006000fd5b600060019054906101000a900473ffffffffffffffffffffffffffffffffffffffff1673ffffffffffffffffffffffffffffffffffffffff163373ffffffffffffffffffffffffffffffffffffffff161415806102485750600160008373ffffffffffffffffffffffffffffffffffffffff1673ffffffffffffffffffffffffffffffffffffffff16815260200190815260200160002060010160009054906101000a900460ff165b156102525761032f565b6001600160008473ffffffffffffffffffffffffffffffffffffffff1673ffffffffffffffffffffffffffffffffffffffff168152602001908152602001600020600001819055506000600160008473ffffffffffffffffffffffffffffffffffffffff1673ffffffffffffffffffffffffffffffffffffffff16815260200190815260200160002060010160006101000a81548160ff02191690831515021790555060146003540142111561032e576002600060006101000a81548160ff0219169083600381111561032157fe5b0217905550426003819055505b5b5b5050565b600060006000600380600381111561034857fe5b600060009054906101000a900460ff16600381111561036357fe5b1415156103705760006000fd5b60009250600091505b6002805490508260ff1610156103ee578260028360ff1681548110151561039c57fe5b906000526020600020900160005b506000015411156103e05760028260ff168154811015156103c757fe5b906000526020600020900160005b506000015492508193505b5b8180600101925050610379565b6000831115156103fa57fe5b5b5b50505090565b42600481905550600a60035401600454111561052b576004546003819055506000600381111561042e57fe5b600060009054906101000a900460ff16600381111561044957fe5b1415610478576001600060006101000a81548160ff0219169083600381111561046e57fe5b021790555061052c565b6001600381111561048557fe5b600060009054906101000a900460ff1660038111156104a057fe5b14156104cf576002600060006101000a81548160ff021916908360038111156104c557fe5b021790555061052c565b600260038111156104dc57fe5b600060009054906101000a900460ff1660038111156104f757fe5b1415610526576003600060006101000a81548160ff0219169083600381111561051c57fe5b021790555061052c565b61052c565b5b565b6000600280600381111561053e57fe5b600060009054906101000a900460ff16600381111561055957fe5b1415156105665760006000fd5b600160003373ffffffffffffffffffffffffffffffffffffffff1673ffffffffffffffffffffffffffffffffffffffff16815260200190815260200160002091508160010160009054906101000a900460ff16806105cc57506002805490508360ff1610155b156105d657610679565b60018260010160006101000a81548160ff021916908315150217905550828260010160016101000a81548160ff021916908360ff160217905550816000015460028460ff1681548110151561062757fe5b906000526020600020900160005b5060000160008282540192505081905550600a60035401421115610678576003600060006101000a81548160ff0219169083600381111561067257fe5b02179055505b5b5b505050565b600060009054906101000a900460ff1681565b600454815600a165627a7a7230582037f3355eac78a2851f62b4aff3d78df603e3ce3c475b73edbe6c215fb3b9fd250029",
					"opcodes": "PUSH1 0x60 PUSH1 0x40 MSTORE PUSH1 0x0 PUSH1 0x0 PUSH1 0x0 PUSH2 0x100 EXP DUP2 SLOAD DUP2 PUSH1 0xFF MUL NOT AND SWAP1 DUP4 PUSH1 0x3 DUP2 GT ISZERO PUSH2 0x23 JUMPI INVALID JUMPDEST MUL OR SWAP1 SSTORE POP CALLVALUE ISZERO PUSH2 0x30 JUMPI INVALID JUMPDEST PUSH1 0x40 MLOAD PUSH1 0x20 DUP1 PUSH2 0x863 DUP4 CODECOPY DUP2 ADD PUSH1 0x40 MSTORE DUP1 DUP1 MLOAD SWAP1 PUSH1 0x20 ADD SWAP1 SWAP2 SWAP1 POP POP JUMPDEST CALLER PUSH1 0x0 PUSH1 0x1 PUSH2 0x100 EXP DUP2 SLOAD DUP2 PUSH20 0xFFFFFFFFFFFFFFFFFFFFFFFFFFFFFFFFFFFFFFFF MUL NOT AND SWAP1 DUP4 PUSH20 0xFFFFFFFFFFFFFFFFFFFFFFFFFFFFFFFFFFFFFFFF AND MUL OR SWAP1 SSTORE POP PUSH1 0x2 PUSH1 0x1 PUSH1 0x0 PUSH1 0x0 PUSH1 0x1 SWAP1 SLOAD SWAP1 PUSH2 0x100 EXP SWAP1 DIV PUSH20 0xFFFFFFFFFFFFFFFFFFFFFFFFFFFFFFFFFFFFFFFF AND PUSH20 0xFFFFFFFFFFFFFFFFFFFFFFFFFFFFFFFFFFFFFFFF AND PUSH20 0xFFFFFFFFFFFFFFFFFFFFFFFFFFFFFFFFFFFFFFFF AND DUP2 MSTORE PUSH1 0x20 ADD SWAP1 DUP2 MSTORE PUSH1 0x20 ADD PUSH1 0x0 SHA3 PUSH1 0x0 ADD DUP2 SWAP1 SSTORE POP DUP1 PUSH1 0xFF AND PUSH1 0x2 DUP2 PUSH2 0x109 SWAP2 SWAP1 PUSH2 0x13C JUMP JUMPDEST POP PUSH1 0x0 PUSH1 0x0 PUSH1 0x0 PUSH2 0x100 EXP DUP2 SLOAD DUP2 PUSH1 0xFF MUL NOT AND SWAP1 DUP4 PUSH1 0x3 DUP2 GT ISZERO PUSH2 0x129 JUMPI INVALID JUMPDEST MUL OR SWAP1 SSTORE POP TIMESTAMP PUSH1 0x3 DUP2 SWAP1 SSTORE POP JUMPDEST POP PUSH2 0x190 JUMP JUMPDEST DUP2 SLOAD DUP2 DUP4 SSTORE DUP2 DUP2 ISZERO GT PUSH2 0x163 JUMPI DUP2 DUP4 PUSH1 0x0 MSTORE PUSH1 0x20 PUSH1 0x0 SHA3 SWAP2 DUP3 ADD SWAP2 ADD PUSH2 0x162 SWAP2 SWAP1 PUSH2 0x168 JUMP JUMPDEST JUMPDEST POP POP POP JUMP JUMPDEST PUSH2 0x18D SWAP2 SWAP1 JUMPDEST DUP1 DUP3 GT ISZERO PUSH2 0x189 JUMPI PUSH1 0x0 PUSH1 0x0 DUP3 ADD PUSH1 0x0 SWAP1 SSTORE POP PUSH1 0x1 ADD PUSH2 0x16E JUMP JUMPDEST POP SWAP1 JUMP JUMPDEST SWAP1 JUMP JUMPDEST PUSH2 0x6C4 DUP1 PUSH2 0x19F PUSH1 0x0 CODECOPY PUSH1 0x0 RETURN STOP PUSH1 0x60 PUSH1 0x40 MSTORE CALLDATASIZE ISZERO PUSH2 0x76 JUMPI PUSH1 0x0 CALLDATALOAD PUSH29 0x100000000000000000000000000000000000000000000000000000000 SWAP1 DIV PUSH4 0xFFFFFFFF AND DUP1 PUSH4 0x4420E486 EQ PUSH2 0x78 JUMPI DUP1 PUSH4 0x609FF1BD EQ PUSH2 0xAE JUMPI DUP1 PUSH4 0x84ECDAF6 EQ PUSH2 0xDA JUMPI DUP1 PUSH4 0xB3F98ADC EQ PUSH2 0xEC JUMPI DUP1 PUSH4 0xC040E6B8 EQ PUSH2 0x10F JUMPI DUP1 PUSH4 0xD95660BE EQ PUSH2 0x143 JUMPI JUMPDEST INVALID JUMPDEST CALLVALUE ISZERO PUSH2 0x80 JUMPI INVALID JUMPDEST PUSH2 0xAC PUSH1 0x4 DUP1 DUP1 CALLDATALOAD PUSH20 0xFFFFFFFFFFFFFFFFFFFFFFFFFFFFFFFFFFFFFFFF AND SWAP1 PUSH1 0x20 ADD SWAP1 SWAP2 SWAP1 POP POP PUSH2 0x169 JUMP JUMPDEST STOP JUMPDEST CALLVALUE ISZERO PUSH2 0xB6 JUMPI INVALID JUMPDEST PUSH2 0xBE PUSH2 0x334 JUMP JUMPDEST PUSH1 0x40 MLOAD DUP1 DUP3 PUSH1 0xFF AND PUSH1 0xFF AND DUP2 MSTORE PUSH1 0x20 ADD SWAP2 POP POP PUSH1 0x40 MLOAD DUP1 SWAP2 SUB SWAP1 RETURN JUMPDEST CALLVALUE ISZERO PUSH2 0xE2 JUMPI INVALID JUMPDEST PUSH2 0xEA PUSH2 0x402 JUMP JUMPDEST STOP JUMPDEST CALLVALUE ISZERO PUSH2 0xF4 JUMPI INVALID JUMPDEST PUSH2 0x10D PUSH1 0x4 DUP1 DUP1 CALLDATALOAD PUSH1 0xFF AND SWAP1 PUSH1 0x20 ADD SWAP1 SWAP2 SWAP1 POP POP PUSH2 0x52E JUMP JUMPDEST STOP JUMPDEST CALLVALUE ISZERO PUSH2 0x117 JUMPI INVALID JUMPDEST PUSH2 0x11F PUSH2 0x67F JUMP JUMPDEST PUSH1 0x40 MLOAD DUP1 DUP3 PUSH1 0x3 DUP2 GT ISZERO PUSH2 0x12F JUMPI INVALID JUMPDEST PUSH1 0xFF AND DUP2 MSTORE PUSH1 0x20 ADD SWAP2 POP POP PUSH1 0x40 MLOAD DUP1 SWAP2 SUB SWAP1 RETURN JUMPDEST CALLVALUE ISZERO PUSH2 0x14B JUMPI INVALID JUMPDEST PUSH2 0x153 PUSH2 0x692 JUMP JUMPDEST PUSH1 0x40 MLOAD DUP1 DUP3 DUP2 MSTORE PUSH1 0x20 ADD SWAP2 POP POP PUSH1 0x40 MLOAD DUP1 SWAP2 SUB SWAP1 RETURN JUMPDEST PUSH1 0x1 DUP1 PUSH1 0x3 DUP2 GT ISZERO PUSH2 0x177 JUMPI INVALID JUMPDEST PUSH1 0x0 PUSH1 0x0 SWAP1 SLOAD SWAP1 PUSH2 0x100 EXP SWAP1 DIV PUSH1 0xFF AND PUSH1 0x3 DUP2 GT ISZERO PUSH2 0x192 JUMPI INVALID JUMPDEST EQ ISZERO ISZERO PUSH2 0x19F JUMPI PUSH1 0x0 PUSH1 0x0 REVERT JUMPDEST PUSH1 0x0 PUSH1 0x1 SWAP1 SLOAD SWAP1 PUSH2 0x100 EXP SWAP1 DIV PUSH20 0xFFFFFFFFFFFFFFFFFFFFFFFFFFFFFFFFFFFFFFFF AND PUSH20 0xFFFFFFFFFFFFFFFFFFFFFFFFFFFFFFFFFFFFFFFF AND CALLER PUSH20 0xFFFFFFFFFFFFFFFFFFFFFFFFFFFFFFFFFFFFFFFF AND EQ ISZERO DUP1 PUSH2 0x248 JUMPI POP PUSH1 0x1 PUSH1 0x0 DUP4 PUSH20 0xFFFFFFFFFFFFFFFFFFFFFFFFFFFFFFFFFFFFFFFF AND PUSH20 0xFFFFFFFFFFFFFFFFFFFFFFFFFFFFFFFFFFFFFFFF AND DUP2 MSTORE PUSH1 0x20 ADD SWAP1 DUP2 MSTORE PUSH1 0x20 ADD PUSH1 0x0 SHA3 PUSH1 0x1 ADD PUSH1 0x0 SWAP1 SLOAD SWAP1 PUSH2 0x100 EXP SWAP1 DIV PUSH1 0xFF AND JUMPDEST ISZERO PUSH2 0x252 JUMPI PUSH2 0x32F JUMP JUMPDEST PUSH1 0x1 PUSH1 0x1 PUSH1 0x0 DUP5 PUSH20 0xFFFFFFFFFFFFFFFFFFFFFFFFFFFFFFFFFFFFFFFF AND PUSH20 0xFFFFFFFFFFFFFFFFFFFFFFFFFFFFFFFFFFFFFFFF AND DUP2 MSTORE PUSH1 0x20 ADD SWAP1 DUP2 MSTORE PUSH1 0x20 ADD PUSH1 0x0 SHA3 PUSH1 0x0 ADD DUP2 SWAP1 SSTORE POP PUSH1 0x0 PUSH1 0x1 PUSH1 0x0 DUP5 PUSH20 0xFFFFFFFFFFFFFFFFFFFFFFFFFFFFFFFFFFFFFFFF AND PUSH20 0xFFFFFFFFFFFFFFFFFFFFFFFFFFFFFFFFFFFFFFFF AND DUP2 MSTORE PUSH1 0x20 ADD SWAP1 DUP2 MSTORE PUSH1 0x20 ADD PUSH1 0x0 SHA3 PUSH1 0x1 ADD PUSH1 0x0 PUSH2 0x100 EXP DUP2 SLOAD DUP2 PUSH1 0xFF MUL NOT AND SWAP1 DUP4 ISZERO ISZERO MUL OR SWAP1 SSTORE POP PUSH1 0x14 PUSH1 0x3 SLOAD ADD TIMESTAMP GT ISZERO PUSH2 0x32E JUMPI PUSH1 0x2 PUSH1 0x0 PUSH1 0x0 PUSH2 0x100 EXP DUP2 SLOAD DUP2 PUSH1 0xFF MUL NOT AND SWAP1 DUP4 PUSH1 0x3 DUP2 GT ISZERO PUSH2 0x321 JUMPI INVALID JUMPDEST MUL OR SWAP1 SSTORE POP TIMESTAMP PUSH1 0x3 DUP2 SWAP1 SSTORE POP JUMPDEST JUMPDEST JUMPDEST POP POP JUMP JUMPDEST PUSH1 0x0 PUSH1 0x0 PUSH1 0x0 PUSH1 0x3 DUP1 PUSH1 0x3 DUP2 GT ISZERO PUSH2 0x348 JUMPI INVALID JUMPDEST PUSH1 0x0 PUSH1 0x0 SWAP1 SLOAD SWAP1 PUSH2 0x100 EXP SWAP1 DIV PUSH1 0xFF AND PUSH1 0x3 DUP2 GT ISZERO PUSH2 0x363 JUMPI INVALID JUMPDEST EQ ISZERO ISZERO PUSH2 0x370 JUMPI PUSH1 0x0 PUSH1 0x0 REVERT JUMPDEST PUSH1 0x0 SWAP3 POP PUSH1 0x0 SWAP2 POP JUMPDEST PUSH1 0x2 DUP1 SLOAD SWAP1 POP DUP3 PUSH1 0xFF AND LT ISZERO PUSH2 0x3EE JUMPI DUP3 PUSH1 0x2 DUP4 PUSH1 0xFF AND DUP2 SLOAD DUP2 LT ISZERO ISZERO PUSH2 0x39C JUMPI INVALID JUMPDEST SWAP1 PUSH1 0x0 MSTORE PUSH1 0x20 PUSH1 0x0 SHA3 SWAP1 ADD PUSH1 0x0 JUMPDEST POP PUSH1 0x0 ADD SLOAD GT ISZERO PUSH2 0x3E0 JUMPI PUSH1 0x2 DUP3 PUSH1 0xFF AND DUP2 SLOAD DUP2 LT ISZERO ISZERO PUSH2 0x3C7 JUMPI INVALID JUMPDEST SWAP1 PUSH1 0x0 MSTORE PUSH1 0x20 PUSH1 0x0 SHA3 SWAP1 ADD PUSH1 0x0 JUMPDEST POP PUSH1 0x0 ADD SLOAD SWAP3 POP DUP2 SWAP4 POP JUMPDEST JUMPDEST DUP2 DUP1 PUSH1 0x1 ADD SWAP3 POP POP PUSH2 0x379 JUMP JUMPDEST PUSH1 0x0 DUP4 GT ISZERO ISZERO PUSH2 0x3FA JUMPI INVALID JUMPDEST JUMPDEST JUMPDEST POP POP POP SWAP1 JUMP JUMPDEST TIMESTAMP PUSH1 0x4 DUP2 SWAP1 SSTORE POP PUSH1 0xA PUSH1 0x3 SLOAD ADD PUSH1 0x4 SLOAD GT ISZERO PUSH2 0x52B JUMPI PUSH1 0x4 SLOAD PUSH1 0x3 DUP2 SWAP1 SSTORE POP PUSH1 0x0 PUSH1 0x3 DUP2 GT ISZERO PUSH2 0x42E JUMPI INVALID JUMPDEST PUSH1 0x0 PUSH1 0x0 SWAP1 SLOAD SWAP1 PUSH2 0x100 EXP SWAP1 DIV PUSH1 0xFF AND PUSH1 0x3 DUP2 GT ISZERO PUSH2 0x449 JUMPI INVALID JUMPDEST EQ ISZERO PUSH2 0x478 JUMPI PUSH1 0x1 PUSH1 0x0 PUSH1 0x0 PUSH2 0x100 EXP DUP2 SLOAD DUP2 PUSH1 0xFF MUL NOT AND SWAP1 DUP4 PUSH1 0x3 DUP2 GT ISZERO PUSH2 0x46E JUMPI INVALID JUMPDEST MUL OR SWAP1 SSTORE POP PUSH2 0x52C JUMP JUMPDEST PUSH1 0x1 PUSH1 0x3 DUP2 GT ISZERO PUSH2 0x485 JUMPI INVALID JUMPDEST PUSH1 0x0 PUSH1 0x0 SWAP1 SLOAD SWAP1 PUSH2 0x100 EXP SWAP1 DIV PUSH1 0xFF AND PUSH1 0x3 DUP2 GT ISZERO PUSH2 0x4A0 JUMPI INVALID JUMPDEST EQ ISZERO PUSH2 0x4CF JUMPI PUSH1 0x2 PUSH1 0x0 PUSH1 0x0 PUSH2 0x100 EXP DUP2 SLOAD DUP2 PUSH1 0xFF MUL NOT AND SWAP1 DUP4 PUSH1 0x3 DUP2 GT ISZERO PUSH2 0x4C5 JUMPI INVALID JUMPDEST MUL OR SWAP1 SSTORE POP PUSH2 0x52C JUMP JUMPDEST PUSH1 0x2 PUSH1 0x3 DUP2 GT ISZERO PUSH2 0x4DC JUMPI INVALID JUMPDEST PUSH1 0x0 PUSH1 0x0 SWAP1 SLOAD SWAP1 PUSH2 0x100 EXP SWAP1 DIV PUSH1 0xFF AND PUSH1 0x3 DUP2 GT ISZERO PUSH2 0x4F7 JUMPI INVALID JUMPDEST EQ ISZERO PUSH2 0x526 JUMPI PUSH1 0x3 PUSH1 0x0 PUSH1 0x0 PUSH2 0x100 EXP DUP2 SLOAD DUP2 PUSH1 0xFF MUL NOT AND SWAP1 DUP4 PUSH1 0x3 DUP2 GT ISZERO PUSH2 0x51C JUMPI INVALID JUMPDEST MUL OR SWAP1 SSTORE POP PUSH2 0x52C JUMP JUMPDEST PUSH2 0x52C JUMP JUMPDEST JUMPDEST JUMP JUMPDEST PUSH1 0x0 PUSH1 0x2 DUP1 PUSH1 0x3 DUP2 GT ISZERO PUSH2 0x53E JUMPI INVALID JUMPDEST PUSH1 0x0 PUSH1 0x0 SWAP1 SLOAD SWAP1 PUSH2 0x100 EXP SWAP1 DIV PUSH1 0xFF AND PUSH1 0x3 DUP2 GT ISZERO PUSH2 0x559 JUMPI INVALID JUMPDEST EQ ISZERO ISZERO PUSH2 0x566 JUMPI PUSH1 0x0 PUSH1 0x0 REVERT JUMPDEST PUSH1 0x1 PUSH1 0x0 CALLER PUSH20 0xFFFFFFFFFFFFFFFFFFFFFFFFFFFFFFFFFFFFFFFF AND PUSH20 0xFFFFFFFFFFFFFFFFFFFFFFFFFFFFFFFFFFFFFFFF AND DUP2 MSTORE PUSH1 0x20 ADD SWAP1 DUP2 MSTORE PUSH1 0x20 ADD PUSH1 0x0 SHA3 SWAP2 POP DUP2 PUSH1 0x1 ADD PUSH1 0x0 SWAP1 SLOAD SWAP1 PUSH2 0x100 EXP SWAP1 DIV PUSH1 0xFF AND DUP1 PUSH2 0x5CC JUMPI POP PUSH1 0x2 DUP1 SLOAD SWAP1 POP DUP4 PUSH1 0xFF AND LT ISZERO JUMPDEST ISZERO PUSH2 0x5D6 JUMPI PUSH2 0x679 JUMP JUMPDEST PUSH1 0x1 DUP3 PUSH1 0x1 ADD PUSH1 0x0 PUSH2 0x100 EXP DUP2 SLOAD DUP2 PUSH1 0xFF MUL NOT AND SWAP1 DUP4 ISZERO ISZERO MUL OR SWAP1 SSTORE POP DUP3 DUP3 PUSH1 0x1 ADD PUSH1 0x1 PUSH2 0x100 EXP DUP2 SLOAD DUP2 PUSH1 0xFF MUL NOT AND SWAP1 DUP4 PUSH1 0xFF AND MUL OR SWAP1 SSTORE POP DUP2 PUSH1 0x0 ADD SLOAD PUSH1 0x2 DUP5 PUSH1 0xFF AND DUP2 SLOAD DUP2 LT ISZERO ISZERO PUSH2 0x627 JUMPI INVALID JUMPDEST SWAP1 PUSH1 0x0 MSTORE PUSH1 0x20 PUSH1 0x0 SHA3 SWAP1 ADD PUSH1 0x0 JUMPDEST POP PUSH1 0x0 ADD PUSH1 0x0 DUP3 DUP3 SLOAD ADD SWAP3 POP POP DUP2 SWAP1 SSTORE POP PUSH1 0xA PUSH1 0x3 SLOAD ADD TIMESTAMP GT ISZERO PUSH2 0x678 JUMPI PUSH1 0x3 PUSH1 0x0 PUSH1 0x0 PUSH2 0x100 EXP DUP2 SLOAD DUP2 PUSH1 0xFF MUL NOT AND SWAP1 DUP4 PUSH1 0x3 DUP2 GT ISZERO PUSH2 0x672 JUMPI INVALID JUMPDEST MUL OR SWAP1 SSTORE POP JUMPDEST JUMPDEST JUMPDEST POP POP POP JUMP JUMPDEST PUSH1 0x0 PUSH1 0x0 SWAP1 SLOAD SWAP1 PUSH2 0x100 EXP SWAP1 DIV PUSH1 0xFF AND DUP2 JUMP JUMPDEST PUSH1 0x4 SLOAD DUP2 JUMP STOP LOG1 PUSH6 0x627A7A723058 SHA3 CALLDATACOPY RETURN CALLDATALOAD 0x5e 0xac PUSH25 0xA2851F62B4AFF3D78DF603E3CE3C475B73EDBE6C215FB3B9FD 0x25 STOP 0x29 ",
					"linkReferences": {}
				},
				"methodIdentifiers": {
					"advanceState()": "84ecdaf6",
					"register(address)": "4420e486",
					"stage()": "c040e6b8",
					"timeNow()": "d95660be",
					"vote(uint8)": "b3f98adc",
					"winningProposal()": "609ff1bd"
				},
				"gasEstimates": {
					"creation": {
						"codeDepositCost": "346400",
						"executionCost": "infinite"
					},
					"internal": {},
					"external": {
						"advanceState()": "61017",
						"register(address)": "81235",
						"stage()": "389",
						"timeNow()": "343",
						"vote(uint8)": "81486",
						"winningProposal()": "infinite"
					}
				}
			}
		}
	}
}